{
  "contracts/GridManager.sol": {
    "GridManager": {
      "abi": [
        {
          "inputs": [],
          "stateMutability": "nonpayable",
          "type": "constructor"
        },
        {
          "inputs": [
            {
              "internalType": "bytes32",
              "name": "gridId",
              "type": "bytes32"
            }
          ],
          "name": "DuplicateGridId",
          "type": "error"
        },
        {
          "inputs": [
            {
              "internalType": "address",
              "name": "sender",
              "type": "address"
            }
          ],
          "name": "InvalidCall",
          "type": "error"
        },
        {
          "inputs": [
            {
              "internalType": "bytes32",
              "name": "gridId",
              "type": "bytes32"
            }
          ],
          "name": "NoGridFound",
          "type": "error"
        },
        {
          "inputs": [
            {
              "internalType": "address",
              "name": "_user",
              "type": "address"
            }
          ],
          "name": "NoUserInGrid",
          "type": "error"
        },
        {
          "inputs": [
            {
              "internalType": "address",
              "name": "user",
              "type": "address"
            }
          ],
          "name": "NotAdmin",
          "type": "error"
        },
        {
          "inputs": [
            {
              "internalType": "address",
              "name": "device",
              "type": "address"
            }
          ],
          "name": "NotAuthorized",
          "type": "error"
        },
        {
          "inputs": [
            {
              "internalType": "bytes32",
              "name": "gridId",
              "type": "bytes32"
            },
            {
              "internalType": "address",
              "name": "user",
              "type": "address"
            }
          ],
          "name": "UserAlreadyInGrid",
          "type": "error"
        },
        {
          "anonymous": false,
          "inputs": [
            {
              "indexed": false,
              "internalType": "address",
              "name": "device",
              "type": "address"
            }
          ],
          "name": "AuthorizedNewDevice",
          "type": "event"
        },
        {
          "anonymous": false,
          "inputs": [
            {
              "indexed": false,
              "internalType": "bytes32",
              "name": "gridId",
              "type": "bytes32"
            },
            {
              "indexed": false,
              "internalType": "string",
              "name": "name",
              "type": "string"
            },
            {
              "indexed": false,
              "internalType": "string",
              "name": "countryCode",
              "type": "string"
            },
            {
              "indexed": false,
              "internalType": "string",
              "name": "countryName",
              "type": "string"
            }
          ],
          "name": "NewGridCreated",
          "type": "event"
        },
        {
          "anonymous": false,
          "inputs": [
            {
              "indexed": false,
              "internalType": "address",
              "name": "user",
              "type": "address"
            },
            {
              "indexed": false,
              "internalType": "bytes32",
              "name": "gridId",
              "type": "bytes32"
            }
          ],
          "name": "UserConnectedToGrid",
          "type": "event"
        },
        {
          "anonymous": false,
          "inputs": [
            {
              "indexed": false,
              "internalType": "address",
              "name": "user",
              "type": "address"
            }
          ],
          "name": "UserRemovedFromGrid",
          "type": "event"
        },
        {
          "stateMutability": "nonpayable",
          "type": "fallback"
        },
        {
          "inputs": [
            {
              "internalType": "address",
              "name": "_device",
              "type": "address"
            }
          ],
          "name": "addAuthorizedDevice",
          "outputs": [],
          "stateMutability": "nonpayable",
          "type": "function"
        },
        {
          "inputs": [
            {
              "internalType": "bytes32",
              "name": "_gridId",
              "type": "bytes32"
            }
          ],
          "name": "addUserToGrid",
          "outputs": [],
          "stateMutability": "nonpayable",
          "type": "function"
        },
        {
          "inputs": [
            {
              "internalType": "address",
              "name": "",
              "type": "address"
            }
          ],
          "name": "authorizedGridStations",
          "outputs": [
            {
              "internalType": "bool",
              "name": "",
              "type": "bool"
            }
          ],
          "stateMutability": "view",
          "type": "function"
        },
        {
          "inputs": [
            {
              "internalType": "string",
              "name": "_name",
              "type": "string"
            },
            {
              "internalType": "string",
              "name": "_countryCode",
              "type": "string"
            },
            {
              "internalType": "string",
              "name": "_countryName",
              "type": "string"
            }
          ],
          "name": "createGrid",
          "outputs": [],
          "stateMutability": "nonpayable",
          "type": "function"
        },
        {
          "inputs": [
            {
              "internalType": "address",
              "name": "_user",
              "type": "address"
            }
          ],
          "name": "getUserGridData",
          "outputs": [
            {
              "components": [
                {
                  "internalType": "bytes32",
                  "name": "id",
                  "type": "bytes32"
                },
                {
                  "internalType": "string",
                  "name": "name",
                  "type": "string"
                },
                {
                  "internalType": "string",
                  "name": "countryCode",
                  "type": "string"
                },
                {
                  "internalType": "string",
                  "name": "countryName",
                  "type": "string"
                },
                {
                  "internalType": "uint256",
                  "name": "userCount",
                  "type": "uint256"
                },
                {
                  "internalType": "address",
                  "name": "createdBy",
                  "type": "address"
                },
                {
                  "internalType": "bool",
                  "name": "exists",
                  "type": "bool"
                }
              ],
              "internalType": "struct GridManager.Grid",
              "name": "",
              "type": "tuple"
            }
          ],
          "stateMutability": "view",
          "type": "function"
        },
        {
          "inputs": [
            {
              "internalType": "uint256",
              "name": "",
              "type": "uint256"
            }
          ],
          "name": "gridIds",
          "outputs": [
            {
              "internalType": "bytes32",
              "name": "",
              "type": "bytes32"
            }
          ],
          "stateMutability": "view",
          "type": "function"
        },
        {
          "inputs": [
            {
              "internalType": "bytes32",
              "name": "",
              "type": "bytes32"
            }
          ],
          "name": "grids",
          "outputs": [
            {
              "internalType": "bytes32",
              "name": "id",
              "type": "bytes32"
            },
            {
              "internalType": "string",
              "name": "name",
              "type": "string"
            },
            {
              "internalType": "string",
              "name": "countryCode",
              "type": "string"
            },
            {
              "internalType": "string",
              "name": "countryName",
              "type": "string"
            },
            {
              "internalType": "uint256",
              "name": "userCount",
              "type": "uint256"
            },
            {
              "internalType": "address",
              "name": "createdBy",
              "type": "address"
            },
            {
              "internalType": "bool",
              "name": "exists",
              "type": "bool"
            }
          ],
          "stateMutability": "view",
          "type": "function"
        },
        {
          "inputs": [
            {
              "internalType": "address",
              "name": "_user",
              "type": "address"
            }
          ],
          "name": "isUserConnected",
          "outputs": [
            {
              "internalType": "bool",
              "name": "",
              "type": "bool"
            }
          ],
          "stateMutability": "view",
          "type": "function"
        },
        {
          "inputs": [],
          "name": "listGridIds",
          "outputs": [
            {
              "internalType": "bytes32[]",
              "name": "",
              "type": "bytes32[]"
            }
          ],
          "stateMutability": "view",
          "type": "function"
        },
        {
          "inputs": [],
          "name": "listGrids",
          "outputs": [
            {
              "components": [
                {
                  "internalType": "bytes32",
                  "name": "id",
                  "type": "bytes32"
                },
                {
                  "internalType": "string",
                  "name": "name",
                  "type": "string"
                },
                {
                  "internalType": "string",
                  "name": "countryCode",
                  "type": "string"
                },
                {
                  "internalType": "string",
                  "name": "countryName",
                  "type": "string"
                },
                {
                  "internalType": "uint256",
                  "name": "userCount",
                  "type": "uint256"
                },
                {
                  "internalType": "address",
                  "name": "createdBy",
                  "type": "address"
                },
                {
                  "internalType": "bool",
                  "name": "exists",
                  "type": "bool"
                }
              ],
              "internalType": "struct GridManager.Grid[]",
              "name": "",
              "type": "tuple[]"
            }
          ],
          "stateMutability": "view",
          "type": "function"
        },
        {
          "inputs": [],
          "name": "removeUserFromGrid",
          "outputs": [],
          "stateMutability": "nonpayable",
          "type": "function"
        },
        {
          "inputs": [
            {
              "internalType": "address",
              "name": "",
              "type": "address"
            }
          ],
          "name": "userInGrid",
          "outputs": [
            {
              "internalType": "bytes32",
              "name": "",
              "type": "bytes32"
            }
          ],
          "stateMutability": "view",
          "type": "function"
        }
      ],
      "evm": {
        "bytecode": {
          "linkReferences": {},
          "object": "608060405234801561001057600080fd5b50336000806101000a81548173ffffffffffffffffffffffffffffffffffffffff021916908373ffffffffffffffffffffffffffffffffffffffff1602179055506100603361048560201b60201c565b6101106040518060400160405280600b81526020017f48656c73696e67626f72670000000000000000000000000000000000000000008152506040518060400160405280600281526020017f53450000000000000000000000000000000000000000000000000000000000008152506040518060400160405280600681526020017f53776564656e00000000000000000000000000000000000000000000000000008152506105a760201b60201c565b6101c06040518060400160405280600a81526020017f436f70656e686167656e000000000000000000000000000000000000000000008152506040518060400160405280600281526020017f444b0000000000000000000000000000000000000000000000000000000000008152506040518060400160405280600781526020017f44656e6d61726b000000000000000000000000000000000000000000000000008152506105a760201b60201c565b6102706040518060400160405280600481526020017f4f736c6f000000000000000000000000000000000000000000000000000000008152506040518060400160405280600281526020017f4e4f0000000000000000000000000000000000000000000000000000000000008152506040518060400160405280600681526020017f4e6f7277617900000000000000000000000000000000000000000000000000008152506105a760201b60201c565b6103206040518060400160405280600881526020017f48656c73696e6b690000000000000000000000000000000000000000000000008152506040518060400160405280600281526020017f46490000000000000000000000000000000000000000000000000000000000008152506040518060400160405280600781526020017f46696e6c616e64000000000000000000000000000000000000000000000000008152506105a760201b60201c565b6103d06040518060400160405280600681526020017f4c6f6e646f6e00000000000000000000000000000000000000000000000000008152506040518060400160405280600281526020017f47420000000000000000000000000000000000000000000000000000000000008152506040518060400160405280600e81526020017f556e69746564204b696e67646f6d0000000000000000000000000000000000008152506105a760201b60201c565b6104806040518060400160405280600681526020017f4d696c616e6f00000000000000000000000000000000000000000000000000008152506040518060400160405280600281526020017f49540000000000000000000000000000000000000000000000000000000000008152506040518060400160405280600581526020017f4974616c790000000000000000000000000000000000000000000000000000008152506105a760201b60201c565b610d45565b60008054906101000a900473ffffffffffffffffffffffffffffffffffffffff1673ffffffffffffffffffffffffffffffffffffffff163373ffffffffffffffffffffffffffffffffffffffff161461051557336040517f17a8424200000000000000000000000000000000000000000000000000000000815260040161050c9190610895565b60405180910390fd5b6001600460008373ffffffffffffffffffffffffffffffffffffffff1673ffffffffffffffffffffffffffffffffffffffff16815260200190815260200160002060006101000a81548160ff0219169083151502179055507fd07e4ab131a5855bdbce0c0c08c830b5549b21a6645c7cb8df178bb72dd43d5b8160405161059c9190610895565b60405180910390a150565b600460003373ffffffffffffffffffffffffffffffffffffffff1673ffffffffffffffffffffffffffffffffffffffff16815260200190815260200160002060009054906101000a900460ff1661063557336040517f4a0bfec100000000000000000000000000000000000000000000000000000000815260040161062c9190610895565b60405180910390fd5b6000838360405160200161064a929190610921565b6040516020818303038152906040528051906020012090506002600082815260200190815260200160002060050160149054906101000a900460ff16156106c857806040517fe4d3a2a90000000000000000000000000000000000000000000000000000000081526004016106bf919061095e565b60405180910390fd5b6040518060e00160405280828152602001858152602001848152602001838152602001600081526020013373ffffffffffffffffffffffffffffffffffffffff16815260200160011515815250600260008381526020019081526020016000206000820151816000015560208201518160010190816107479190610bbe565b50604082015181600201908161075d9190610bbe565b5060608201518160030190816107739190610bbe565b506080820151816004015560a08201518160050160006101000a81548173ffffffffffffffffffffffffffffffffffffffff021916908373ffffffffffffffffffffffffffffffffffffffff16021790555060c08201518160050160146101000a81548160ff02191690831515021790555090505060018190806001815401808255809150506001900390600052602060002001600090919091909150557f66ef63687acd96f6b870c2f28bdb6ab47b2371eda79774beac774b61938d97c9818585856040516108469493929190610ceb565b60405180910390a150505050565b600073ffffffffffffffffffffffffffffffffffffffff82169050919050565b600061087f82610854565b9050919050565b61088f81610874565b82525050565b60006020820190506108aa6000830184610886565b92915050565b600081519050919050565b600081905092915050565b60005b838110156108e45780820151818401526020810190506108c9565b60008484015250505050565b60006108fb826108b0565b61090581856108bb565b93506109158185602086016108c6565b80840191505092915050565b600061092d82856108f0565b915061093982846108f0565b91508190509392505050565b6000819050919050565b61095881610945565b82525050565b6000602082019050610973600083018461094f565b92915050565b7f4e487b7100000000000000000000000000000000000000000000000000000000600052604160045260246000fd5b7f4e487b7100000000000000000000000000000000000000000000000000000000600052602260045260246000fd5b600060028204905060018216806109ef57607f821691505b602082108103610a0257610a016109a8565b5b50919050565b60008190508160005260206000209050919050565b60006020601f8301049050919050565b600082821b905092915050565b600060088302610a6a7fffffffffffffffffffffffffffffffffffffffffffffffffffffffffffffffff82610a2d565b610a748683610a2d565b95508019841693508086168417925050509392505050565b6000819050919050565b6000819050919050565b6000610abb610ab6610ab184610a8c565b610a96565b610a8c565b9050919050565b6000819050919050565b610ad583610aa0565b610ae9610ae182610ac2565b848454610a3a565b825550505050565b600090565b610afe610af1565b610b09818484610acc565b505050565b5b81811015610b2d57610b22600082610af6565b600181019050610b0f565b5050565b601f821115610b7257610b4381610a08565b610b4c84610a1d565b81016020851015610b5b578190505b610b6f610b6785610a1d565b830182610b0e565b50505b505050565b600082821c905092915050565b6000610b9560001984600802610b77565b1980831691505092915050565b6000610bae8383610b84565b9150826002028217905092915050565b610bc7826108b0565b67ffffffffffffffff811115610be057610bdf610979565b5b610bea82546109d7565b610bf5828285610b31565b600060209050601f831160018114610c285760008415610c16578287015190505b610c208582610ba2565b865550610c88565b601f198416610c3686610a08565b60005b82811015610c5e57848901518255600182019150602085019450602081019050610c39565b86831015610c7b5784890151610c77601f891682610b84565b8355505b6001600288020188555050505b505050505050565b600082825260208201905092915050565b6000601f19601f8301169050919050565b6000610cbd826108b0565b610cc78185610c90565b9350610cd78185602086016108c6565b610ce081610ca1565b840191505092915050565b6000608082019050610d00600083018761094f565b8181036020830152610d128186610cb2565b90508181036040830152610d268185610cb2565b90508181036060830152610d3a8184610cb2565b905095945050505050565b611ffa80610d546000396000f3fe608060405234801561001057600080fd5b50600436106100b85760003560e01c8063b3c739f811610071578063b3c739f8146101d0578063bbb13df1146101ec578063cbc6a21d1461020a578063d0a9aa7614610226578063e6830d1f14610256578063f4491dfb14610286576100b9565b8063568d8c51146100f6578063683b27cf1461012657806371a0e2d0146101565780639cd2f8b414610160578063a6c47bea14610196578063a88b82a5146101b4576100b9565b5b336040517f71250a620000000000000000000000000000000000000000000000000000000081526004016100ed91906112ad565b60405180910390fd5b610110600480360381019061010b9190611308565b6102b6565b60405161011d9190611350565b60405180910390f35b610140600480360381019061013b91906113a1565b6102d6565b60405161014d91906113e7565b60405180910390f35b61015e6102fa565b005b61017a6004803603810190610175919061142e565b6103e7565b60405161018d97969594939291906114fa565b60405180910390f35b61019e6105ee565b6040516101ab919061163c565b60405180910390f35b6101ce60048036038101906101c99190611793565b610646565b005b6101ea60048036038101906101e59190611308565b6108f3565b005b6101f4610a15565b6040516102019190611a1d565b60405180910390f35b610224600480360381019061021f919061142e565b610d1b565b005b610240600480360381019061023b9190611308565b610eb4565b60405161024d91906113e7565b60405180910390f35b610270600480360381019061026b9190611308565b610ecc565b60405161027d9190611ae9565b60405180910390f35b6102a0600480360381019061029b9190611308565b611183565b6040516102ad9190611350565b60405180910390f35b60046020528060005260406000206000915054906101000a900460ff1681565b600181815481106102e657600080fd5b906000526020600020016000915090505481565b6000600360003373ffffffffffffffffffffffffffffffffffffffff1673ffffffffffffffffffffffffffffffffffffffff16815260200190815260200160002054905060026000828152602001908152602001600020600401600081548092919061036590611b3a565b9190505550600360003373ffffffffffffffffffffffffffffffffffffffff1673ffffffffffffffffffffffffffffffffffffffff168152602001908152602001600020600090557f53000d7f8934037f736a53921aef65ac968b80661f5af6d5754fd177b035ec8f336040516103dc91906112ad565b60405180910390a150565b600260205280600052604060002060009150905080600001549080600101805461041090611b92565b80601f016020809104026020016040519081016040528092919081815260200182805461043c90611b92565b80156104895780601f1061045e57610100808354040283529160200191610489565b820191906000526020600020905b81548152906001019060200180831161046c57829003601f168201915b50505050509080600201805461049e90611b92565b80601f01602080910402602001604051908101604052809291908181526020018280546104ca90611b92565b80156105175780601f106104ec57610100808354040283529160200191610517565b820191906000526020600020905b8154815290600101906020018083116104fa57829003601f168201915b50505050509080600301805461052c90611b92565b80601f016020809104026020016040519081016040528092919081815260200182805461055890611b92565b80156105a55780601f1061057a576101008083540402835291602001916105a5565b820191906000526020600020905b81548152906001019060200180831161058857829003601f168201915b5050505050908060040154908060050160009054906101000a900473ffffffffffffffffffffffffffffffffffffffff16908060050160149054906101000a900460ff16905087565b6060600180548060200260200160405190810160405280929190818152602001828054801561063c57602002820191906000526020600020905b815481526020019060010190808311610628575b5050505050905090565b600460003373ffffffffffffffffffffffffffffffffffffffff1673ffffffffffffffffffffffffffffffffffffffff16815260200190815260200160002060009054906101000a900460ff166106d457336040517f4a0bfec10000000000000000000000000000000000000000000000000000000081526004016106cb91906112ad565b60405180910390fd5b600083836040516020016106e9929190611bff565b6040516020818303038152906040528051906020012090506002600082815260200190815260200160002060050160149054906101000a900460ff161561076757806040517fe4d3a2a900000000000000000000000000000000000000000000000000000000815260040161075e91906113e7565b60405180910390fd5b6040518060e00160405280828152602001858152602001848152602001838152602001600081526020013373ffffffffffffffffffffffffffffffffffffffff16815260200160011515815250600260008381526020019081526020016000206000820151816000015560208201518160010190816107e69190611dcf565b5060408201518160020190816107fc9190611dcf565b5060608201518160030190816108129190611dcf565b506080820151816004015560a08201518160050160006101000a81548173ffffffffffffffffffffffffffffffffffffffff021916908373ffffffffffffffffffffffffffffffffffffffff16021790555060c08201518160050160146101000a81548160ff02191690831515021790555090505060018190806001815401808255809150506001900390600052602060002001600090919091909150557f66ef63687acd96f6b870c2f28bdb6ab47b2371eda79774beac774b61938d97c9818585856040516108e59493929190611ea1565b60405180910390a150505050565b60008054906101000a900473ffffffffffffffffffffffffffffffffffffffff1673ffffffffffffffffffffffffffffffffffffffff163373ffffffffffffffffffffffffffffffffffffffff161461098357336040517f17a8424200000000000000000000000000000000000000000000000000000000815260040161097a91906112ad565b60405180910390fd5b6001600460008373ffffffffffffffffffffffffffffffffffffffff1673ffffffffffffffffffffffffffffffffffffffff16815260200190815260200160002060006101000a81548160ff0219169083151502179055507fd07e4ab131a5855bdbce0c0c08c830b5549b21a6645c7cb8df178bb72dd43d5b81604051610a0a91906112ad565b60405180910390a150565b6060600060018054905067ffffffffffffffff811115610a3857610a37611668565b5b604051908082528060200260200182016040528015610a7157816020015b610a5e611214565b815260200190600190039081610a565790505b50905060005b600180549050811015610d1357600060018281548110610a9a57610a99611efb565b5b9060005260206000200154905060006002600083815260200190815260200160002090506040518060e00160405280838152602001826001018054610ade90611b92565b80601f0160208091040260200160405190810160405280929190818152602001828054610b0a90611b92565b8015610b575780601f10610b2c57610100808354040283529160200191610b57565b820191906000526020600020905b815481529060010190602001808311610b3a57829003601f168201915b50505050508152602001826002018054610b7090611b92565b80601f0160208091040260200160405190810160405280929190818152602001828054610b9c90611b92565b8015610be95780601f10610bbe57610100808354040283529160200191610be9565b820191906000526020600020905b815481529060010190602001808311610bcc57829003601f168201915b50505050508152602001826003018054610c0290611b92565b80601f0160208091040260200160405190810160405280929190818152602001828054610c2e90611b92565b8015610c7b5780601f10610c5057610100808354040283529160200191610c7b565b820191906000526020600020905b815481529060010190602001808311610c5e57829003601f168201915b50505050508152602001826004015481526020018260050160009054906101000a900473ffffffffffffffffffffffffffffffffffffffff1673ffffffffffffffffffffffffffffffffffffffff1681526020018260050160149054906101000a900460ff161515815250848481518110610cf957610cf8611efb565b5b602002602001018190525050508080600101915050610a77565b508091505090565b6002600082815260200190815260200160002060050160149054906101000a900460ff16610d8057806040517f63257bd5000000000000000000000000000000000000000000000000000000008152600401610d7791906113e7565b60405180910390fd5b6000801b600360003373ffffffffffffffffffffffffffffffffffffffff1673ffffffffffffffffffffffffffffffffffffffff1681526020019081526020016000205414610e085780336040517f84e0a5d5000000000000000000000000000000000000000000000000000000008152600401610dff929190611f2a565b60405180910390fd5b80600360003373ffffffffffffffffffffffffffffffffffffffff1673ffffffffffffffffffffffffffffffffffffffff16815260200190815260200160002081905550600260008281526020019081526020016000206004016000815480929190610e7390611f53565b91905055507fdc68a876a3a553810c451953fa260367d5e973852e3a18c3e91d2615423409bf3382604051610ea9929190611f9b565b60405180910390a150565b60036020528060005260406000206000915090505481565b610ed4611214565b610edd82611183565b506000600360008473ffffffffffffffffffffffffffffffffffffffff1673ffffffffffffffffffffffffffffffffffffffff168152602001908152602001600020549050600260008281526020019081526020016000206040518060e001604052908160008201548152602001600182018054610f5a90611b92565b80601f0160208091040260200160405190810160405280929190818152602001828054610f8690611b92565b8015610fd35780601f10610fa857610100808354040283529160200191610fd3565b820191906000526020600020905b815481529060010190602001808311610fb657829003601f168201915b50505050508152602001600282018054610fec90611b92565b80601f016020809104026020016040519081016040528092919081815260200182805461101890611b92565b80156110655780601f1061103a57610100808354040283529160200191611065565b820191906000526020600020905b81548152906001019060200180831161104857829003601f168201915b5050505050815260200160038201805461107e90611b92565b80601f01602080910402602001604051908101604052809291908181526020018280546110aa90611b92565b80156110f75780601f106110cc576101008083540402835291602001916110f7565b820191906000526020600020905b8154815290600101906020018083116110da57829003601f168201915b50505050508152602001600482015481526020016005820160009054906101000a900473ffffffffffffffffffffffffffffffffffffffff1673ffffffffffffffffffffffffffffffffffffffff1673ffffffffffffffffffffffffffffffffffffffff1681526020016005820160149054906101000a900460ff161515151581525050915050919050565b60008060001b600360008473ffffffffffffffffffffffffffffffffffffffff1673ffffffffffffffffffffffffffffffffffffffff168152602001908152602001600020540361120b57816040517f7c335d5a00000000000000000000000000000000000000000000000000000000815260040161120291906112ad565b60405180910390fd5b60019050919050565b6040518060e001604052806000801916815260200160608152602001606081526020016060815260200160008152602001600073ffffffffffffffffffffffffffffffffffffffff1681526020016000151581525090565b600073ffffffffffffffffffffffffffffffffffffffff82169050919050565b60006112978261126c565b9050919050565b6112a78161128c565b82525050565b60006020820190506112c2600083018461129e565b92915050565b6000604051905090565b600080fd5b600080fd5b6112e58161128c565b81146112f057600080fd5b50565b600081359050611302816112dc565b92915050565b60006020828403121561131e5761131d6112d2565b5b600061132c848285016112f3565b91505092915050565b60008115159050919050565b61134a81611335565b82525050565b60006020820190506113656000830184611341565b92915050565b6000819050919050565b61137e8161136b565b811461138957600080fd5b50565b60008135905061139b81611375565b92915050565b6000602082840312156113b7576113b66112d2565b5b60006113c58482850161138c565b91505092915050565b6000819050919050565b6113e1816113ce565b82525050565b60006020820190506113fc60008301846113d8565b92915050565b61140b816113ce565b811461141657600080fd5b50565b60008135905061142881611402565b92915050565b600060208284031215611444576114436112d2565b5b600061145284828501611419565b91505092915050565b600081519050919050565b600082825260208201905092915050565b60005b8381101561149557808201518184015260208101905061147a565b60008484015250505050565b6000601f19601f8301169050919050565b60006114bd8261145b565b6114c78185611466565b93506114d7818560208601611477565b6114e0816114a1565b840191505092915050565b6114f48161136b565b82525050565b600060e08201905061150f600083018a6113d8565b818103602083015261152181896114b2565b9050818103604083015261153581886114b2565b9050818103606083015261154981876114b2565b905061155860808301866114eb565b61156560a083018561129e565b61157260c0830184611341565b98975050505050505050565b600081519050919050565b600082825260208201905092915050565b6000819050602082019050919050565b6115b3816113ce565b82525050565b60006115c583836115aa565b60208301905092915050565b6000602082019050919050565b60006115e98261157e565b6115f38185611589565b93506115fe8361159a565b8060005b8381101561162f57815161161688826115b9565b9750611621836115d1565b925050600181019050611602565b5085935050505092915050565b6000602082019050818103600083015261165681846115de565b905092915050565b600080fd5b600080fd5b7f4e487b7100000000000000000000000000000000000000000000000000000000600052604160045260246000fd5b6116a0826114a1565b810181811067ffffffffffffffff821117156116bf576116be611668565b5b80604052505050565b60006116d26112c8565b90506116de8282611697565b919050565b600067ffffffffffffffff8211156116fe576116fd611668565b5b611707826114a1565b9050602081019050919050565b82818337600083830152505050565b6000611736611731846116e3565b6116c8565b90508281526020810184848401111561175257611751611663565b5b61175d848285611714565b509392505050565b600082601f83011261177a5761177961165e565b5b813561178a848260208601611723565b91505092915050565b6000806000606084860312156117ac576117ab6112d2565b5b600084013567ffffffffffffffff8111156117ca576117c96112d7565b5b6117d686828701611765565b935050602084013567ffffffffffffffff8111156117f7576117f66112d7565b5b61180386828701611765565b925050604084013567ffffffffffffffff811115611824576118236112d7565b5b61183086828701611765565b9150509250925092565b600081519050919050565b600082825260208201905092915050565b6000819050602082019050919050565b600082825260208201905092915050565b60006118828261145b565b61188c8185611866565b935061189c818560208601611477565b6118a5816114a1565b840191505092915050565b6118b98161136b565b82525050565b6118c88161128c565b82525050565b6118d781611335565b82525050565b600060e0830160008301516118f560008601826115aa565b506020830151848203602086015261190d8282611877565b915050604083015184820360408601526119278282611877565b915050606083015184820360608601526119418282611877565b915050608083015161195660808601826118b0565b5060a083015161196960a08601826118bf565b5060c083015161197c60c08601826118ce565b508091505092915050565b600061199383836118dd565b905092915050565b6000602082019050919050565b60006119b38261183a565b6119bd8185611845565b9350836020820285016119cf85611856565b8060005b85811015611a0b57848403895281516119ec8582611987565b94506119f78361199b565b925060208a019950506001810190506119d3565b50829750879550505050505092915050565b60006020820190508181036000830152611a3781846119a8565b905092915050565b600060e083016000830151611a5760008601826115aa565b5060208301518482036020860152611a6f8282611877565b91505060408301518482036040860152611a898282611877565b91505060608301518482036060860152611aa38282611877565b9150506080830151611ab860808601826118b0565b5060a0830151611acb60a08601826118bf565b5060c0830151611ade60c08601826118ce565b508091505092915050565b60006020820190508181036000830152611b038184611a3f565b905092915050565b7f4e487b7100000000000000000000000000000000000000000000000000000000600052601160045260246000fd5b6000611b458261136b565b915060008203611b5857611b57611b0b565b5b600182039050919050565b7f4e487b7100000000000000000000000000000000000000000000000000000000600052602260045260246000fd5b60006002820490506001821680611baa57607f821691505b602082108103611bbd57611bbc611b63565b5b50919050565b600081905092915050565b6000611bd98261145b565b611be38185611bc3565b9350611bf3818560208601611477565b80840191505092915050565b6000611c0b8285611bce565b9150611c178284611bce565b91508190509392505050565b60008190508160005260206000209050919050565b60006020601f8301049050919050565b600082821b905092915050565b600060088302611c857fffffffffffffffffffffffffffffffffffffffffffffffffffffffffffffffff82611c48565b611c8f8683611c48565b95508019841693508086168417925050509392505050565b6000819050919050565b6000611ccc611cc7611cc28461136b565b611ca7565b61136b565b9050919050565b6000819050919050565b611ce683611cb1565b611cfa611cf282611cd3565b848454611c55565b825550505050565b600090565b611d0f611d02565b611d1a818484611cdd565b505050565b5b81811015611d3e57611d33600082611d07565b600181019050611d20565b5050565b601f821115611d8357611d5481611c23565b611d5d84611c38565b81016020851015611d6c578190505b611d80611d7885611c38565b830182611d1f565b50505b505050565b600082821c905092915050565b6000611da660001984600802611d88565b1980831691505092915050565b6000611dbf8383611d95565b9150826002028217905092915050565b611dd88261145b565b67ffffffffffffffff811115611df157611df0611668565b5b611dfb8254611b92565b611e06828285611d42565b600060209050601f831160018114611e395760008415611e27578287015190505b611e318582611db3565b865550611e99565b601f198416611e4786611c23565b60005b82811015611e6f57848901518255600182019150602085019450602081019050611e4a565b86831015611e8c5784890151611e88601f891682611d95565b8355505b6001600288020188555050505b505050505050565b6000608082019050611eb660008301876113d8565b8181036020830152611ec881866114b2565b90508181036040830152611edc81856114b2565b90508181036060830152611ef081846114b2565b905095945050505050565b7f4e487b7100000000000000000000000000000000000000000000000000000000600052603260045260246000fd5b6000604082019050611f3f60008301856113d8565b611f4c602083018461129e565b9392505050565b6000611f5e8261136b565b91507fffffffffffffffffffffffffffffffffffffffffffffffffffffffffffffffff8203611f9057611f8f611b0b565b5b600182019050919050565b6000604082019050611fb0600083018561129e565b611fbd60208301846113d8565b939250505056fea26469706673582212201a721a08fa22482dd167779e0aaf90784fe99d5eb2ca52d479c88399d67a136064736f6c634300081c0033",
          "opcodes": "PUSH1 0x80 PUSH1 0x40 MSTORE CALLVALUE DUP1 ISZERO PUSH2 0x10 JUMPI PUSH1 0x0 DUP1 REVERT JUMPDEST POP CALLER PUSH1 0x0 DUP1 PUSH2 0x100 EXP DUP2 SLOAD DUP2 PUSH20 0xFFFFFFFFFFFFFFFFFFFFFFFFFFFFFFFFFFFFFFFF MUL NOT AND SWAP1 DUP4 PUSH20 0xFFFFFFFFFFFFFFFFFFFFFFFFFFFFFFFFFFFFFFFF AND MUL OR SWAP1 SSTORE POP PUSH2 0x60 CALLER PUSH2 0x485 PUSH1 0x20 SHL PUSH1 0x20 SHR JUMP JUMPDEST PUSH2 0x110 PUSH1 0x40 MLOAD DUP1 PUSH1 0x40 ADD PUSH1 0x40 MSTORE DUP1 PUSH1 0xB DUP2 MSTORE PUSH1 0x20 ADD PUSH32 0x48656C73696E67626F7267000000000000000000000000000000000000000000 DUP2 MSTORE POP PUSH1 0x40 MLOAD DUP1 PUSH1 0x40 ADD PUSH1 0x40 MSTORE DUP1 PUSH1 0x2 DUP2 MSTORE PUSH1 0x20 ADD PUSH32 0x5345000000000000000000000000000000000000000000000000000000000000 DUP2 MSTORE POP PUSH1 0x40 MLOAD DUP1 PUSH1 0x40 ADD PUSH1 0x40 MSTORE DUP1 PUSH1 0x6 DUP2 MSTORE PUSH1 0x20 ADD PUSH32 0x53776564656E0000000000000000000000000000000000000000000000000000 DUP2 MSTORE POP PUSH2 0x5A7 PUSH1 0x20 SHL PUSH1 0x20 SHR JUMP JUMPDEST PUSH2 0x1C0 PUSH1 0x40 MLOAD DUP1 PUSH1 0x40 ADD PUSH1 0x40 MSTORE DUP1 PUSH1 0xA DUP2 MSTORE PUSH1 0x20 ADD PUSH32 0x436F70656E686167656E00000000000000000000000000000000000000000000 DUP2 MSTORE POP PUSH1 0x40 MLOAD DUP1 PUSH1 0x40 ADD PUSH1 0x40 MSTORE DUP1 PUSH1 0x2 DUP2 MSTORE PUSH1 0x20 ADD PUSH32 0x444B000000000000000000000000000000000000000000000000000000000000 DUP2 MSTORE POP PUSH1 0x40 MLOAD DUP1 PUSH1 0x40 ADD PUSH1 0x40 MSTORE DUP1 PUSH1 0x7 DUP2 MSTORE PUSH1 0x20 ADD PUSH32 0x44656E6D61726B00000000000000000000000000000000000000000000000000 DUP2 MSTORE POP PUSH2 0x5A7 PUSH1 0x20 SHL PUSH1 0x20 SHR JUMP JUMPDEST PUSH2 0x270 PUSH1 0x40 MLOAD DUP1 PUSH1 0x40 ADD PUSH1 0x40 MSTORE DUP1 PUSH1 0x4 DUP2 MSTORE PUSH1 0x20 ADD PUSH32 0x4F736C6F00000000000000000000000000000000000000000000000000000000 DUP2 MSTORE POP PUSH1 0x40 MLOAD DUP1 PUSH1 0x40 ADD PUSH1 0x40 MSTORE DUP1 PUSH1 0x2 DUP2 MSTORE PUSH1 0x20 ADD PUSH32 0x4E4F000000000000000000000000000000000000000000000000000000000000 DUP2 MSTORE POP PUSH1 0x40 MLOAD DUP1 PUSH1 0x40 ADD PUSH1 0x40 MSTORE DUP1 PUSH1 0x6 DUP2 MSTORE PUSH1 0x20 ADD PUSH32 0x4E6F727761790000000000000000000000000000000000000000000000000000 DUP2 MSTORE POP PUSH2 0x5A7 PUSH1 0x20 SHL PUSH1 0x20 SHR JUMP JUMPDEST PUSH2 0x320 PUSH1 0x40 MLOAD DUP1 PUSH1 0x40 ADD PUSH1 0x40 MSTORE DUP1 PUSH1 0x8 DUP2 MSTORE PUSH1 0x20 ADD PUSH32 0x48656C73696E6B69000000000000000000000000000000000000000000000000 DUP2 MSTORE POP PUSH1 0x40 MLOAD DUP1 PUSH1 0x40 ADD PUSH1 0x40 MSTORE DUP1 PUSH1 0x2 DUP2 MSTORE PUSH1 0x20 ADD PUSH32 0x4649000000000000000000000000000000000000000000000000000000000000 DUP2 MSTORE POP PUSH1 0x40 MLOAD DUP1 PUSH1 0x40 ADD PUSH1 0x40 MSTORE DUP1 PUSH1 0x7 DUP2 MSTORE PUSH1 0x20 ADD PUSH32 0x46696E6C616E6400000000000000000000000000000000000000000000000000 DUP2 MSTORE POP PUSH2 0x5A7 PUSH1 0x20 SHL PUSH1 0x20 SHR JUMP JUMPDEST PUSH2 0x3D0 PUSH1 0x40 MLOAD DUP1 PUSH1 0x40 ADD PUSH1 0x40 MSTORE DUP1 PUSH1 0x6 DUP2 MSTORE PUSH1 0x20 ADD PUSH32 0x4C6F6E646F6E0000000000000000000000000000000000000000000000000000 DUP2 MSTORE POP PUSH1 0x40 MLOAD DUP1 PUSH1 0x40 ADD PUSH1 0x40 MSTORE DUP1 PUSH1 0x2 DUP2 MSTORE PUSH1 0x20 ADD PUSH32 0x4742000000000000000000000000000000000000000000000000000000000000 DUP2 MSTORE POP PUSH1 0x40 MLOAD DUP1 PUSH1 0x40 ADD PUSH1 0x40 MSTORE DUP1 PUSH1 0xE DUP2 MSTORE PUSH1 0x20 ADD PUSH32 0x556E69746564204B696E67646F6D000000000000000000000000000000000000 DUP2 MSTORE POP PUSH2 0x5A7 PUSH1 0x20 SHL PUSH1 0x20 SHR JUMP JUMPDEST PUSH2 0x480 PUSH1 0x40 MLOAD DUP1 PUSH1 0x40 ADD PUSH1 0x40 MSTORE DUP1 PUSH1 0x6 DUP2 MSTORE PUSH1 0x20 ADD PUSH32 0x4D696C616E6F0000000000000000000000000000000000000000000000000000 DUP2 MSTORE POP PUSH1 0x40 MLOAD DUP1 PUSH1 0x40 ADD PUSH1 0x40 MSTORE DUP1 PUSH1 0x2 DUP2 MSTORE PUSH1 0x20 ADD PUSH32 0x4954000000000000000000000000000000000000000000000000000000000000 DUP2 MSTORE POP PUSH1 0x40 MLOAD DUP1 PUSH1 0x40 ADD PUSH1 0x40 MSTORE DUP1 PUSH1 0x5 DUP2 MSTORE PUSH1 0x20 ADD PUSH32 0x4974616C79000000000000000000000000000000000000000000000000000000 DUP2 MSTORE POP PUSH2 0x5A7 PUSH1 0x20 SHL PUSH1 0x20 SHR JUMP JUMPDEST PUSH2 0xD45 JUMP JUMPDEST PUSH1 0x0 DUP1 SLOAD SWAP1 PUSH2 0x100 EXP SWAP1 DIV PUSH20 0xFFFFFFFFFFFFFFFFFFFFFFFFFFFFFFFFFFFFFFFF AND PUSH20 0xFFFFFFFFFFFFFFFFFFFFFFFFFFFFFFFFFFFFFFFF AND CALLER PUSH20 0xFFFFFFFFFFFFFFFFFFFFFFFFFFFFFFFFFFFFFFFF AND EQ PUSH2 0x515 JUMPI CALLER PUSH1 0x40 MLOAD PUSH32 0x17A8424200000000000000000000000000000000000000000000000000000000 DUP2 MSTORE PUSH1 0x4 ADD PUSH2 0x50C SWAP2 SWAP1 PUSH2 0x895 JUMP JUMPDEST PUSH1 0x40 MLOAD DUP1 SWAP2 SUB SWAP1 REVERT JUMPDEST PUSH1 0x1 PUSH1 0x4 PUSH1 0x0 DUP4 PUSH20 0xFFFFFFFFFFFFFFFFFFFFFFFFFFFFFFFFFFFFFFFF AND PUSH20 0xFFFFFFFFFFFFFFFFFFFFFFFFFFFFFFFFFFFFFFFF AND DUP2 MSTORE PUSH1 0x20 ADD SWAP1 DUP2 MSTORE PUSH1 0x20 ADD PUSH1 0x0 KECCAK256 PUSH1 0x0 PUSH2 0x100 EXP DUP2 SLOAD DUP2 PUSH1 0xFF MUL NOT AND SWAP1 DUP4 ISZERO ISZERO MUL OR SWAP1 SSTORE POP PUSH32 0xD07E4AB131A5855BDBCE0C0C08C830B5549B21A6645C7CB8DF178BB72DD43D5B DUP2 PUSH1 0x40 MLOAD PUSH2 0x59C SWAP2 SWAP1 PUSH2 0x895 JUMP JUMPDEST PUSH1 0x40 MLOAD DUP1 SWAP2 SUB SWAP1 LOG1 POP JUMP JUMPDEST PUSH1 0x4 PUSH1 0x0 CALLER PUSH20 0xFFFFFFFFFFFFFFFFFFFFFFFFFFFFFFFFFFFFFFFF AND PUSH20 0xFFFFFFFFFFFFFFFFFFFFFFFFFFFFFFFFFFFFFFFF AND DUP2 MSTORE PUSH1 0x20 ADD SWAP1 DUP2 MSTORE PUSH1 0x20 ADD PUSH1 0x0 KECCAK256 PUSH1 0x0 SWAP1 SLOAD SWAP1 PUSH2 0x100 EXP SWAP1 DIV PUSH1 0xFF AND PUSH2 0x635 JUMPI CALLER PUSH1 0x40 MLOAD PUSH32 0x4A0BFEC100000000000000000000000000000000000000000000000000000000 DUP2 MSTORE PUSH1 0x4 ADD PUSH2 0x62C SWAP2 SWAP1 PUSH2 0x895 JUMP JUMPDEST PUSH1 0x40 MLOAD DUP1 SWAP2 SUB SWAP1 REVERT JUMPDEST PUSH1 0x0 DUP4 DUP4 PUSH1 0x40 MLOAD PUSH1 0x20 ADD PUSH2 0x64A SWAP3 SWAP2 SWAP1 PUSH2 0x921 JUMP JUMPDEST PUSH1 0x40 MLOAD PUSH1 0x20 DUP2 DUP4 SUB SUB DUP2 MSTORE SWAP1 PUSH1 0x40 MSTORE DUP1 MLOAD SWAP1 PUSH1 0x20 ADD KECCAK256 SWAP1 POP PUSH1 0x2 PUSH1 0x0 DUP3 DUP2 MSTORE PUSH1 0x20 ADD SWAP1 DUP2 MSTORE PUSH1 0x20 ADD PUSH1 0x0 KECCAK256 PUSH1 0x5 ADD PUSH1 0x14 SWAP1 SLOAD SWAP1 PUSH2 0x100 EXP SWAP1 DIV PUSH1 0xFF AND ISZERO PUSH2 0x6C8 JUMPI DUP1 PUSH1 0x40 MLOAD PUSH32 0xE4D3A2A900000000000000000000000000000000000000000000000000000000 DUP2 MSTORE PUSH1 0x4 ADD PUSH2 0x6BF SWAP2 SWAP1 PUSH2 0x95E JUMP JUMPDEST PUSH1 0x40 MLOAD DUP1 SWAP2 SUB SWAP1 REVERT JUMPDEST PUSH1 0x40 MLOAD DUP1 PUSH1 0xE0 ADD PUSH1 0x40 MSTORE DUP1 DUP3 DUP2 MSTORE PUSH1 0x20 ADD DUP6 DUP2 MSTORE PUSH1 0x20 ADD DUP5 DUP2 MSTORE PUSH1 0x20 ADD DUP4 DUP2 MSTORE PUSH1 0x20 ADD PUSH1 0x0 DUP2 MSTORE PUSH1 0x20 ADD CALLER PUSH20 0xFFFFFFFFFFFFFFFFFFFFFFFFFFFFFFFFFFFFFFFF AND DUP2 MSTORE PUSH1 0x20 ADD PUSH1 0x1 ISZERO ISZERO DUP2 MSTORE POP PUSH1 0x2 PUSH1 0x0 DUP4 DUP2 MSTORE PUSH1 0x20 ADD SWAP1 DUP2 MSTORE PUSH1 0x20 ADD PUSH1 0x0 KECCAK256 PUSH1 0x0 DUP3 ADD MLOAD DUP2 PUSH1 0x0 ADD SSTORE PUSH1 0x20 DUP3 ADD MLOAD DUP2 PUSH1 0x1 ADD SWAP1 DUP2 PUSH2 0x747 SWAP2 SWAP1 PUSH2 0xBBE JUMP JUMPDEST POP PUSH1 0x40 DUP3 ADD MLOAD DUP2 PUSH1 0x2 ADD SWAP1 DUP2 PUSH2 0x75D SWAP2 SWAP1 PUSH2 0xBBE JUMP JUMPDEST POP PUSH1 0x60 DUP3 ADD MLOAD DUP2 PUSH1 0x3 ADD SWAP1 DUP2 PUSH2 0x773 SWAP2 SWAP1 PUSH2 0xBBE JUMP JUMPDEST POP PUSH1 0x80 DUP3 ADD MLOAD DUP2 PUSH1 0x4 ADD SSTORE PUSH1 0xA0 DUP3 ADD MLOAD DUP2 PUSH1 0x5 ADD PUSH1 0x0 PUSH2 0x100 EXP DUP2 SLOAD DUP2 PUSH20 0xFFFFFFFFFFFFFFFFFFFFFFFFFFFFFFFFFFFFFFFF MUL NOT AND SWAP1 DUP4 PUSH20 0xFFFFFFFFFFFFFFFFFFFFFFFFFFFFFFFFFFFFFFFF AND MUL OR SWAP1 SSTORE POP PUSH1 0xC0 DUP3 ADD MLOAD DUP2 PUSH1 0x5 ADD PUSH1 0x14 PUSH2 0x100 EXP DUP2 SLOAD DUP2 PUSH1 0xFF MUL NOT AND SWAP1 DUP4 ISZERO ISZERO MUL OR SWAP1 SSTORE POP SWAP1 POP POP PUSH1 0x1 DUP2 SWAP1 DUP1 PUSH1 0x1 DUP2 SLOAD ADD DUP1 DUP3 SSTORE DUP1 SWAP2 POP POP PUSH1 0x1 SWAP1 SUB SWAP1 PUSH1 0x0 MSTORE PUSH1 0x20 PUSH1 0x0 KECCAK256 ADD PUSH1 0x0 SWAP1 SWAP2 SWAP1 SWAP2 SWAP1 SWAP2 POP SSTORE PUSH32 0x66EF63687ACD96F6B870C2F28BDB6AB47B2371EDA79774BEAC774B61938D97C9 DUP2 DUP6 DUP6 DUP6 PUSH1 0x40 MLOAD PUSH2 0x846 SWAP5 SWAP4 SWAP3 SWAP2 SWAP1 PUSH2 0xCEB JUMP JUMPDEST PUSH1 0x40 MLOAD DUP1 SWAP2 SUB SWAP1 LOG1 POP POP POP POP JUMP JUMPDEST PUSH1 0x0 PUSH20 0xFFFFFFFFFFFFFFFFFFFFFFFFFFFFFFFFFFFFFFFF DUP3 AND SWAP1 POP SWAP2 SWAP1 POP JUMP JUMPDEST PUSH1 0x0 PUSH2 0x87F DUP3 PUSH2 0x854 JUMP JUMPDEST SWAP1 POP SWAP2 SWAP1 POP JUMP JUMPDEST PUSH2 0x88F DUP2 PUSH2 0x874 JUMP JUMPDEST DUP3 MSTORE POP POP JUMP JUMPDEST PUSH1 0x0 PUSH1 0x20 DUP3 ADD SWAP1 POP PUSH2 0x8AA PUSH1 0x0 DUP4 ADD DUP5 PUSH2 0x886 JUMP JUMPDEST SWAP3 SWAP2 POP POP JUMP JUMPDEST PUSH1 0x0 DUP2 MLOAD SWAP1 POP SWAP2 SWAP1 POP JUMP JUMPDEST PUSH1 0x0 DUP2 SWAP1 POP SWAP3 SWAP2 POP POP JUMP JUMPDEST PUSH1 0x0 JUMPDEST DUP4 DUP2 LT ISZERO PUSH2 0x8E4 JUMPI DUP1 DUP3 ADD MLOAD DUP2 DUP5 ADD MSTORE PUSH1 0x20 DUP2 ADD SWAP1 POP PUSH2 0x8C9 JUMP JUMPDEST PUSH1 0x0 DUP5 DUP5 ADD MSTORE POP POP POP POP JUMP JUMPDEST PUSH1 0x0 PUSH2 0x8FB DUP3 PUSH2 0x8B0 JUMP JUMPDEST PUSH2 0x905 DUP2 DUP6 PUSH2 0x8BB JUMP JUMPDEST SWAP4 POP PUSH2 0x915 DUP2 DUP6 PUSH1 0x20 DUP7 ADD PUSH2 0x8C6 JUMP JUMPDEST DUP1 DUP5 ADD SWAP2 POP POP SWAP3 SWAP2 POP POP JUMP JUMPDEST PUSH1 0x0 PUSH2 0x92D DUP3 DUP6 PUSH2 0x8F0 JUMP JUMPDEST SWAP2 POP PUSH2 0x939 DUP3 DUP5 PUSH2 0x8F0 JUMP JUMPDEST SWAP2 POP DUP2 SWAP1 POP SWAP4 SWAP3 POP POP POP JUMP JUMPDEST PUSH1 0x0 DUP2 SWAP1 POP SWAP2 SWAP1 POP JUMP JUMPDEST PUSH2 0x958 DUP2 PUSH2 0x945 JUMP JUMPDEST DUP3 MSTORE POP POP JUMP JUMPDEST PUSH1 0x0 PUSH1 0x20 DUP3 ADD SWAP1 POP PUSH2 0x973 PUSH1 0x0 DUP4 ADD DUP5 PUSH2 0x94F JUMP JUMPDEST SWAP3 SWAP2 POP POP JUMP JUMPDEST PUSH32 0x4E487B7100000000000000000000000000000000000000000000000000000000 PUSH1 0x0 MSTORE PUSH1 0x41 PUSH1 0x4 MSTORE PUSH1 0x24 PUSH1 0x0 REVERT JUMPDEST PUSH32 0x4E487B7100000000000000000000000000000000000000000000000000000000 PUSH1 0x0 MSTORE PUSH1 0x22 PUSH1 0x4 MSTORE PUSH1 0x24 PUSH1 0x0 REVERT JUMPDEST PUSH1 0x0 PUSH1 0x2 DUP3 DIV SWAP1 POP PUSH1 0x1 DUP3 AND DUP1 PUSH2 0x9EF JUMPI PUSH1 0x7F DUP3 AND SWAP2 POP JUMPDEST PUSH1 0x20 DUP3 LT DUP2 SUB PUSH2 0xA02 JUMPI PUSH2 0xA01 PUSH2 0x9A8 JUMP JUMPDEST JUMPDEST POP SWAP2 SWAP1 POP JUMP JUMPDEST PUSH1 0x0 DUP2 SWAP1 POP DUP2 PUSH1 0x0 MSTORE PUSH1 0x20 PUSH1 0x0 KECCAK256 SWAP1 POP SWAP2 SWAP1 POP JUMP JUMPDEST PUSH1 0x0 PUSH1 0x20 PUSH1 0x1F DUP4 ADD DIV SWAP1 POP SWAP2 SWAP1 POP JUMP JUMPDEST PUSH1 0x0 DUP3 DUP3 SHL SWAP1 POP SWAP3 SWAP2 POP POP JUMP JUMPDEST PUSH1 0x0 PUSH1 0x8 DUP4 MUL PUSH2 0xA6A PUSH32 0xFFFFFFFFFFFFFFFFFFFFFFFFFFFFFFFFFFFFFFFFFFFFFFFFFFFFFFFFFFFFFFFF DUP3 PUSH2 0xA2D JUMP JUMPDEST PUSH2 0xA74 DUP7 DUP4 PUSH2 0xA2D JUMP JUMPDEST SWAP6 POP DUP1 NOT DUP5 AND SWAP4 POP DUP1 DUP7 AND DUP5 OR SWAP3 POP POP POP SWAP4 SWAP3 POP POP POP JUMP JUMPDEST PUSH1 0x0 DUP2 SWAP1 POP SWAP2 SWAP1 POP JUMP JUMPDEST PUSH1 0x0 DUP2 SWAP1 POP SWAP2 SWAP1 POP JUMP JUMPDEST PUSH1 0x0 PUSH2 0xABB PUSH2 0xAB6 PUSH2 0xAB1 DUP5 PUSH2 0xA8C JUMP JUMPDEST PUSH2 0xA96 JUMP JUMPDEST PUSH2 0xA8C JUMP JUMPDEST SWAP1 POP SWAP2 SWAP1 POP JUMP JUMPDEST PUSH1 0x0 DUP2 SWAP1 POP SWAP2 SWAP1 POP JUMP JUMPDEST PUSH2 0xAD5 DUP4 PUSH2 0xAA0 JUMP JUMPDEST PUSH2 0xAE9 PUSH2 0xAE1 DUP3 PUSH2 0xAC2 JUMP JUMPDEST DUP5 DUP5 SLOAD PUSH2 0xA3A JUMP JUMPDEST DUP3 SSTORE POP POP POP POP JUMP JUMPDEST PUSH1 0x0 SWAP1 JUMP JUMPDEST PUSH2 0xAFE PUSH2 0xAF1 JUMP JUMPDEST PUSH2 0xB09 DUP2 DUP5 DUP5 PUSH2 0xACC JUMP JUMPDEST POP POP POP JUMP JUMPDEST JUMPDEST DUP2 DUP2 LT ISZERO PUSH2 0xB2D JUMPI PUSH2 0xB22 PUSH1 0x0 DUP3 PUSH2 0xAF6 JUMP JUMPDEST PUSH1 0x1 DUP2 ADD SWAP1 POP PUSH2 0xB0F JUMP JUMPDEST POP POP JUMP JUMPDEST PUSH1 0x1F DUP3 GT ISZERO PUSH2 0xB72 JUMPI PUSH2 0xB43 DUP2 PUSH2 0xA08 JUMP JUMPDEST PUSH2 0xB4C DUP5 PUSH2 0xA1D JUMP JUMPDEST DUP2 ADD PUSH1 0x20 DUP6 LT ISZERO PUSH2 0xB5B JUMPI DUP2 SWAP1 POP JUMPDEST PUSH2 0xB6F PUSH2 0xB67 DUP6 PUSH2 0xA1D JUMP JUMPDEST DUP4 ADD DUP3 PUSH2 0xB0E JUMP JUMPDEST POP POP JUMPDEST POP POP POP JUMP JUMPDEST PUSH1 0x0 DUP3 DUP3 SHR SWAP1 POP SWAP3 SWAP2 POP POP JUMP JUMPDEST PUSH1 0x0 PUSH2 0xB95 PUSH1 0x0 NOT DUP5 PUSH1 0x8 MUL PUSH2 0xB77 JUMP JUMPDEST NOT DUP1 DUP4 AND SWAP2 POP POP SWAP3 SWAP2 POP POP JUMP JUMPDEST PUSH1 0x0 PUSH2 0xBAE DUP4 DUP4 PUSH2 0xB84 JUMP JUMPDEST SWAP2 POP DUP3 PUSH1 0x2 MUL DUP3 OR SWAP1 POP SWAP3 SWAP2 POP POP JUMP JUMPDEST PUSH2 0xBC7 DUP3 PUSH2 0x8B0 JUMP JUMPDEST PUSH8 0xFFFFFFFFFFFFFFFF DUP2 GT ISZERO PUSH2 0xBE0 JUMPI PUSH2 0xBDF PUSH2 0x979 JUMP JUMPDEST JUMPDEST PUSH2 0xBEA DUP3 SLOAD PUSH2 0x9D7 JUMP JUMPDEST PUSH2 0xBF5 DUP3 DUP3 DUP6 PUSH2 0xB31 JUMP JUMPDEST PUSH1 0x0 PUSH1 0x20 SWAP1 POP PUSH1 0x1F DUP4 GT PUSH1 0x1 DUP2 EQ PUSH2 0xC28 JUMPI PUSH1 0x0 DUP5 ISZERO PUSH2 0xC16 JUMPI DUP3 DUP8 ADD MLOAD SWAP1 POP JUMPDEST PUSH2 0xC20 DUP6 DUP3 PUSH2 0xBA2 JUMP JUMPDEST DUP7 SSTORE POP PUSH2 0xC88 JUMP JUMPDEST PUSH1 0x1F NOT DUP5 AND PUSH2 0xC36 DUP7 PUSH2 0xA08 JUMP JUMPDEST PUSH1 0x0 JUMPDEST DUP3 DUP2 LT ISZERO PUSH2 0xC5E JUMPI DUP5 DUP10 ADD MLOAD DUP3 SSTORE PUSH1 0x1 DUP3 ADD SWAP2 POP PUSH1 0x20 DUP6 ADD SWAP5 POP PUSH1 0x20 DUP2 ADD SWAP1 POP PUSH2 0xC39 JUMP JUMPDEST DUP7 DUP4 LT ISZERO PUSH2 0xC7B JUMPI DUP5 DUP10 ADD MLOAD PUSH2 0xC77 PUSH1 0x1F DUP10 AND DUP3 PUSH2 0xB84 JUMP JUMPDEST DUP4 SSTORE POP JUMPDEST PUSH1 0x1 PUSH1 0x2 DUP9 MUL ADD DUP9 SSTORE POP POP POP JUMPDEST POP POP POP POP POP POP JUMP JUMPDEST PUSH1 0x0 DUP3 DUP3 MSTORE PUSH1 0x20 DUP3 ADD SWAP1 POP SWAP3 SWAP2 POP POP JUMP JUMPDEST PUSH1 0x0 PUSH1 0x1F NOT PUSH1 0x1F DUP4 ADD AND SWAP1 POP SWAP2 SWAP1 POP JUMP JUMPDEST PUSH1 0x0 PUSH2 0xCBD DUP3 PUSH2 0x8B0 JUMP JUMPDEST PUSH2 0xCC7 DUP2 DUP6 PUSH2 0xC90 JUMP JUMPDEST SWAP4 POP PUSH2 0xCD7 DUP2 DUP6 PUSH1 0x20 DUP7 ADD PUSH2 0x8C6 JUMP JUMPDEST PUSH2 0xCE0 DUP2 PUSH2 0xCA1 JUMP JUMPDEST DUP5 ADD SWAP2 POP POP SWAP3 SWAP2 POP POP JUMP JUMPDEST PUSH1 0x0 PUSH1 0x80 DUP3 ADD SWAP1 POP PUSH2 0xD00 PUSH1 0x0 DUP4 ADD DUP8 PUSH2 0x94F JUMP JUMPDEST DUP2 DUP2 SUB PUSH1 0x20 DUP4 ADD MSTORE PUSH2 0xD12 DUP2 DUP7 PUSH2 0xCB2 JUMP JUMPDEST SWAP1 POP DUP2 DUP2 SUB PUSH1 0x40 DUP4 ADD MSTORE PUSH2 0xD26 DUP2 DUP6 PUSH2 0xCB2 JUMP JUMPDEST SWAP1 POP DUP2 DUP2 SUB PUSH1 0x60 DUP4 ADD MSTORE PUSH2 0xD3A DUP2 DUP5 PUSH2 0xCB2 JUMP JUMPDEST SWAP1 POP SWAP6 SWAP5 POP POP POP POP POP JUMP JUMPDEST PUSH2 0x1FFA DUP1 PUSH2 0xD54 PUSH1 0x0 CODECOPY PUSH1 0x0 RETURN INVALID PUSH1 0x80 PUSH1 0x40 MSTORE CALLVALUE DUP1 ISZERO PUSH2 0x10 JUMPI PUSH1 0x0 DUP1 REVERT JUMPDEST POP PUSH1 0x4 CALLDATASIZE LT PUSH2 0xB8 JUMPI PUSH1 0x0 CALLDATALOAD PUSH1 0xE0 SHR DUP1 PUSH4 0xB3C739F8 GT PUSH2 0x71 JUMPI DUP1 PUSH4 0xB3C739F8 EQ PUSH2 0x1D0 JUMPI DUP1 PUSH4 0xBBB13DF1 EQ PUSH2 0x1EC JUMPI DUP1 PUSH4 0xCBC6A21D EQ PUSH2 0x20A JUMPI DUP1 PUSH4 0xD0A9AA76 EQ PUSH2 0x226 JUMPI DUP1 PUSH4 0xE6830D1F EQ PUSH2 0x256 JUMPI DUP1 PUSH4 0xF4491DFB EQ PUSH2 0x286 JUMPI PUSH2 0xB9 JUMP JUMPDEST DUP1 PUSH4 0x568D8C51 EQ PUSH2 0xF6 JUMPI DUP1 PUSH4 0x683B27CF EQ PUSH2 0x126 JUMPI DUP1 PUSH4 0x71A0E2D0 EQ PUSH2 0x156 JUMPI DUP1 PUSH4 0x9CD2F8B4 EQ PUSH2 0x160 JUMPI DUP1 PUSH4 0xA6C47BEA EQ PUSH2 0x196 JUMPI DUP1 PUSH4 0xA88B82A5 EQ PUSH2 0x1B4 JUMPI PUSH2 0xB9 JUMP JUMPDEST JUMPDEST CALLER PUSH1 0x40 MLOAD PUSH32 0x71250A6200000000000000000000000000000000000000000000000000000000 DUP2 MSTORE PUSH1 0x4 ADD PUSH2 0xED SWAP2 SWAP1 PUSH2 0x12AD JUMP JUMPDEST PUSH1 0x40 MLOAD DUP1 SWAP2 SUB SWAP1 REVERT JUMPDEST PUSH2 0x110 PUSH1 0x4 DUP1 CALLDATASIZE SUB DUP2 ADD SWAP1 PUSH2 0x10B SWAP2 SWAP1 PUSH2 0x1308 JUMP JUMPDEST PUSH2 0x2B6 JUMP JUMPDEST PUSH1 0x40 MLOAD PUSH2 0x11D SWAP2 SWAP1 PUSH2 0x1350 JUMP JUMPDEST PUSH1 0x40 MLOAD DUP1 SWAP2 SUB SWAP1 RETURN JUMPDEST PUSH2 0x140 PUSH1 0x4 DUP1 CALLDATASIZE SUB DUP2 ADD SWAP1 PUSH2 0x13B SWAP2 SWAP1 PUSH2 0x13A1 JUMP JUMPDEST PUSH2 0x2D6 JUMP JUMPDEST PUSH1 0x40 MLOAD PUSH2 0x14D SWAP2 SWAP1 PUSH2 0x13E7 JUMP JUMPDEST PUSH1 0x40 MLOAD DUP1 SWAP2 SUB SWAP1 RETURN JUMPDEST PUSH2 0x15E PUSH2 0x2FA JUMP JUMPDEST STOP JUMPDEST PUSH2 0x17A PUSH1 0x4 DUP1 CALLDATASIZE SUB DUP2 ADD SWAP1 PUSH2 0x175 SWAP2 SWAP1 PUSH2 0x142E JUMP JUMPDEST PUSH2 0x3E7 JUMP JUMPDEST PUSH1 0x40 MLOAD PUSH2 0x18D SWAP8 SWAP7 SWAP6 SWAP5 SWAP4 SWAP3 SWAP2 SWAP1 PUSH2 0x14FA JUMP JUMPDEST PUSH1 0x40 MLOAD DUP1 SWAP2 SUB SWAP1 RETURN JUMPDEST PUSH2 0x19E PUSH2 0x5EE JUMP JUMPDEST PUSH1 0x40 MLOAD PUSH2 0x1AB SWAP2 SWAP1 PUSH2 0x163C JUMP JUMPDEST PUSH1 0x40 MLOAD DUP1 SWAP2 SUB SWAP1 RETURN JUMPDEST PUSH2 0x1CE PUSH1 0x4 DUP1 CALLDATASIZE SUB DUP2 ADD SWAP1 PUSH2 0x1C9 SWAP2 SWAP1 PUSH2 0x1793 JUMP JUMPDEST PUSH2 0x646 JUMP JUMPDEST STOP JUMPDEST PUSH2 0x1EA PUSH1 0x4 DUP1 CALLDATASIZE SUB DUP2 ADD SWAP1 PUSH2 0x1E5 SWAP2 SWAP1 PUSH2 0x1308 JUMP JUMPDEST PUSH2 0x8F3 JUMP JUMPDEST STOP JUMPDEST PUSH2 0x1F4 PUSH2 0xA15 JUMP JUMPDEST PUSH1 0x40 MLOAD PUSH2 0x201 SWAP2 SWAP1 PUSH2 0x1A1D JUMP JUMPDEST PUSH1 0x40 MLOAD DUP1 SWAP2 SUB SWAP1 RETURN JUMPDEST PUSH2 0x224 PUSH1 0x4 DUP1 CALLDATASIZE SUB DUP2 ADD SWAP1 PUSH2 0x21F SWAP2 SWAP1 PUSH2 0x142E JUMP JUMPDEST PUSH2 0xD1B JUMP JUMPDEST STOP JUMPDEST PUSH2 0x240 PUSH1 0x4 DUP1 CALLDATASIZE SUB DUP2 ADD SWAP1 PUSH2 0x23B SWAP2 SWAP1 PUSH2 0x1308 JUMP JUMPDEST PUSH2 0xEB4 JUMP JUMPDEST PUSH1 0x40 MLOAD PUSH2 0x24D SWAP2 SWAP1 PUSH2 0x13E7 JUMP JUMPDEST PUSH1 0x40 MLOAD DUP1 SWAP2 SUB SWAP1 RETURN JUMPDEST PUSH2 0x270 PUSH1 0x4 DUP1 CALLDATASIZE SUB DUP2 ADD SWAP1 PUSH2 0x26B SWAP2 SWAP1 PUSH2 0x1308 JUMP JUMPDEST PUSH2 0xECC JUMP JUMPDEST PUSH1 0x40 MLOAD PUSH2 0x27D SWAP2 SWAP1 PUSH2 0x1AE9 JUMP JUMPDEST PUSH1 0x40 MLOAD DUP1 SWAP2 SUB SWAP1 RETURN JUMPDEST PUSH2 0x2A0 PUSH1 0x4 DUP1 CALLDATASIZE SUB DUP2 ADD SWAP1 PUSH2 0x29B SWAP2 SWAP1 PUSH2 0x1308 JUMP JUMPDEST PUSH2 0x1183 JUMP JUMPDEST PUSH1 0x40 MLOAD PUSH2 0x2AD SWAP2 SWAP1 PUSH2 0x1350 JUMP JUMPDEST PUSH1 0x40 MLOAD DUP1 SWAP2 SUB SWAP1 RETURN JUMPDEST PUSH1 0x4 PUSH1 0x20 MSTORE DUP1 PUSH1 0x0 MSTORE PUSH1 0x40 PUSH1 0x0 KECCAK256 PUSH1 0x0 SWAP2 POP SLOAD SWAP1 PUSH2 0x100 EXP SWAP1 DIV PUSH1 0xFF AND DUP2 JUMP JUMPDEST PUSH1 0x1 DUP2 DUP2 SLOAD DUP2 LT PUSH2 0x2E6 JUMPI PUSH1 0x0 DUP1 REVERT JUMPDEST SWAP1 PUSH1 0x0 MSTORE PUSH1 0x20 PUSH1 0x0 KECCAK256 ADD PUSH1 0x0 SWAP2 POP SWAP1 POP SLOAD DUP2 JUMP JUMPDEST PUSH1 0x0 PUSH1 0x3 PUSH1 0x0 CALLER PUSH20 0xFFFFFFFFFFFFFFFFFFFFFFFFFFFFFFFFFFFFFFFF AND PUSH20 0xFFFFFFFFFFFFFFFFFFFFFFFFFFFFFFFFFFFFFFFF AND DUP2 MSTORE PUSH1 0x20 ADD SWAP1 DUP2 MSTORE PUSH1 0x20 ADD PUSH1 0x0 KECCAK256 SLOAD SWAP1 POP PUSH1 0x2 PUSH1 0x0 DUP3 DUP2 MSTORE PUSH1 0x20 ADD SWAP1 DUP2 MSTORE PUSH1 0x20 ADD PUSH1 0x0 KECCAK256 PUSH1 0x4 ADD PUSH1 0x0 DUP2 SLOAD DUP1 SWAP3 SWAP2 SWAP1 PUSH2 0x365 SWAP1 PUSH2 0x1B3A JUMP JUMPDEST SWAP2 SWAP1 POP SSTORE POP PUSH1 0x3 PUSH1 0x0 CALLER PUSH20 0xFFFFFFFFFFFFFFFFFFFFFFFFFFFFFFFFFFFFFFFF AND PUSH20 0xFFFFFFFFFFFFFFFFFFFFFFFFFFFFFFFFFFFFFFFF AND DUP2 MSTORE PUSH1 0x20 ADD SWAP1 DUP2 MSTORE PUSH1 0x20 ADD PUSH1 0x0 KECCAK256 PUSH1 0x0 SWAP1 SSTORE PUSH32 0x53000D7F8934037F736A53921AEF65AC968B80661F5AF6D5754FD177B035EC8F CALLER PUSH1 0x40 MLOAD PUSH2 0x3DC SWAP2 SWAP1 PUSH2 0x12AD JUMP JUMPDEST PUSH1 0x40 MLOAD DUP1 SWAP2 SUB SWAP1 LOG1 POP JUMP JUMPDEST PUSH1 0x2 PUSH1 0x20 MSTORE DUP1 PUSH1 0x0 MSTORE PUSH1 0x40 PUSH1 0x0 KECCAK256 PUSH1 0x0 SWAP2 POP SWAP1 POP DUP1 PUSH1 0x0 ADD SLOAD SWAP1 DUP1 PUSH1 0x1 ADD DUP1 SLOAD PUSH2 0x410 SWAP1 PUSH2 0x1B92 JUMP JUMPDEST DUP1 PUSH1 0x1F ADD PUSH1 0x20 DUP1 SWAP2 DIV MUL PUSH1 0x20 ADD PUSH1 0x40 MLOAD SWAP1 DUP2 ADD PUSH1 0x40 MSTORE DUP1 SWAP3 SWAP2 SWAP1 DUP2 DUP2 MSTORE PUSH1 0x20 ADD DUP3 DUP1 SLOAD PUSH2 0x43C SWAP1 PUSH2 0x1B92 JUMP JUMPDEST DUP1 ISZERO PUSH2 0x489 JUMPI DUP1 PUSH1 0x1F LT PUSH2 0x45E JUMPI PUSH2 0x100 DUP1 DUP4 SLOAD DIV MUL DUP4 MSTORE SWAP2 PUSH1 0x20 ADD SWAP2 PUSH2 0x489 JUMP JUMPDEST DUP3 ADD SWAP2 SWAP1 PUSH1 0x0 MSTORE PUSH1 0x20 PUSH1 0x0 KECCAK256 SWAP1 JUMPDEST DUP2 SLOAD DUP2 MSTORE SWAP1 PUSH1 0x1 ADD SWAP1 PUSH1 0x20 ADD DUP1 DUP4 GT PUSH2 0x46C JUMPI DUP3 SWAP1 SUB PUSH1 0x1F AND DUP3 ADD SWAP2 JUMPDEST POP POP POP POP POP SWAP1 DUP1 PUSH1 0x2 ADD DUP1 SLOAD PUSH2 0x49E SWAP1 PUSH2 0x1B92 JUMP JUMPDEST DUP1 PUSH1 0x1F ADD PUSH1 0x20 DUP1 SWAP2 DIV MUL PUSH1 0x20 ADD PUSH1 0x40 MLOAD SWAP1 DUP2 ADD PUSH1 0x40 MSTORE DUP1 SWAP3 SWAP2 SWAP1 DUP2 DUP2 MSTORE PUSH1 0x20 ADD DUP3 DUP1 SLOAD PUSH2 0x4CA SWAP1 PUSH2 0x1B92 JUMP JUMPDEST DUP1 ISZERO PUSH2 0x517 JUMPI DUP1 PUSH1 0x1F LT PUSH2 0x4EC JUMPI PUSH2 0x100 DUP1 DUP4 SLOAD DIV MUL DUP4 MSTORE SWAP2 PUSH1 0x20 ADD SWAP2 PUSH2 0x517 JUMP JUMPDEST DUP3 ADD SWAP2 SWAP1 PUSH1 0x0 MSTORE PUSH1 0x20 PUSH1 0x0 KECCAK256 SWAP1 JUMPDEST DUP2 SLOAD DUP2 MSTORE SWAP1 PUSH1 0x1 ADD SWAP1 PUSH1 0x20 ADD DUP1 DUP4 GT PUSH2 0x4FA JUMPI DUP3 SWAP1 SUB PUSH1 0x1F AND DUP3 ADD SWAP2 JUMPDEST POP POP POP POP POP SWAP1 DUP1 PUSH1 0x3 ADD DUP1 SLOAD PUSH2 0x52C SWAP1 PUSH2 0x1B92 JUMP JUMPDEST DUP1 PUSH1 0x1F ADD PUSH1 0x20 DUP1 SWAP2 DIV MUL PUSH1 0x20 ADD PUSH1 0x40 MLOAD SWAP1 DUP2 ADD PUSH1 0x40 MSTORE DUP1 SWAP3 SWAP2 SWAP1 DUP2 DUP2 MSTORE PUSH1 0x20 ADD DUP3 DUP1 SLOAD PUSH2 0x558 SWAP1 PUSH2 0x1B92 JUMP JUMPDEST DUP1 ISZERO PUSH2 0x5A5 JUMPI DUP1 PUSH1 0x1F LT PUSH2 0x57A JUMPI PUSH2 0x100 DUP1 DUP4 SLOAD DIV MUL DUP4 MSTORE SWAP2 PUSH1 0x20 ADD SWAP2 PUSH2 0x5A5 JUMP JUMPDEST DUP3 ADD SWAP2 SWAP1 PUSH1 0x0 MSTORE PUSH1 0x20 PUSH1 0x0 KECCAK256 SWAP1 JUMPDEST DUP2 SLOAD DUP2 MSTORE SWAP1 PUSH1 0x1 ADD SWAP1 PUSH1 0x20 ADD DUP1 DUP4 GT PUSH2 0x588 JUMPI DUP3 SWAP1 SUB PUSH1 0x1F AND DUP3 ADD SWAP2 JUMPDEST POP POP POP POP POP SWAP1 DUP1 PUSH1 0x4 ADD SLOAD SWAP1 DUP1 PUSH1 0x5 ADD PUSH1 0x0 SWAP1 SLOAD SWAP1 PUSH2 0x100 EXP SWAP1 DIV PUSH20 0xFFFFFFFFFFFFFFFFFFFFFFFFFFFFFFFFFFFFFFFF AND SWAP1 DUP1 PUSH1 0x5 ADD PUSH1 0x14 SWAP1 SLOAD SWAP1 PUSH2 0x100 EXP SWAP1 DIV PUSH1 0xFF AND SWAP1 POP DUP8 JUMP JUMPDEST PUSH1 0x60 PUSH1 0x1 DUP1 SLOAD DUP1 PUSH1 0x20 MUL PUSH1 0x20 ADD PUSH1 0x40 MLOAD SWAP1 DUP2 ADD PUSH1 0x40 MSTORE DUP1 SWAP3 SWAP2 SWAP1 DUP2 DUP2 MSTORE PUSH1 0x20 ADD DUP3 DUP1 SLOAD DUP1 ISZERO PUSH2 0x63C JUMPI PUSH1 0x20 MUL DUP3 ADD SWAP2 SWAP1 PUSH1 0x0 MSTORE PUSH1 0x20 PUSH1 0x0 KECCAK256 SWAP1 JUMPDEST DUP2 SLOAD DUP2 MSTORE PUSH1 0x20 ADD SWAP1 PUSH1 0x1 ADD SWAP1 DUP1 DUP4 GT PUSH2 0x628 JUMPI JUMPDEST POP POP POP POP POP SWAP1 POP SWAP1 JUMP JUMPDEST PUSH1 0x4 PUSH1 0x0 CALLER PUSH20 0xFFFFFFFFFFFFFFFFFFFFFFFFFFFFFFFFFFFFFFFF AND PUSH20 0xFFFFFFFFFFFFFFFFFFFFFFFFFFFFFFFFFFFFFFFF AND DUP2 MSTORE PUSH1 0x20 ADD SWAP1 DUP2 MSTORE PUSH1 0x20 ADD PUSH1 0x0 KECCAK256 PUSH1 0x0 SWAP1 SLOAD SWAP1 PUSH2 0x100 EXP SWAP1 DIV PUSH1 0xFF AND PUSH2 0x6D4 JUMPI CALLER PUSH1 0x40 MLOAD PUSH32 0x4A0BFEC100000000000000000000000000000000000000000000000000000000 DUP2 MSTORE PUSH1 0x4 ADD PUSH2 0x6CB SWAP2 SWAP1 PUSH2 0x12AD JUMP JUMPDEST PUSH1 0x40 MLOAD DUP1 SWAP2 SUB SWAP1 REVERT JUMPDEST PUSH1 0x0 DUP4 DUP4 PUSH1 0x40 MLOAD PUSH1 0x20 ADD PUSH2 0x6E9 SWAP3 SWAP2 SWAP1 PUSH2 0x1BFF JUMP JUMPDEST PUSH1 0x40 MLOAD PUSH1 0x20 DUP2 DUP4 SUB SUB DUP2 MSTORE SWAP1 PUSH1 0x40 MSTORE DUP1 MLOAD SWAP1 PUSH1 0x20 ADD KECCAK256 SWAP1 POP PUSH1 0x2 PUSH1 0x0 DUP3 DUP2 MSTORE PUSH1 0x20 ADD SWAP1 DUP2 MSTORE PUSH1 0x20 ADD PUSH1 0x0 KECCAK256 PUSH1 0x5 ADD PUSH1 0x14 SWAP1 SLOAD SWAP1 PUSH2 0x100 EXP SWAP1 DIV PUSH1 0xFF AND ISZERO PUSH2 0x767 JUMPI DUP1 PUSH1 0x40 MLOAD PUSH32 0xE4D3A2A900000000000000000000000000000000000000000000000000000000 DUP2 MSTORE PUSH1 0x4 ADD PUSH2 0x75E SWAP2 SWAP1 PUSH2 0x13E7 JUMP JUMPDEST PUSH1 0x40 MLOAD DUP1 SWAP2 SUB SWAP1 REVERT JUMPDEST PUSH1 0x40 MLOAD DUP1 PUSH1 0xE0 ADD PUSH1 0x40 MSTORE DUP1 DUP3 DUP2 MSTORE PUSH1 0x20 ADD DUP6 DUP2 MSTORE PUSH1 0x20 ADD DUP5 DUP2 MSTORE PUSH1 0x20 ADD DUP4 DUP2 MSTORE PUSH1 0x20 ADD PUSH1 0x0 DUP2 MSTORE PUSH1 0x20 ADD CALLER PUSH20 0xFFFFFFFFFFFFFFFFFFFFFFFFFFFFFFFFFFFFFFFF AND DUP2 MSTORE PUSH1 0x20 ADD PUSH1 0x1 ISZERO ISZERO DUP2 MSTORE POP PUSH1 0x2 PUSH1 0x0 DUP4 DUP2 MSTORE PUSH1 0x20 ADD SWAP1 DUP2 MSTORE PUSH1 0x20 ADD PUSH1 0x0 KECCAK256 PUSH1 0x0 DUP3 ADD MLOAD DUP2 PUSH1 0x0 ADD SSTORE PUSH1 0x20 DUP3 ADD MLOAD DUP2 PUSH1 0x1 ADD SWAP1 DUP2 PUSH2 0x7E6 SWAP2 SWAP1 PUSH2 0x1DCF JUMP JUMPDEST POP PUSH1 0x40 DUP3 ADD MLOAD DUP2 PUSH1 0x2 ADD SWAP1 DUP2 PUSH2 0x7FC SWAP2 SWAP1 PUSH2 0x1DCF JUMP JUMPDEST POP PUSH1 0x60 DUP3 ADD MLOAD DUP2 PUSH1 0x3 ADD SWAP1 DUP2 PUSH2 0x812 SWAP2 SWAP1 PUSH2 0x1DCF JUMP JUMPDEST POP PUSH1 0x80 DUP3 ADD MLOAD DUP2 PUSH1 0x4 ADD SSTORE PUSH1 0xA0 DUP3 ADD MLOAD DUP2 PUSH1 0x5 ADD PUSH1 0x0 PUSH2 0x100 EXP DUP2 SLOAD DUP2 PUSH20 0xFFFFFFFFFFFFFFFFFFFFFFFFFFFFFFFFFFFFFFFF MUL NOT AND SWAP1 DUP4 PUSH20 0xFFFFFFFFFFFFFFFFFFFFFFFFFFFFFFFFFFFFFFFF AND MUL OR SWAP1 SSTORE POP PUSH1 0xC0 DUP3 ADD MLOAD DUP2 PUSH1 0x5 ADD PUSH1 0x14 PUSH2 0x100 EXP DUP2 SLOAD DUP2 PUSH1 0xFF MUL NOT AND SWAP1 DUP4 ISZERO ISZERO MUL OR SWAP1 SSTORE POP SWAP1 POP POP PUSH1 0x1 DUP2 SWAP1 DUP1 PUSH1 0x1 DUP2 SLOAD ADD DUP1 DUP3 SSTORE DUP1 SWAP2 POP POP PUSH1 0x1 SWAP1 SUB SWAP1 PUSH1 0x0 MSTORE PUSH1 0x20 PUSH1 0x0 KECCAK256 ADD PUSH1 0x0 SWAP1 SWAP2 SWAP1 SWAP2 SWAP1 SWAP2 POP SSTORE PUSH32 0x66EF63687ACD96F6B870C2F28BDB6AB47B2371EDA79774BEAC774B61938D97C9 DUP2 DUP6 DUP6 DUP6 PUSH1 0x40 MLOAD PUSH2 0x8E5 SWAP5 SWAP4 SWAP3 SWAP2 SWAP1 PUSH2 0x1EA1 JUMP JUMPDEST PUSH1 0x40 MLOAD DUP1 SWAP2 SUB SWAP1 LOG1 POP POP POP POP JUMP JUMPDEST PUSH1 0x0 DUP1 SLOAD SWAP1 PUSH2 0x100 EXP SWAP1 DIV PUSH20 0xFFFFFFFFFFFFFFFFFFFFFFFFFFFFFFFFFFFFFFFF AND PUSH20 0xFFFFFFFFFFFFFFFFFFFFFFFFFFFFFFFFFFFFFFFF AND CALLER PUSH20 0xFFFFFFFFFFFFFFFFFFFFFFFFFFFFFFFFFFFFFFFF AND EQ PUSH2 0x983 JUMPI CALLER PUSH1 0x40 MLOAD PUSH32 0x17A8424200000000000000000000000000000000000000000000000000000000 DUP2 MSTORE PUSH1 0x4 ADD PUSH2 0x97A SWAP2 SWAP1 PUSH2 0x12AD JUMP JUMPDEST PUSH1 0x40 MLOAD DUP1 SWAP2 SUB SWAP1 REVERT JUMPDEST PUSH1 0x1 PUSH1 0x4 PUSH1 0x0 DUP4 PUSH20 0xFFFFFFFFFFFFFFFFFFFFFFFFFFFFFFFFFFFFFFFF AND PUSH20 0xFFFFFFFFFFFFFFFFFFFFFFFFFFFFFFFFFFFFFFFF AND DUP2 MSTORE PUSH1 0x20 ADD SWAP1 DUP2 MSTORE PUSH1 0x20 ADD PUSH1 0x0 KECCAK256 PUSH1 0x0 PUSH2 0x100 EXP DUP2 SLOAD DUP2 PUSH1 0xFF MUL NOT AND SWAP1 DUP4 ISZERO ISZERO MUL OR SWAP1 SSTORE POP PUSH32 0xD07E4AB131A5855BDBCE0C0C08C830B5549B21A6645C7CB8DF178BB72DD43D5B DUP2 PUSH1 0x40 MLOAD PUSH2 0xA0A SWAP2 SWAP1 PUSH2 0x12AD JUMP JUMPDEST PUSH1 0x40 MLOAD DUP1 SWAP2 SUB SWAP1 LOG1 POP JUMP JUMPDEST PUSH1 0x60 PUSH1 0x0 PUSH1 0x1 DUP1 SLOAD SWAP1 POP PUSH8 0xFFFFFFFFFFFFFFFF DUP2 GT ISZERO PUSH2 0xA38 JUMPI PUSH2 0xA37 PUSH2 0x1668 JUMP JUMPDEST JUMPDEST PUSH1 0x40 MLOAD SWAP1 DUP1 DUP3 MSTORE DUP1 PUSH1 0x20 MUL PUSH1 0x20 ADD DUP3 ADD PUSH1 0x40 MSTORE DUP1 ISZERO PUSH2 0xA71 JUMPI DUP2 PUSH1 0x20 ADD JUMPDEST PUSH2 0xA5E PUSH2 0x1214 JUMP JUMPDEST DUP2 MSTORE PUSH1 0x20 ADD SWAP1 PUSH1 0x1 SWAP1 SUB SWAP1 DUP2 PUSH2 0xA56 JUMPI SWAP1 POP JUMPDEST POP SWAP1 POP PUSH1 0x0 JUMPDEST PUSH1 0x1 DUP1 SLOAD SWAP1 POP DUP2 LT ISZERO PUSH2 0xD13 JUMPI PUSH1 0x0 PUSH1 0x1 DUP3 DUP2 SLOAD DUP2 LT PUSH2 0xA9A JUMPI PUSH2 0xA99 PUSH2 0x1EFB JUMP JUMPDEST JUMPDEST SWAP1 PUSH1 0x0 MSTORE PUSH1 0x20 PUSH1 0x0 KECCAK256 ADD SLOAD SWAP1 POP PUSH1 0x0 PUSH1 0x2 PUSH1 0x0 DUP4 DUP2 MSTORE PUSH1 0x20 ADD SWAP1 DUP2 MSTORE PUSH1 0x20 ADD PUSH1 0x0 KECCAK256 SWAP1 POP PUSH1 0x40 MLOAD DUP1 PUSH1 0xE0 ADD PUSH1 0x40 MSTORE DUP1 DUP4 DUP2 MSTORE PUSH1 0x20 ADD DUP3 PUSH1 0x1 ADD DUP1 SLOAD PUSH2 0xADE SWAP1 PUSH2 0x1B92 JUMP JUMPDEST DUP1 PUSH1 0x1F ADD PUSH1 0x20 DUP1 SWAP2 DIV MUL PUSH1 0x20 ADD PUSH1 0x40 MLOAD SWAP1 DUP2 ADD PUSH1 0x40 MSTORE DUP1 SWAP3 SWAP2 SWAP1 DUP2 DUP2 MSTORE PUSH1 0x20 ADD DUP3 DUP1 SLOAD PUSH2 0xB0A SWAP1 PUSH2 0x1B92 JUMP JUMPDEST DUP1 ISZERO PUSH2 0xB57 JUMPI DUP1 PUSH1 0x1F LT PUSH2 0xB2C JUMPI PUSH2 0x100 DUP1 DUP4 SLOAD DIV MUL DUP4 MSTORE SWAP2 PUSH1 0x20 ADD SWAP2 PUSH2 0xB57 JUMP JUMPDEST DUP3 ADD SWAP2 SWAP1 PUSH1 0x0 MSTORE PUSH1 0x20 PUSH1 0x0 KECCAK256 SWAP1 JUMPDEST DUP2 SLOAD DUP2 MSTORE SWAP1 PUSH1 0x1 ADD SWAP1 PUSH1 0x20 ADD DUP1 DUP4 GT PUSH2 0xB3A JUMPI DUP3 SWAP1 SUB PUSH1 0x1F AND DUP3 ADD SWAP2 JUMPDEST POP POP POP POP POP DUP2 MSTORE PUSH1 0x20 ADD DUP3 PUSH1 0x2 ADD DUP1 SLOAD PUSH2 0xB70 SWAP1 PUSH2 0x1B92 JUMP JUMPDEST DUP1 PUSH1 0x1F ADD PUSH1 0x20 DUP1 SWAP2 DIV MUL PUSH1 0x20 ADD PUSH1 0x40 MLOAD SWAP1 DUP2 ADD PUSH1 0x40 MSTORE DUP1 SWAP3 SWAP2 SWAP1 DUP2 DUP2 MSTORE PUSH1 0x20 ADD DUP3 DUP1 SLOAD PUSH2 0xB9C SWAP1 PUSH2 0x1B92 JUMP JUMPDEST DUP1 ISZERO PUSH2 0xBE9 JUMPI DUP1 PUSH1 0x1F LT PUSH2 0xBBE JUMPI PUSH2 0x100 DUP1 DUP4 SLOAD DIV MUL DUP4 MSTORE SWAP2 PUSH1 0x20 ADD SWAP2 PUSH2 0xBE9 JUMP JUMPDEST DUP3 ADD SWAP2 SWAP1 PUSH1 0x0 MSTORE PUSH1 0x20 PUSH1 0x0 KECCAK256 SWAP1 JUMPDEST DUP2 SLOAD DUP2 MSTORE SWAP1 PUSH1 0x1 ADD SWAP1 PUSH1 0x20 ADD DUP1 DUP4 GT PUSH2 0xBCC JUMPI DUP3 SWAP1 SUB PUSH1 0x1F AND DUP3 ADD SWAP2 JUMPDEST POP POP POP POP POP DUP2 MSTORE PUSH1 0x20 ADD DUP3 PUSH1 0x3 ADD DUP1 SLOAD PUSH2 0xC02 SWAP1 PUSH2 0x1B92 JUMP JUMPDEST DUP1 PUSH1 0x1F ADD PUSH1 0x20 DUP1 SWAP2 DIV MUL PUSH1 0x20 ADD PUSH1 0x40 MLOAD SWAP1 DUP2 ADD PUSH1 0x40 MSTORE DUP1 SWAP3 SWAP2 SWAP1 DUP2 DUP2 MSTORE PUSH1 0x20 ADD DUP3 DUP1 SLOAD PUSH2 0xC2E SWAP1 PUSH2 0x1B92 JUMP JUMPDEST DUP1 ISZERO PUSH2 0xC7B JUMPI DUP1 PUSH1 0x1F LT PUSH2 0xC50 JUMPI PUSH2 0x100 DUP1 DUP4 SLOAD DIV MUL DUP4 MSTORE SWAP2 PUSH1 0x20 ADD SWAP2 PUSH2 0xC7B JUMP JUMPDEST DUP3 ADD SWAP2 SWAP1 PUSH1 0x0 MSTORE PUSH1 0x20 PUSH1 0x0 KECCAK256 SWAP1 JUMPDEST DUP2 SLOAD DUP2 MSTORE SWAP1 PUSH1 0x1 ADD SWAP1 PUSH1 0x20 ADD DUP1 DUP4 GT PUSH2 0xC5E JUMPI DUP3 SWAP1 SUB PUSH1 0x1F AND DUP3 ADD SWAP2 JUMPDEST POP POP POP POP POP DUP2 MSTORE PUSH1 0x20 ADD DUP3 PUSH1 0x4 ADD SLOAD DUP2 MSTORE PUSH1 0x20 ADD DUP3 PUSH1 0x5 ADD PUSH1 0x0 SWAP1 SLOAD SWAP1 PUSH2 0x100 EXP SWAP1 DIV PUSH20 0xFFFFFFFFFFFFFFFFFFFFFFFFFFFFFFFFFFFFFFFF AND PUSH20 0xFFFFFFFFFFFFFFFFFFFFFFFFFFFFFFFFFFFFFFFF AND DUP2 MSTORE PUSH1 0x20 ADD DUP3 PUSH1 0x5 ADD PUSH1 0x14 SWAP1 SLOAD SWAP1 PUSH2 0x100 EXP SWAP1 DIV PUSH1 0xFF AND ISZERO ISZERO DUP2 MSTORE POP DUP5 DUP5 DUP2 MLOAD DUP2 LT PUSH2 0xCF9 JUMPI PUSH2 0xCF8 PUSH2 0x1EFB JUMP JUMPDEST JUMPDEST PUSH1 0x20 MUL PUSH1 0x20 ADD ADD DUP2 SWAP1 MSTORE POP POP POP DUP1 DUP1 PUSH1 0x1 ADD SWAP2 POP POP PUSH2 0xA77 JUMP JUMPDEST POP DUP1 SWAP2 POP POP SWAP1 JUMP JUMPDEST PUSH1 0x2 PUSH1 0x0 DUP3 DUP2 MSTORE PUSH1 0x20 ADD SWAP1 DUP2 MSTORE PUSH1 0x20 ADD PUSH1 0x0 KECCAK256 PUSH1 0x5 ADD PUSH1 0x14 SWAP1 SLOAD SWAP1 PUSH2 0x100 EXP SWAP1 DIV PUSH1 0xFF AND PUSH2 0xD80 JUMPI DUP1 PUSH1 0x40 MLOAD PUSH32 0x63257BD500000000000000000000000000000000000000000000000000000000 DUP2 MSTORE PUSH1 0x4 ADD PUSH2 0xD77 SWAP2 SWAP1 PUSH2 0x13E7 JUMP JUMPDEST PUSH1 0x40 MLOAD DUP1 SWAP2 SUB SWAP1 REVERT JUMPDEST PUSH1 0x0 DUP1 SHL PUSH1 0x3 PUSH1 0x0 CALLER PUSH20 0xFFFFFFFFFFFFFFFFFFFFFFFFFFFFFFFFFFFFFFFF AND PUSH20 0xFFFFFFFFFFFFFFFFFFFFFFFFFFFFFFFFFFFFFFFF AND DUP2 MSTORE PUSH1 0x20 ADD SWAP1 DUP2 MSTORE PUSH1 0x20 ADD PUSH1 0x0 KECCAK256 SLOAD EQ PUSH2 0xE08 JUMPI DUP1 CALLER PUSH1 0x40 MLOAD PUSH32 0x84E0A5D500000000000000000000000000000000000000000000000000000000 DUP2 MSTORE PUSH1 0x4 ADD PUSH2 0xDFF SWAP3 SWAP2 SWAP1 PUSH2 0x1F2A JUMP JUMPDEST PUSH1 0x40 MLOAD DUP1 SWAP2 SUB SWAP1 REVERT JUMPDEST DUP1 PUSH1 0x3 PUSH1 0x0 CALLER PUSH20 0xFFFFFFFFFFFFFFFFFFFFFFFFFFFFFFFFFFFFFFFF AND PUSH20 0xFFFFFFFFFFFFFFFFFFFFFFFFFFFFFFFFFFFFFFFF AND DUP2 MSTORE PUSH1 0x20 ADD SWAP1 DUP2 MSTORE PUSH1 0x20 ADD PUSH1 0x0 KECCAK256 DUP2 SWAP1 SSTORE POP PUSH1 0x2 PUSH1 0x0 DUP3 DUP2 MSTORE PUSH1 0x20 ADD SWAP1 DUP2 MSTORE PUSH1 0x20 ADD PUSH1 0x0 KECCAK256 PUSH1 0x4 ADD PUSH1 0x0 DUP2 SLOAD DUP1 SWAP3 SWAP2 SWAP1 PUSH2 0xE73 SWAP1 PUSH2 0x1F53 JUMP JUMPDEST SWAP2 SWAP1 POP SSTORE POP PUSH32 0xDC68A876A3A553810C451953FA260367D5E973852E3A18C3E91D2615423409BF CALLER DUP3 PUSH1 0x40 MLOAD PUSH2 0xEA9 SWAP3 SWAP2 SWAP1 PUSH2 0x1F9B JUMP JUMPDEST PUSH1 0x40 MLOAD DUP1 SWAP2 SUB SWAP1 LOG1 POP JUMP JUMPDEST PUSH1 0x3 PUSH1 0x20 MSTORE DUP1 PUSH1 0x0 MSTORE PUSH1 0x40 PUSH1 0x0 KECCAK256 PUSH1 0x0 SWAP2 POP SWAP1 POP SLOAD DUP2 JUMP JUMPDEST PUSH2 0xED4 PUSH2 0x1214 JUMP JUMPDEST PUSH2 0xEDD DUP3 PUSH2 0x1183 JUMP JUMPDEST POP PUSH1 0x0 PUSH1 0x3 PUSH1 0x0 DUP5 PUSH20 0xFFFFFFFFFFFFFFFFFFFFFFFFFFFFFFFFFFFFFFFF AND PUSH20 0xFFFFFFFFFFFFFFFFFFFFFFFFFFFFFFFFFFFFFFFF AND DUP2 MSTORE PUSH1 0x20 ADD SWAP1 DUP2 MSTORE PUSH1 0x20 ADD PUSH1 0x0 KECCAK256 SLOAD SWAP1 POP PUSH1 0x2 PUSH1 0x0 DUP3 DUP2 MSTORE PUSH1 0x20 ADD SWAP1 DUP2 MSTORE PUSH1 0x20 ADD PUSH1 0x0 KECCAK256 PUSH1 0x40 MLOAD DUP1 PUSH1 0xE0 ADD PUSH1 0x40 MSTORE SWAP1 DUP2 PUSH1 0x0 DUP3 ADD SLOAD DUP2 MSTORE PUSH1 0x20 ADD PUSH1 0x1 DUP3 ADD DUP1 SLOAD PUSH2 0xF5A SWAP1 PUSH2 0x1B92 JUMP JUMPDEST DUP1 PUSH1 0x1F ADD PUSH1 0x20 DUP1 SWAP2 DIV MUL PUSH1 0x20 ADD PUSH1 0x40 MLOAD SWAP1 DUP2 ADD PUSH1 0x40 MSTORE DUP1 SWAP3 SWAP2 SWAP1 DUP2 DUP2 MSTORE PUSH1 0x20 ADD DUP3 DUP1 SLOAD PUSH2 0xF86 SWAP1 PUSH2 0x1B92 JUMP JUMPDEST DUP1 ISZERO PUSH2 0xFD3 JUMPI DUP1 PUSH1 0x1F LT PUSH2 0xFA8 JUMPI PUSH2 0x100 DUP1 DUP4 SLOAD DIV MUL DUP4 MSTORE SWAP2 PUSH1 0x20 ADD SWAP2 PUSH2 0xFD3 JUMP JUMPDEST DUP3 ADD SWAP2 SWAP1 PUSH1 0x0 MSTORE PUSH1 0x20 PUSH1 0x0 KECCAK256 SWAP1 JUMPDEST DUP2 SLOAD DUP2 MSTORE SWAP1 PUSH1 0x1 ADD SWAP1 PUSH1 0x20 ADD DUP1 DUP4 GT PUSH2 0xFB6 JUMPI DUP3 SWAP1 SUB PUSH1 0x1F AND DUP3 ADD SWAP2 JUMPDEST POP POP POP POP POP DUP2 MSTORE PUSH1 0x20 ADD PUSH1 0x2 DUP3 ADD DUP1 SLOAD PUSH2 0xFEC SWAP1 PUSH2 0x1B92 JUMP JUMPDEST DUP1 PUSH1 0x1F ADD PUSH1 0x20 DUP1 SWAP2 DIV MUL PUSH1 0x20 ADD PUSH1 0x40 MLOAD SWAP1 DUP2 ADD PUSH1 0x40 MSTORE DUP1 SWAP3 SWAP2 SWAP1 DUP2 DUP2 MSTORE PUSH1 0x20 ADD DUP3 DUP1 SLOAD PUSH2 0x1018 SWAP1 PUSH2 0x1B92 JUMP JUMPDEST DUP1 ISZERO PUSH2 0x1065 JUMPI DUP1 PUSH1 0x1F LT PUSH2 0x103A JUMPI PUSH2 0x100 DUP1 DUP4 SLOAD DIV MUL DUP4 MSTORE SWAP2 PUSH1 0x20 ADD SWAP2 PUSH2 0x1065 JUMP JUMPDEST DUP3 ADD SWAP2 SWAP1 PUSH1 0x0 MSTORE PUSH1 0x20 PUSH1 0x0 KECCAK256 SWAP1 JUMPDEST DUP2 SLOAD DUP2 MSTORE SWAP1 PUSH1 0x1 ADD SWAP1 PUSH1 0x20 ADD DUP1 DUP4 GT PUSH2 0x1048 JUMPI DUP3 SWAP1 SUB PUSH1 0x1F AND DUP3 ADD SWAP2 JUMPDEST POP POP POP POP POP DUP2 MSTORE PUSH1 0x20 ADD PUSH1 0x3 DUP3 ADD DUP1 SLOAD PUSH2 0x107E SWAP1 PUSH2 0x1B92 JUMP JUMPDEST DUP1 PUSH1 0x1F ADD PUSH1 0x20 DUP1 SWAP2 DIV MUL PUSH1 0x20 ADD PUSH1 0x40 MLOAD SWAP1 DUP2 ADD PUSH1 0x40 MSTORE DUP1 SWAP3 SWAP2 SWAP1 DUP2 DUP2 MSTORE PUSH1 0x20 ADD DUP3 DUP1 SLOAD PUSH2 0x10AA SWAP1 PUSH2 0x1B92 JUMP JUMPDEST DUP1 ISZERO PUSH2 0x10F7 JUMPI DUP1 PUSH1 0x1F LT PUSH2 0x10CC JUMPI PUSH2 0x100 DUP1 DUP4 SLOAD DIV MUL DUP4 MSTORE SWAP2 PUSH1 0x20 ADD SWAP2 PUSH2 0x10F7 JUMP JUMPDEST DUP3 ADD SWAP2 SWAP1 PUSH1 0x0 MSTORE PUSH1 0x20 PUSH1 0x0 KECCAK256 SWAP1 JUMPDEST DUP2 SLOAD DUP2 MSTORE SWAP1 PUSH1 0x1 ADD SWAP1 PUSH1 0x20 ADD DUP1 DUP4 GT PUSH2 0x10DA JUMPI DUP3 SWAP1 SUB PUSH1 0x1F AND DUP3 ADD SWAP2 JUMPDEST POP POP POP POP POP DUP2 MSTORE PUSH1 0x20 ADD PUSH1 0x4 DUP3 ADD SLOAD DUP2 MSTORE PUSH1 0x20 ADD PUSH1 0x5 DUP3 ADD PUSH1 0x0 SWAP1 SLOAD SWAP1 PUSH2 0x100 EXP SWAP1 DIV PUSH20 0xFFFFFFFFFFFFFFFFFFFFFFFFFFFFFFFFFFFFFFFF AND PUSH20 0xFFFFFFFFFFFFFFFFFFFFFFFFFFFFFFFFFFFFFFFF AND PUSH20 0xFFFFFFFFFFFFFFFFFFFFFFFFFFFFFFFFFFFFFFFF AND DUP2 MSTORE PUSH1 0x20 ADD PUSH1 0x5 DUP3 ADD PUSH1 0x14 SWAP1 SLOAD SWAP1 PUSH2 0x100 EXP SWAP1 DIV PUSH1 0xFF AND ISZERO ISZERO ISZERO ISZERO DUP2 MSTORE POP POP SWAP2 POP POP SWAP2 SWAP1 POP JUMP JUMPDEST PUSH1 0x0 DUP1 PUSH1 0x0 SHL PUSH1 0x3 PUSH1 0x0 DUP5 PUSH20 0xFFFFFFFFFFFFFFFFFFFFFFFFFFFFFFFFFFFFFFFF AND PUSH20 0xFFFFFFFFFFFFFFFFFFFFFFFFFFFFFFFFFFFFFFFF AND DUP2 MSTORE PUSH1 0x20 ADD SWAP1 DUP2 MSTORE PUSH1 0x20 ADD PUSH1 0x0 KECCAK256 SLOAD SUB PUSH2 0x120B JUMPI DUP2 PUSH1 0x40 MLOAD PUSH32 0x7C335D5A00000000000000000000000000000000000000000000000000000000 DUP2 MSTORE PUSH1 0x4 ADD PUSH2 0x1202 SWAP2 SWAP1 PUSH2 0x12AD JUMP JUMPDEST PUSH1 0x40 MLOAD DUP1 SWAP2 SUB SWAP1 REVERT JUMPDEST PUSH1 0x1 SWAP1 POP SWAP2 SWAP1 POP JUMP JUMPDEST PUSH1 0x40 MLOAD DUP1 PUSH1 0xE0 ADD PUSH1 0x40 MSTORE DUP1 PUSH1 0x0 DUP1 NOT AND DUP2 MSTORE PUSH1 0x20 ADD PUSH1 0x60 DUP2 MSTORE PUSH1 0x20 ADD PUSH1 0x60 DUP2 MSTORE PUSH1 0x20 ADD PUSH1 0x60 DUP2 MSTORE PUSH1 0x20 ADD PUSH1 0x0 DUP2 MSTORE PUSH1 0x20 ADD PUSH1 0x0 PUSH20 0xFFFFFFFFFFFFFFFFFFFFFFFFFFFFFFFFFFFFFFFF AND DUP2 MSTORE PUSH1 0x20 ADD PUSH1 0x0 ISZERO ISZERO DUP2 MSTORE POP SWAP1 JUMP JUMPDEST PUSH1 0x0 PUSH20 0xFFFFFFFFFFFFFFFFFFFFFFFFFFFFFFFFFFFFFFFF DUP3 AND SWAP1 POP SWAP2 SWAP1 POP JUMP JUMPDEST PUSH1 0x0 PUSH2 0x1297 DUP3 PUSH2 0x126C JUMP JUMPDEST SWAP1 POP SWAP2 SWAP1 POP JUMP JUMPDEST PUSH2 0x12A7 DUP2 PUSH2 0x128C JUMP JUMPDEST DUP3 MSTORE POP POP JUMP JUMPDEST PUSH1 0x0 PUSH1 0x20 DUP3 ADD SWAP1 POP PUSH2 0x12C2 PUSH1 0x0 DUP4 ADD DUP5 PUSH2 0x129E JUMP JUMPDEST SWAP3 SWAP2 POP POP JUMP JUMPDEST PUSH1 0x0 PUSH1 0x40 MLOAD SWAP1 POP SWAP1 JUMP JUMPDEST PUSH1 0x0 DUP1 REVERT JUMPDEST PUSH1 0x0 DUP1 REVERT JUMPDEST PUSH2 0x12E5 DUP2 PUSH2 0x128C JUMP JUMPDEST DUP2 EQ PUSH2 0x12F0 JUMPI PUSH1 0x0 DUP1 REVERT JUMPDEST POP JUMP JUMPDEST PUSH1 0x0 DUP2 CALLDATALOAD SWAP1 POP PUSH2 0x1302 DUP2 PUSH2 0x12DC JUMP JUMPDEST SWAP3 SWAP2 POP POP JUMP JUMPDEST PUSH1 0x0 PUSH1 0x20 DUP3 DUP5 SUB SLT ISZERO PUSH2 0x131E JUMPI PUSH2 0x131D PUSH2 0x12D2 JUMP JUMPDEST JUMPDEST PUSH1 0x0 PUSH2 0x132C DUP5 DUP3 DUP6 ADD PUSH2 0x12F3 JUMP JUMPDEST SWAP2 POP POP SWAP3 SWAP2 POP POP JUMP JUMPDEST PUSH1 0x0 DUP2 ISZERO ISZERO SWAP1 POP SWAP2 SWAP1 POP JUMP JUMPDEST PUSH2 0x134A DUP2 PUSH2 0x1335 JUMP JUMPDEST DUP3 MSTORE POP POP JUMP JUMPDEST PUSH1 0x0 PUSH1 0x20 DUP3 ADD SWAP1 POP PUSH2 0x1365 PUSH1 0x0 DUP4 ADD DUP5 PUSH2 0x1341 JUMP JUMPDEST SWAP3 SWAP2 POP POP JUMP JUMPDEST PUSH1 0x0 DUP2 SWAP1 POP SWAP2 SWAP1 POP JUMP JUMPDEST PUSH2 0x137E DUP2 PUSH2 0x136B JUMP JUMPDEST DUP2 EQ PUSH2 0x1389 JUMPI PUSH1 0x0 DUP1 REVERT JUMPDEST POP JUMP JUMPDEST PUSH1 0x0 DUP2 CALLDATALOAD SWAP1 POP PUSH2 0x139B DUP2 PUSH2 0x1375 JUMP JUMPDEST SWAP3 SWAP2 POP POP JUMP JUMPDEST PUSH1 0x0 PUSH1 0x20 DUP3 DUP5 SUB SLT ISZERO PUSH2 0x13B7 JUMPI PUSH2 0x13B6 PUSH2 0x12D2 JUMP JUMPDEST JUMPDEST PUSH1 0x0 PUSH2 0x13C5 DUP5 DUP3 DUP6 ADD PUSH2 0x138C JUMP JUMPDEST SWAP2 POP POP SWAP3 SWAP2 POP POP JUMP JUMPDEST PUSH1 0x0 DUP2 SWAP1 POP SWAP2 SWAP1 POP JUMP JUMPDEST PUSH2 0x13E1 DUP2 PUSH2 0x13CE JUMP JUMPDEST DUP3 MSTORE POP POP JUMP JUMPDEST PUSH1 0x0 PUSH1 0x20 DUP3 ADD SWAP1 POP PUSH2 0x13FC PUSH1 0x0 DUP4 ADD DUP5 PUSH2 0x13D8 JUMP JUMPDEST SWAP3 SWAP2 POP POP JUMP JUMPDEST PUSH2 0x140B DUP2 PUSH2 0x13CE JUMP JUMPDEST DUP2 EQ PUSH2 0x1416 JUMPI PUSH1 0x0 DUP1 REVERT JUMPDEST POP JUMP JUMPDEST PUSH1 0x0 DUP2 CALLDATALOAD SWAP1 POP PUSH2 0x1428 DUP2 PUSH2 0x1402 JUMP JUMPDEST SWAP3 SWAP2 POP POP JUMP JUMPDEST PUSH1 0x0 PUSH1 0x20 DUP3 DUP5 SUB SLT ISZERO PUSH2 0x1444 JUMPI PUSH2 0x1443 PUSH2 0x12D2 JUMP JUMPDEST JUMPDEST PUSH1 0x0 PUSH2 0x1452 DUP5 DUP3 DUP6 ADD PUSH2 0x1419 JUMP JUMPDEST SWAP2 POP POP SWAP3 SWAP2 POP POP JUMP JUMPDEST PUSH1 0x0 DUP2 MLOAD SWAP1 POP SWAP2 SWAP1 POP JUMP JUMPDEST PUSH1 0x0 DUP3 DUP3 MSTORE PUSH1 0x20 DUP3 ADD SWAP1 POP SWAP3 SWAP2 POP POP JUMP JUMPDEST PUSH1 0x0 JUMPDEST DUP4 DUP2 LT ISZERO PUSH2 0x1495 JUMPI DUP1 DUP3 ADD MLOAD DUP2 DUP5 ADD MSTORE PUSH1 0x20 DUP2 ADD SWAP1 POP PUSH2 0x147A JUMP JUMPDEST PUSH1 0x0 DUP5 DUP5 ADD MSTORE POP POP POP POP JUMP JUMPDEST PUSH1 0x0 PUSH1 0x1F NOT PUSH1 0x1F DUP4 ADD AND SWAP1 POP SWAP2 SWAP1 POP JUMP JUMPDEST PUSH1 0x0 PUSH2 0x14BD DUP3 PUSH2 0x145B JUMP JUMPDEST PUSH2 0x14C7 DUP2 DUP6 PUSH2 0x1466 JUMP JUMPDEST SWAP4 POP PUSH2 0x14D7 DUP2 DUP6 PUSH1 0x20 DUP7 ADD PUSH2 0x1477 JUMP JUMPDEST PUSH2 0x14E0 DUP2 PUSH2 0x14A1 JUMP JUMPDEST DUP5 ADD SWAP2 POP POP SWAP3 SWAP2 POP POP JUMP JUMPDEST PUSH2 0x14F4 DUP2 PUSH2 0x136B JUMP JUMPDEST DUP3 MSTORE POP POP JUMP JUMPDEST PUSH1 0x0 PUSH1 0xE0 DUP3 ADD SWAP1 POP PUSH2 0x150F PUSH1 0x0 DUP4 ADD DUP11 PUSH2 0x13D8 JUMP JUMPDEST DUP2 DUP2 SUB PUSH1 0x20 DUP4 ADD MSTORE PUSH2 0x1521 DUP2 DUP10 PUSH2 0x14B2 JUMP JUMPDEST SWAP1 POP DUP2 DUP2 SUB PUSH1 0x40 DUP4 ADD MSTORE PUSH2 0x1535 DUP2 DUP9 PUSH2 0x14B2 JUMP JUMPDEST SWAP1 POP DUP2 DUP2 SUB PUSH1 0x60 DUP4 ADD MSTORE PUSH2 0x1549 DUP2 DUP8 PUSH2 0x14B2 JUMP JUMPDEST SWAP1 POP PUSH2 0x1558 PUSH1 0x80 DUP4 ADD DUP7 PUSH2 0x14EB JUMP JUMPDEST PUSH2 0x1565 PUSH1 0xA0 DUP4 ADD DUP6 PUSH2 0x129E JUMP JUMPDEST PUSH2 0x1572 PUSH1 0xC0 DUP4 ADD DUP5 PUSH2 0x1341 JUMP JUMPDEST SWAP9 SWAP8 POP POP POP POP POP POP POP POP JUMP JUMPDEST PUSH1 0x0 DUP2 MLOAD SWAP1 POP SWAP2 SWAP1 POP JUMP JUMPDEST PUSH1 0x0 DUP3 DUP3 MSTORE PUSH1 0x20 DUP3 ADD SWAP1 POP SWAP3 SWAP2 POP POP JUMP JUMPDEST PUSH1 0x0 DUP2 SWAP1 POP PUSH1 0x20 DUP3 ADD SWAP1 POP SWAP2 SWAP1 POP JUMP JUMPDEST PUSH2 0x15B3 DUP2 PUSH2 0x13CE JUMP JUMPDEST DUP3 MSTORE POP POP JUMP JUMPDEST PUSH1 0x0 PUSH2 0x15C5 DUP4 DUP4 PUSH2 0x15AA JUMP JUMPDEST PUSH1 0x20 DUP4 ADD SWAP1 POP SWAP3 SWAP2 POP POP JUMP JUMPDEST PUSH1 0x0 PUSH1 0x20 DUP3 ADD SWAP1 POP SWAP2 SWAP1 POP JUMP JUMPDEST PUSH1 0x0 PUSH2 0x15E9 DUP3 PUSH2 0x157E JUMP JUMPDEST PUSH2 0x15F3 DUP2 DUP6 PUSH2 0x1589 JUMP JUMPDEST SWAP4 POP PUSH2 0x15FE DUP4 PUSH2 0x159A JUMP JUMPDEST DUP1 PUSH1 0x0 JUMPDEST DUP4 DUP2 LT ISZERO PUSH2 0x162F JUMPI DUP2 MLOAD PUSH2 0x1616 DUP9 DUP3 PUSH2 0x15B9 JUMP JUMPDEST SWAP8 POP PUSH2 0x1621 DUP4 PUSH2 0x15D1 JUMP JUMPDEST SWAP3 POP POP PUSH1 0x1 DUP2 ADD SWAP1 POP PUSH2 0x1602 JUMP JUMPDEST POP DUP6 SWAP4 POP POP POP POP SWAP3 SWAP2 POP POP JUMP JUMPDEST PUSH1 0x0 PUSH1 0x20 DUP3 ADD SWAP1 POP DUP2 DUP2 SUB PUSH1 0x0 DUP4 ADD MSTORE PUSH2 0x1656 DUP2 DUP5 PUSH2 0x15DE JUMP JUMPDEST SWAP1 POP SWAP3 SWAP2 POP POP JUMP JUMPDEST PUSH1 0x0 DUP1 REVERT JUMPDEST PUSH1 0x0 DUP1 REVERT JUMPDEST PUSH32 0x4E487B7100000000000000000000000000000000000000000000000000000000 PUSH1 0x0 MSTORE PUSH1 0x41 PUSH1 0x4 MSTORE PUSH1 0x24 PUSH1 0x0 REVERT JUMPDEST PUSH2 0x16A0 DUP3 PUSH2 0x14A1 JUMP JUMPDEST DUP2 ADD DUP2 DUP2 LT PUSH8 0xFFFFFFFFFFFFFFFF DUP3 GT OR ISZERO PUSH2 0x16BF JUMPI PUSH2 0x16BE PUSH2 0x1668 JUMP JUMPDEST JUMPDEST DUP1 PUSH1 0x40 MSTORE POP POP POP JUMP JUMPDEST PUSH1 0x0 PUSH2 0x16D2 PUSH2 0x12C8 JUMP JUMPDEST SWAP1 POP PUSH2 0x16DE DUP3 DUP3 PUSH2 0x1697 JUMP JUMPDEST SWAP2 SWAP1 POP JUMP JUMPDEST PUSH1 0x0 PUSH8 0xFFFFFFFFFFFFFFFF DUP3 GT ISZERO PUSH2 0x16FE JUMPI PUSH2 0x16FD PUSH2 0x1668 JUMP JUMPDEST JUMPDEST PUSH2 0x1707 DUP3 PUSH2 0x14A1 JUMP JUMPDEST SWAP1 POP PUSH1 0x20 DUP2 ADD SWAP1 POP SWAP2 SWAP1 POP JUMP JUMPDEST DUP3 DUP2 DUP4 CALLDATACOPY PUSH1 0x0 DUP4 DUP4 ADD MSTORE POP POP POP JUMP JUMPDEST PUSH1 0x0 PUSH2 0x1736 PUSH2 0x1731 DUP5 PUSH2 0x16E3 JUMP JUMPDEST PUSH2 0x16C8 JUMP JUMPDEST SWAP1 POP DUP3 DUP2 MSTORE PUSH1 0x20 DUP2 ADD DUP5 DUP5 DUP5 ADD GT ISZERO PUSH2 0x1752 JUMPI PUSH2 0x1751 PUSH2 0x1663 JUMP JUMPDEST JUMPDEST PUSH2 0x175D DUP5 DUP3 DUP6 PUSH2 0x1714 JUMP JUMPDEST POP SWAP4 SWAP3 POP POP POP JUMP JUMPDEST PUSH1 0x0 DUP3 PUSH1 0x1F DUP4 ADD SLT PUSH2 0x177A JUMPI PUSH2 0x1779 PUSH2 0x165E JUMP JUMPDEST JUMPDEST DUP2 CALLDATALOAD PUSH2 0x178A DUP5 DUP3 PUSH1 0x20 DUP7 ADD PUSH2 0x1723 JUMP JUMPDEST SWAP2 POP POP SWAP3 SWAP2 POP POP JUMP JUMPDEST PUSH1 0x0 DUP1 PUSH1 0x0 PUSH1 0x60 DUP5 DUP7 SUB SLT ISZERO PUSH2 0x17AC JUMPI PUSH2 0x17AB PUSH2 0x12D2 JUMP JUMPDEST JUMPDEST PUSH1 0x0 DUP5 ADD CALLDATALOAD PUSH8 0xFFFFFFFFFFFFFFFF DUP2 GT ISZERO PUSH2 0x17CA JUMPI PUSH2 0x17C9 PUSH2 0x12D7 JUMP JUMPDEST JUMPDEST PUSH2 0x17D6 DUP7 DUP3 DUP8 ADD PUSH2 0x1765 JUMP JUMPDEST SWAP4 POP POP PUSH1 0x20 DUP5 ADD CALLDATALOAD PUSH8 0xFFFFFFFFFFFFFFFF DUP2 GT ISZERO PUSH2 0x17F7 JUMPI PUSH2 0x17F6 PUSH2 0x12D7 JUMP JUMPDEST JUMPDEST PUSH2 0x1803 DUP7 DUP3 DUP8 ADD PUSH2 0x1765 JUMP JUMPDEST SWAP3 POP POP PUSH1 0x40 DUP5 ADD CALLDATALOAD PUSH8 0xFFFFFFFFFFFFFFFF DUP2 GT ISZERO PUSH2 0x1824 JUMPI PUSH2 0x1823 PUSH2 0x12D7 JUMP JUMPDEST JUMPDEST PUSH2 0x1830 DUP7 DUP3 DUP8 ADD PUSH2 0x1765 JUMP JUMPDEST SWAP2 POP POP SWAP3 POP SWAP3 POP SWAP3 JUMP JUMPDEST PUSH1 0x0 DUP2 MLOAD SWAP1 POP SWAP2 SWAP1 POP JUMP JUMPDEST PUSH1 0x0 DUP3 DUP3 MSTORE PUSH1 0x20 DUP3 ADD SWAP1 POP SWAP3 SWAP2 POP POP JUMP JUMPDEST PUSH1 0x0 DUP2 SWAP1 POP PUSH1 0x20 DUP3 ADD SWAP1 POP SWAP2 SWAP1 POP JUMP JUMPDEST PUSH1 0x0 DUP3 DUP3 MSTORE PUSH1 0x20 DUP3 ADD SWAP1 POP SWAP3 SWAP2 POP POP JUMP JUMPDEST PUSH1 0x0 PUSH2 0x1882 DUP3 PUSH2 0x145B JUMP JUMPDEST PUSH2 0x188C DUP2 DUP6 PUSH2 0x1866 JUMP JUMPDEST SWAP4 POP PUSH2 0x189C DUP2 DUP6 PUSH1 0x20 DUP7 ADD PUSH2 0x1477 JUMP JUMPDEST PUSH2 0x18A5 DUP2 PUSH2 0x14A1 JUMP JUMPDEST DUP5 ADD SWAP2 POP POP SWAP3 SWAP2 POP POP JUMP JUMPDEST PUSH2 0x18B9 DUP2 PUSH2 0x136B JUMP JUMPDEST DUP3 MSTORE POP POP JUMP JUMPDEST PUSH2 0x18C8 DUP2 PUSH2 0x128C JUMP JUMPDEST DUP3 MSTORE POP POP JUMP JUMPDEST PUSH2 0x18D7 DUP2 PUSH2 0x1335 JUMP JUMPDEST DUP3 MSTORE POP POP JUMP JUMPDEST PUSH1 0x0 PUSH1 0xE0 DUP4 ADD PUSH1 0x0 DUP4 ADD MLOAD PUSH2 0x18F5 PUSH1 0x0 DUP7 ADD DUP3 PUSH2 0x15AA JUMP JUMPDEST POP PUSH1 0x20 DUP4 ADD MLOAD DUP5 DUP3 SUB PUSH1 0x20 DUP7 ADD MSTORE PUSH2 0x190D DUP3 DUP3 PUSH2 0x1877 JUMP JUMPDEST SWAP2 POP POP PUSH1 0x40 DUP4 ADD MLOAD DUP5 DUP3 SUB PUSH1 0x40 DUP7 ADD MSTORE PUSH2 0x1927 DUP3 DUP3 PUSH2 0x1877 JUMP JUMPDEST SWAP2 POP POP PUSH1 0x60 DUP4 ADD MLOAD DUP5 DUP3 SUB PUSH1 0x60 DUP7 ADD MSTORE PUSH2 0x1941 DUP3 DUP3 PUSH2 0x1877 JUMP JUMPDEST SWAP2 POP POP PUSH1 0x80 DUP4 ADD MLOAD PUSH2 0x1956 PUSH1 0x80 DUP7 ADD DUP3 PUSH2 0x18B0 JUMP JUMPDEST POP PUSH1 0xA0 DUP4 ADD MLOAD PUSH2 0x1969 PUSH1 0xA0 DUP7 ADD DUP3 PUSH2 0x18BF JUMP JUMPDEST POP PUSH1 0xC0 DUP4 ADD MLOAD PUSH2 0x197C PUSH1 0xC0 DUP7 ADD DUP3 PUSH2 0x18CE JUMP JUMPDEST POP DUP1 SWAP2 POP POP SWAP3 SWAP2 POP POP JUMP JUMPDEST PUSH1 0x0 PUSH2 0x1993 DUP4 DUP4 PUSH2 0x18DD JUMP JUMPDEST SWAP1 POP SWAP3 SWAP2 POP POP JUMP JUMPDEST PUSH1 0x0 PUSH1 0x20 DUP3 ADD SWAP1 POP SWAP2 SWAP1 POP JUMP JUMPDEST PUSH1 0x0 PUSH2 0x19B3 DUP3 PUSH2 0x183A JUMP JUMPDEST PUSH2 0x19BD DUP2 DUP6 PUSH2 0x1845 JUMP JUMPDEST SWAP4 POP DUP4 PUSH1 0x20 DUP3 MUL DUP6 ADD PUSH2 0x19CF DUP6 PUSH2 0x1856 JUMP JUMPDEST DUP1 PUSH1 0x0 JUMPDEST DUP6 DUP2 LT ISZERO PUSH2 0x1A0B JUMPI DUP5 DUP5 SUB DUP10 MSTORE DUP2 MLOAD PUSH2 0x19EC DUP6 DUP3 PUSH2 0x1987 JUMP JUMPDEST SWAP5 POP PUSH2 0x19F7 DUP4 PUSH2 0x199B JUMP JUMPDEST SWAP3 POP PUSH1 0x20 DUP11 ADD SWAP10 POP POP PUSH1 0x1 DUP2 ADD SWAP1 POP PUSH2 0x19D3 JUMP JUMPDEST POP DUP3 SWAP8 POP DUP8 SWAP6 POP POP POP POP POP POP SWAP3 SWAP2 POP POP JUMP JUMPDEST PUSH1 0x0 PUSH1 0x20 DUP3 ADD SWAP1 POP DUP2 DUP2 SUB PUSH1 0x0 DUP4 ADD MSTORE PUSH2 0x1A37 DUP2 DUP5 PUSH2 0x19A8 JUMP JUMPDEST SWAP1 POP SWAP3 SWAP2 POP POP JUMP JUMPDEST PUSH1 0x0 PUSH1 0xE0 DUP4 ADD PUSH1 0x0 DUP4 ADD MLOAD PUSH2 0x1A57 PUSH1 0x0 DUP7 ADD DUP3 PUSH2 0x15AA JUMP JUMPDEST POP PUSH1 0x20 DUP4 ADD MLOAD DUP5 DUP3 SUB PUSH1 0x20 DUP7 ADD MSTORE PUSH2 0x1A6F DUP3 DUP3 PUSH2 0x1877 JUMP JUMPDEST SWAP2 POP POP PUSH1 0x40 DUP4 ADD MLOAD DUP5 DUP3 SUB PUSH1 0x40 DUP7 ADD MSTORE PUSH2 0x1A89 DUP3 DUP3 PUSH2 0x1877 JUMP JUMPDEST SWAP2 POP POP PUSH1 0x60 DUP4 ADD MLOAD DUP5 DUP3 SUB PUSH1 0x60 DUP7 ADD MSTORE PUSH2 0x1AA3 DUP3 DUP3 PUSH2 0x1877 JUMP JUMPDEST SWAP2 POP POP PUSH1 0x80 DUP4 ADD MLOAD PUSH2 0x1AB8 PUSH1 0x80 DUP7 ADD DUP3 PUSH2 0x18B0 JUMP JUMPDEST POP PUSH1 0xA0 DUP4 ADD MLOAD PUSH2 0x1ACB PUSH1 0xA0 DUP7 ADD DUP3 PUSH2 0x18BF JUMP JUMPDEST POP PUSH1 0xC0 DUP4 ADD MLOAD PUSH2 0x1ADE PUSH1 0xC0 DUP7 ADD DUP3 PUSH2 0x18CE JUMP JUMPDEST POP DUP1 SWAP2 POP POP SWAP3 SWAP2 POP POP JUMP JUMPDEST PUSH1 0x0 PUSH1 0x20 DUP3 ADD SWAP1 POP DUP2 DUP2 SUB PUSH1 0x0 DUP4 ADD MSTORE PUSH2 0x1B03 DUP2 DUP5 PUSH2 0x1A3F JUMP JUMPDEST SWAP1 POP SWAP3 SWAP2 POP POP JUMP JUMPDEST PUSH32 0x4E487B7100000000000000000000000000000000000000000000000000000000 PUSH1 0x0 MSTORE PUSH1 0x11 PUSH1 0x4 MSTORE PUSH1 0x24 PUSH1 0x0 REVERT JUMPDEST PUSH1 0x0 PUSH2 0x1B45 DUP3 PUSH2 0x136B JUMP JUMPDEST SWAP2 POP PUSH1 0x0 DUP3 SUB PUSH2 0x1B58 JUMPI PUSH2 0x1B57 PUSH2 0x1B0B JUMP JUMPDEST JUMPDEST PUSH1 0x1 DUP3 SUB SWAP1 POP SWAP2 SWAP1 POP JUMP JUMPDEST PUSH32 0x4E487B7100000000000000000000000000000000000000000000000000000000 PUSH1 0x0 MSTORE PUSH1 0x22 PUSH1 0x4 MSTORE PUSH1 0x24 PUSH1 0x0 REVERT JUMPDEST PUSH1 0x0 PUSH1 0x2 DUP3 DIV SWAP1 POP PUSH1 0x1 DUP3 AND DUP1 PUSH2 0x1BAA JUMPI PUSH1 0x7F DUP3 AND SWAP2 POP JUMPDEST PUSH1 0x20 DUP3 LT DUP2 SUB PUSH2 0x1BBD JUMPI PUSH2 0x1BBC PUSH2 0x1B63 JUMP JUMPDEST JUMPDEST POP SWAP2 SWAP1 POP JUMP JUMPDEST PUSH1 0x0 DUP2 SWAP1 POP SWAP3 SWAP2 POP POP JUMP JUMPDEST PUSH1 0x0 PUSH2 0x1BD9 DUP3 PUSH2 0x145B JUMP JUMPDEST PUSH2 0x1BE3 DUP2 DUP6 PUSH2 0x1BC3 JUMP JUMPDEST SWAP4 POP PUSH2 0x1BF3 DUP2 DUP6 PUSH1 0x20 DUP7 ADD PUSH2 0x1477 JUMP JUMPDEST DUP1 DUP5 ADD SWAP2 POP POP SWAP3 SWAP2 POP POP JUMP JUMPDEST PUSH1 0x0 PUSH2 0x1C0B DUP3 DUP6 PUSH2 0x1BCE JUMP JUMPDEST SWAP2 POP PUSH2 0x1C17 DUP3 DUP5 PUSH2 0x1BCE JUMP JUMPDEST SWAP2 POP DUP2 SWAP1 POP SWAP4 SWAP3 POP POP POP JUMP JUMPDEST PUSH1 0x0 DUP2 SWAP1 POP DUP2 PUSH1 0x0 MSTORE PUSH1 0x20 PUSH1 0x0 KECCAK256 SWAP1 POP SWAP2 SWAP1 POP JUMP JUMPDEST PUSH1 0x0 PUSH1 0x20 PUSH1 0x1F DUP4 ADD DIV SWAP1 POP SWAP2 SWAP1 POP JUMP JUMPDEST PUSH1 0x0 DUP3 DUP3 SHL SWAP1 POP SWAP3 SWAP2 POP POP JUMP JUMPDEST PUSH1 0x0 PUSH1 0x8 DUP4 MUL PUSH2 0x1C85 PUSH32 0xFFFFFFFFFFFFFFFFFFFFFFFFFFFFFFFFFFFFFFFFFFFFFFFFFFFFFFFFFFFFFFFF DUP3 PUSH2 0x1C48 JUMP JUMPDEST PUSH2 0x1C8F DUP7 DUP4 PUSH2 0x1C48 JUMP JUMPDEST SWAP6 POP DUP1 NOT DUP5 AND SWAP4 POP DUP1 DUP7 AND DUP5 OR SWAP3 POP POP POP SWAP4 SWAP3 POP POP POP JUMP JUMPDEST PUSH1 0x0 DUP2 SWAP1 POP SWAP2 SWAP1 POP JUMP JUMPDEST PUSH1 0x0 PUSH2 0x1CCC PUSH2 0x1CC7 PUSH2 0x1CC2 DUP5 PUSH2 0x136B JUMP JUMPDEST PUSH2 0x1CA7 JUMP JUMPDEST PUSH2 0x136B JUMP JUMPDEST SWAP1 POP SWAP2 SWAP1 POP JUMP JUMPDEST PUSH1 0x0 DUP2 SWAP1 POP SWAP2 SWAP1 POP JUMP JUMPDEST PUSH2 0x1CE6 DUP4 PUSH2 0x1CB1 JUMP JUMPDEST PUSH2 0x1CFA PUSH2 0x1CF2 DUP3 PUSH2 0x1CD3 JUMP JUMPDEST DUP5 DUP5 SLOAD PUSH2 0x1C55 JUMP JUMPDEST DUP3 SSTORE POP POP POP POP JUMP JUMPDEST PUSH1 0x0 SWAP1 JUMP JUMPDEST PUSH2 0x1D0F PUSH2 0x1D02 JUMP JUMPDEST PUSH2 0x1D1A DUP2 DUP5 DUP5 PUSH2 0x1CDD JUMP JUMPDEST POP POP POP JUMP JUMPDEST JUMPDEST DUP2 DUP2 LT ISZERO PUSH2 0x1D3E JUMPI PUSH2 0x1D33 PUSH1 0x0 DUP3 PUSH2 0x1D07 JUMP JUMPDEST PUSH1 0x1 DUP2 ADD SWAP1 POP PUSH2 0x1D20 JUMP JUMPDEST POP POP JUMP JUMPDEST PUSH1 0x1F DUP3 GT ISZERO PUSH2 0x1D83 JUMPI PUSH2 0x1D54 DUP2 PUSH2 0x1C23 JUMP JUMPDEST PUSH2 0x1D5D DUP5 PUSH2 0x1C38 JUMP JUMPDEST DUP2 ADD PUSH1 0x20 DUP6 LT ISZERO PUSH2 0x1D6C JUMPI DUP2 SWAP1 POP JUMPDEST PUSH2 0x1D80 PUSH2 0x1D78 DUP6 PUSH2 0x1C38 JUMP JUMPDEST DUP4 ADD DUP3 PUSH2 0x1D1F JUMP JUMPDEST POP POP JUMPDEST POP POP POP JUMP JUMPDEST PUSH1 0x0 DUP3 DUP3 SHR SWAP1 POP SWAP3 SWAP2 POP POP JUMP JUMPDEST PUSH1 0x0 PUSH2 0x1DA6 PUSH1 0x0 NOT DUP5 PUSH1 0x8 MUL PUSH2 0x1D88 JUMP JUMPDEST NOT DUP1 DUP4 AND SWAP2 POP POP SWAP3 SWAP2 POP POP JUMP JUMPDEST PUSH1 0x0 PUSH2 0x1DBF DUP4 DUP4 PUSH2 0x1D95 JUMP JUMPDEST SWAP2 POP DUP3 PUSH1 0x2 MUL DUP3 OR SWAP1 POP SWAP3 SWAP2 POP POP JUMP JUMPDEST PUSH2 0x1DD8 DUP3 PUSH2 0x145B JUMP JUMPDEST PUSH8 0xFFFFFFFFFFFFFFFF DUP2 GT ISZERO PUSH2 0x1DF1 JUMPI PUSH2 0x1DF0 PUSH2 0x1668 JUMP JUMPDEST JUMPDEST PUSH2 0x1DFB DUP3 SLOAD PUSH2 0x1B92 JUMP JUMPDEST PUSH2 0x1E06 DUP3 DUP3 DUP6 PUSH2 0x1D42 JUMP JUMPDEST PUSH1 0x0 PUSH1 0x20 SWAP1 POP PUSH1 0x1F DUP4 GT PUSH1 0x1 DUP2 EQ PUSH2 0x1E39 JUMPI PUSH1 0x0 DUP5 ISZERO PUSH2 0x1E27 JUMPI DUP3 DUP8 ADD MLOAD SWAP1 POP JUMPDEST PUSH2 0x1E31 DUP6 DUP3 PUSH2 0x1DB3 JUMP JUMPDEST DUP7 SSTORE POP PUSH2 0x1E99 JUMP JUMPDEST PUSH1 0x1F NOT DUP5 AND PUSH2 0x1E47 DUP7 PUSH2 0x1C23 JUMP JUMPDEST PUSH1 0x0 JUMPDEST DUP3 DUP2 LT ISZERO PUSH2 0x1E6F JUMPI DUP5 DUP10 ADD MLOAD DUP3 SSTORE PUSH1 0x1 DUP3 ADD SWAP2 POP PUSH1 0x20 DUP6 ADD SWAP5 POP PUSH1 0x20 DUP2 ADD SWAP1 POP PUSH2 0x1E4A JUMP JUMPDEST DUP7 DUP4 LT ISZERO PUSH2 0x1E8C JUMPI DUP5 DUP10 ADD MLOAD PUSH2 0x1E88 PUSH1 0x1F DUP10 AND DUP3 PUSH2 0x1D95 JUMP JUMPDEST DUP4 SSTORE POP JUMPDEST PUSH1 0x1 PUSH1 0x2 DUP9 MUL ADD DUP9 SSTORE POP POP POP JUMPDEST POP POP POP POP POP POP JUMP JUMPDEST PUSH1 0x0 PUSH1 0x80 DUP3 ADD SWAP1 POP PUSH2 0x1EB6 PUSH1 0x0 DUP4 ADD DUP8 PUSH2 0x13D8 JUMP JUMPDEST DUP2 DUP2 SUB PUSH1 0x20 DUP4 ADD MSTORE PUSH2 0x1EC8 DUP2 DUP7 PUSH2 0x14B2 JUMP JUMPDEST SWAP1 POP DUP2 DUP2 SUB PUSH1 0x40 DUP4 ADD MSTORE PUSH2 0x1EDC DUP2 DUP6 PUSH2 0x14B2 JUMP JUMPDEST SWAP1 POP DUP2 DUP2 SUB PUSH1 0x60 DUP4 ADD MSTORE PUSH2 0x1EF0 DUP2 DUP5 PUSH2 0x14B2 JUMP JUMPDEST SWAP1 POP SWAP6 SWAP5 POP POP POP POP POP JUMP JUMPDEST PUSH32 0x4E487B7100000000000000000000000000000000000000000000000000000000 PUSH1 0x0 MSTORE PUSH1 0x32 PUSH1 0x4 MSTORE PUSH1 0x24 PUSH1 0x0 REVERT JUMPDEST PUSH1 0x0 PUSH1 0x40 DUP3 ADD SWAP1 POP PUSH2 0x1F3F PUSH1 0x0 DUP4 ADD DUP6 PUSH2 0x13D8 JUMP JUMPDEST PUSH2 0x1F4C PUSH1 0x20 DUP4 ADD DUP5 PUSH2 0x129E JUMP JUMPDEST SWAP4 SWAP3 POP POP POP JUMP JUMPDEST PUSH1 0x0 PUSH2 0x1F5E DUP3 PUSH2 0x136B JUMP JUMPDEST SWAP2 POP PUSH32 0xFFFFFFFFFFFFFFFFFFFFFFFFFFFFFFFFFFFFFFFFFFFFFFFFFFFFFFFFFFFFFFFF DUP3 SUB PUSH2 0x1F90 JUMPI PUSH2 0x1F8F PUSH2 0x1B0B JUMP JUMPDEST JUMPDEST PUSH1 0x1 DUP3 ADD SWAP1 POP SWAP2 SWAP1 POP JUMP JUMPDEST PUSH1 0x0 PUSH1 0x40 DUP3 ADD SWAP1 POP PUSH2 0x1FB0 PUSH1 0x0 DUP4 ADD DUP6 PUSH2 0x129E JUMP JUMPDEST PUSH2 0x1FBD PUSH1 0x20 DUP4 ADD DUP5 PUSH2 0x13D8 JUMP JUMPDEST SWAP4 SWAP3 POP POP POP JUMP INVALID LOG2 PUSH5 0x6970667358 0x22 SLT KECCAK256 BYTE PUSH19 0x1A08FA22482DD167779E0AAF90784FE99D5EB2 0xCA MSTORE 0xD4 PUSH26 0xC88399D67A136064736F6C634300081C00330000000000000000 "
        },
        "methodIdentifiers": {
          "addAuthorizedDevice(address)": "b3c739f8",
          "addUserToGrid(bytes32)": "cbc6a21d",
          "authorizedGridStations(address)": "568d8c51",
          "createGrid(string,string,string)": "a88b82a5",
          "getUserGridData(address)": "e6830d1f",
          "gridIds(uint256)": "683b27cf",
          "grids(bytes32)": "9cd2f8b4",
          "isUserConnected(address)": "f4491dfb",
          "listGridIds()": "a6c47bea",
          "listGrids()": "bbb13df1",
          "removeUserFromGrid()": "71a0e2d0",
          "userInGrid(address)": "d0a9aa76"
        }
      }
    }
  }
}