{
  "contracts/EnergyStorage.sol": {
    "EnergyStorage": {
      "abi": [
        {
          "inputs": [],
          "stateMutability": "nonpayable",
          "type": "constructor"
        },
        {
          "inputs": [
            {
              "internalType": "uint256",
              "name": "kWh",
              "type": "uint256"
            }
          ],
          "name": "EnergySupplyToLow",
          "type": "error"
        },
        {
          "inputs": [
            {
              "internalType": "uint256",
              "name": "kWh",
              "type": "uint256"
            }
          ],
          "name": "ToLowkWh",
          "type": "error"
        },
        {
          "inputs": [],
          "name": "TradingContractNotSet",
          "type": "error"
        },
        {
          "inputs": [],
          "name": "UnauthorizedAccess",
          "type": "error"
        },
        {
          "anonymous": false,
          "inputs": [
            {
              "indexed": false,
              "internalType": "address",
              "name": "user",
              "type": "address"
            },
            {
              "indexed": false,
              "internalType": "uint256",
              "name": "kWh",
              "type": "uint256"
            }
          ],
          "name": "AddedEnergy",
          "type": "event"
        },
        {
          "anonymous": false,
          "inputs": [
            {
              "indexed": false,
              "internalType": "address",
              "name": "user",
              "type": "address"
            },
            {
              "indexed": false,
              "internalType": "uint256",
              "name": "kWh",
              "type": "uint256"
            }
          ],
          "name": "ReducedEnergy",
          "type": "event"
        },
        {
          "anonymous": false,
          "inputs": [
            {
              "indexed": false,
              "internalType": "address",
              "name": "tradingContractAddress",
              "type": "address"
            }
          ],
          "name": "TradingAddressAdded",
          "type": "event"
        },
        {
          "inputs": [
            {
              "internalType": "address",
              "name": "_user",
              "type": "address"
            },
            {
              "internalType": "uint256",
              "name": "_kWh",
              "type": "uint256"
            }
          ],
          "name": "addEnergy",
          "outputs": [],
          "stateMutability": "nonpayable",
          "type": "function"
        },
        {
          "inputs": [
            {
              "internalType": "address",
              "name": "",
              "type": "address"
            }
          ],
          "name": "energySupply",
          "outputs": [
            {
              "internalType": "uint256",
              "name": "",
              "type": "uint256"
            }
          ],
          "stateMutability": "view",
          "type": "function"
        },
        {
          "inputs": [
            {
              "internalType": "address",
              "name": "_user",
              "type": "address"
            }
          ],
          "name": "getEnergySupply",
          "outputs": [
            {
              "internalType": "uint256",
              "name": "",
              "type": "uint256"
            }
          ],
          "stateMutability": "view",
          "type": "function"
        },
        {
          "inputs": [
            {
              "internalType": "address",
              "name": "_user",
              "type": "address"
            },
            {
              "internalType": "uint256",
              "name": "_kWh",
              "type": "uint256"
            }
          ],
          "name": "reduceEnergy",
          "outputs": [],
          "stateMutability": "nonpayable",
          "type": "function"
        },
        {
          "inputs": [
            {
              "internalType": "address",
              "name": "_tradingContract",
              "type": "address"
            }
          ],
          "name": "setTradingContract",
          "outputs": [],
          "stateMutability": "nonpayable",
          "type": "function"
        },
        {
          "inputs": [],
          "name": "tradingContract",
          "outputs": [
            {
              "internalType": "address",
              "name": "",
              "type": "address"
            }
          ],
          "stateMutability": "view",
          "type": "function"
        }
      ],
      "evm": {
        "bytecode": {
          "linkReferences": {},
          "object": "6080604052348015600f57600080fd5b50336000806101000a81548173ffffffffffffffffffffffffffffffffffffffff021916908373ffffffffffffffffffffffffffffffffffffffff1602179055506108858061005f6000396000f3fe608060405234801561001057600080fd5b50600436106100625760003560e01c8063275afa8214610067578063362701c0146100835780634437fb96146100b357806350064e47146100cf5780635be6f2c7146100ff5780639e4bd2e91461011b575b600080fd5b610081600480360381019061007c91906106ce565b610139565b005b61009d6004803603810190610098919061070e565b6102d4565b6040516100aa919061074a565b60405180910390f35b6100cd60048036038101906100c891906106ce565b6102ec565b005b6100e960048036038101906100e4919061070e565b6104c6565b6040516100f6919061074a565b60405180910390f35b6101196004803603810190610114919061070e565b61050f565b005b61012361060f565b6040516101309190610774565b60405180910390f35b818073ffffffffffffffffffffffffffffffffffffffff163373ffffffffffffffffffffffffffffffffffffffff16141580156101c45750600260009054906101000a900473ffffffffffffffffffffffffffffffffffffffff1673ffffffffffffffffffffffffffffffffffffffff163373ffffffffffffffffffffffffffffffffffffffff1614155b156101fb576040517f344fd58600000000000000000000000000000000000000000000000000000000815260040160405180910390fd5b6000821161024057816040517fc50b10db000000000000000000000000000000000000000000000000000000008152600401610237919061074a565b60405180910390fd5b81600160008573ffffffffffffffffffffffffffffffffffffffff1673ffffffffffffffffffffffffffffffffffffffff168152602001908152602001600020600082825461028f91906107be565b925050819055507f84c3b0d23559a05b9bd3b5f86f2dcc61800a8747a261a6659bb490b976d6032283836040516102c79291906107f2565b60405180910390a1505050565b60016020528060005260406000206000915090505481565b818073ffffffffffffffffffffffffffffffffffffffff163373ffffffffffffffffffffffffffffffffffffffff16141580156103775750600260009054906101000a900473ffffffffffffffffffffffffffffffffffffffff1673ffffffffffffffffffffffffffffffffffffffff163373ffffffffffffffffffffffffffffffffffffffff1614155b156103ae576040517f344fd58600000000000000000000000000000000000000000000000000000000815260040160405180910390fd5b81600160008573ffffffffffffffffffffffffffffffffffffffff1673ffffffffffffffffffffffffffffffffffffffff16815260200190815260200160002054101561043257816040517f4a05d2e3000000000000000000000000000000000000000000000000000000008152600401610429919061074a565b60405180910390fd5b81600160008573ffffffffffffffffffffffffffffffffffffffff1673ffffffffffffffffffffffffffffffffffffffff1681526020019081526020016000206000828254610481919061081b565b925050819055507f36a4bfd4ca5a21ea79b08d80a08afd80ba0df520d196964d7ab76e4515b97a8783836040516104b99291906107f2565b60405180910390a1505050565b6000600160008373ffffffffffffffffffffffffffffffffffffffff1673ffffffffffffffffffffffffffffffffffffffff168152602001908152602001600020549050919050565b60008054906101000a900473ffffffffffffffffffffffffffffffffffffffff1673ffffffffffffffffffffffffffffffffffffffff163373ffffffffffffffffffffffffffffffffffffffff1614610594576040517f344fd58600000000000000000000000000000000000000000000000000000000815260040160405180910390fd5b80600260006101000a81548173ffffffffffffffffffffffffffffffffffffffff021916908373ffffffffffffffffffffffffffffffffffffffff1602179055507f426671ff623fecbea1fbb6c0522fa9b3775786e2873b2bc6400c5362fe92d78f816040516106049190610774565b60405180910390a150565b600260009054906101000a900473ffffffffffffffffffffffffffffffffffffffff1681565b600080fd5b600073ffffffffffffffffffffffffffffffffffffffff82169050919050565b60006106658261063a565b9050919050565b6106758161065a565b811461068057600080fd5b50565b6000813590506106928161066c565b92915050565b6000819050919050565b6106ab81610698565b81146106b657600080fd5b50565b6000813590506106c8816106a2565b92915050565b600080604083850312156106e5576106e4610635565b5b60006106f385828601610683565b9250506020610704858286016106b9565b9150509250929050565b60006020828403121561072457610723610635565b5b600061073284828501610683565b91505092915050565b61074481610698565b82525050565b600060208201905061075f600083018461073b565b92915050565b61076e8161065a565b82525050565b60006020820190506107896000830184610765565b92915050565b7f4e487b7100000000000000000000000000000000000000000000000000000000600052601160045260246000fd5b60006107c982610698565b91506107d483610698565b92508282019050808211156107ec576107eb61078f565b5b92915050565b60006040820190506108076000830185610765565b610814602083018461073b565b9392505050565b600061082682610698565b915061083183610698565b92508282039050818111156108495761084861078f565b5b9291505056fea26469706673582212208c154327abc69eb2a0b3cfc27d8df3f5aae6839a7081f977ba245f02e7b1da8464736f6c634300081c0033",
          "opcodes": "PUSH1 0x80 PUSH1 0x40 MSTORE CALLVALUE DUP1 ISZERO PUSH1 0xF JUMPI PUSH1 0x0 DUP1 REVERT JUMPDEST POP CALLER PUSH1 0x0 DUP1 PUSH2 0x100 EXP DUP2 SLOAD DUP2 PUSH20 0xFFFFFFFFFFFFFFFFFFFFFFFFFFFFFFFFFFFFFFFF MUL NOT AND SWAP1 DUP4 PUSH20 0xFFFFFFFFFFFFFFFFFFFFFFFFFFFFFFFFFFFFFFFF AND MUL OR SWAP1 SSTORE POP PUSH2 0x885 DUP1 PUSH2 0x5F PUSH1 0x0 CODECOPY PUSH1 0x0 RETURN INVALID PUSH1 0x80 PUSH1 0x40 MSTORE CALLVALUE DUP1 ISZERO PUSH2 0x10 JUMPI PUSH1 0x0 DUP1 REVERT JUMPDEST POP PUSH1 0x4 CALLDATASIZE LT PUSH2 0x62 JUMPI PUSH1 0x0 CALLDATALOAD PUSH1 0xE0 SHR DUP1 PUSH4 0x275AFA82 EQ PUSH2 0x67 JUMPI DUP1 PUSH4 0x362701C0 EQ PUSH2 0x83 JUMPI DUP1 PUSH4 0x4437FB96 EQ PUSH2 0xB3 JUMPI DUP1 PUSH4 0x50064E47 EQ PUSH2 0xCF JUMPI DUP1 PUSH4 0x5BE6F2C7 EQ PUSH2 0xFF JUMPI DUP1 PUSH4 0x9E4BD2E9 EQ PUSH2 0x11B JUMPI JUMPDEST PUSH1 0x0 DUP1 REVERT JUMPDEST PUSH2 0x81 PUSH1 0x4 DUP1 CALLDATASIZE SUB DUP2 ADD SWAP1 PUSH2 0x7C SWAP2 SWAP1 PUSH2 0x6CE JUMP JUMPDEST PUSH2 0x139 JUMP JUMPDEST STOP JUMPDEST PUSH2 0x9D PUSH1 0x4 DUP1 CALLDATASIZE SUB DUP2 ADD SWAP1 PUSH2 0x98 SWAP2 SWAP1 PUSH2 0x70E JUMP JUMPDEST PUSH2 0x2D4 JUMP JUMPDEST PUSH1 0x40 MLOAD PUSH2 0xAA SWAP2 SWAP1 PUSH2 0x74A JUMP JUMPDEST PUSH1 0x40 MLOAD DUP1 SWAP2 SUB SWAP1 RETURN JUMPDEST PUSH2 0xCD PUSH1 0x4 DUP1 CALLDATASIZE SUB DUP2 ADD SWAP1 PUSH2 0xC8 SWAP2 SWAP1 PUSH2 0x6CE JUMP JUMPDEST PUSH2 0x2EC JUMP JUMPDEST STOP JUMPDEST PUSH2 0xE9 PUSH1 0x4 DUP1 CALLDATASIZE SUB DUP2 ADD SWAP1 PUSH2 0xE4 SWAP2 SWAP1 PUSH2 0x70E JUMP JUMPDEST PUSH2 0x4C6 JUMP JUMPDEST PUSH1 0x40 MLOAD PUSH2 0xF6 SWAP2 SWAP1 PUSH2 0x74A JUMP JUMPDEST PUSH1 0x40 MLOAD DUP1 SWAP2 SUB SWAP1 RETURN JUMPDEST PUSH2 0x119 PUSH1 0x4 DUP1 CALLDATASIZE SUB DUP2 ADD SWAP1 PUSH2 0x114 SWAP2 SWAP1 PUSH2 0x70E JUMP JUMPDEST PUSH2 0x50F JUMP JUMPDEST STOP JUMPDEST PUSH2 0x123 PUSH2 0x60F JUMP JUMPDEST PUSH1 0x40 MLOAD PUSH2 0x130 SWAP2 SWAP1 PUSH2 0x774 JUMP JUMPDEST PUSH1 0x40 MLOAD DUP1 SWAP2 SUB SWAP1 RETURN JUMPDEST DUP2 DUP1 PUSH20 0xFFFFFFFFFFFFFFFFFFFFFFFFFFFFFFFFFFFFFFFF AND CALLER PUSH20 0xFFFFFFFFFFFFFFFFFFFFFFFFFFFFFFFFFFFFFFFF AND EQ ISZERO DUP1 ISZERO PUSH2 0x1C4 JUMPI POP PUSH1 0x2 PUSH1 0x0 SWAP1 SLOAD SWAP1 PUSH2 0x100 EXP SWAP1 DIV PUSH20 0xFFFFFFFFFFFFFFFFFFFFFFFFFFFFFFFFFFFFFFFF AND PUSH20 0xFFFFFFFFFFFFFFFFFFFFFFFFFFFFFFFFFFFFFFFF AND CALLER PUSH20 0xFFFFFFFFFFFFFFFFFFFFFFFFFFFFFFFFFFFFFFFF AND EQ ISZERO JUMPDEST ISZERO PUSH2 0x1FB JUMPI PUSH1 0x40 MLOAD PUSH32 0x344FD58600000000000000000000000000000000000000000000000000000000 DUP2 MSTORE PUSH1 0x4 ADD PUSH1 0x40 MLOAD DUP1 SWAP2 SUB SWAP1 REVERT JUMPDEST PUSH1 0x0 DUP3 GT PUSH2 0x240 JUMPI DUP2 PUSH1 0x40 MLOAD PUSH32 0xC50B10DB00000000000000000000000000000000000000000000000000000000 DUP2 MSTORE PUSH1 0x4 ADD PUSH2 0x237 SWAP2 SWAP1 PUSH2 0x74A JUMP JUMPDEST PUSH1 0x40 MLOAD DUP1 SWAP2 SUB SWAP1 REVERT JUMPDEST DUP2 PUSH1 0x1 PUSH1 0x0 DUP6 PUSH20 0xFFFFFFFFFFFFFFFFFFFFFFFFFFFFFFFFFFFFFFFF AND PUSH20 0xFFFFFFFFFFFFFFFFFFFFFFFFFFFFFFFFFFFFFFFF AND DUP2 MSTORE PUSH1 0x20 ADD SWAP1 DUP2 MSTORE PUSH1 0x20 ADD PUSH1 0x0 KECCAK256 PUSH1 0x0 DUP3 DUP3 SLOAD PUSH2 0x28F SWAP2 SWAP1 PUSH2 0x7BE JUMP JUMPDEST SWAP3 POP POP DUP2 SWAP1 SSTORE POP PUSH32 0x84C3B0D23559A05B9BD3B5F86F2DCC61800A8747A261A6659BB490B976D60322 DUP4 DUP4 PUSH1 0x40 MLOAD PUSH2 0x2C7 SWAP3 SWAP2 SWAP1 PUSH2 0x7F2 JUMP JUMPDEST PUSH1 0x40 MLOAD DUP1 SWAP2 SUB SWAP1 LOG1 POP POP POP JUMP JUMPDEST PUSH1 0x1 PUSH1 0x20 MSTORE DUP1 PUSH1 0x0 MSTORE PUSH1 0x40 PUSH1 0x0 KECCAK256 PUSH1 0x0 SWAP2 POP SWAP1 POP SLOAD DUP2 JUMP JUMPDEST DUP2 DUP1 PUSH20 0xFFFFFFFFFFFFFFFFFFFFFFFFFFFFFFFFFFFFFFFF AND CALLER PUSH20 0xFFFFFFFFFFFFFFFFFFFFFFFFFFFFFFFFFFFFFFFF AND EQ ISZERO DUP1 ISZERO PUSH2 0x377 JUMPI POP PUSH1 0x2 PUSH1 0x0 SWAP1 SLOAD SWAP1 PUSH2 0x100 EXP SWAP1 DIV PUSH20 0xFFFFFFFFFFFFFFFFFFFFFFFFFFFFFFFFFFFFFFFF AND PUSH20 0xFFFFFFFFFFFFFFFFFFFFFFFFFFFFFFFFFFFFFFFF AND CALLER PUSH20 0xFFFFFFFFFFFFFFFFFFFFFFFFFFFFFFFFFFFFFFFF AND EQ ISZERO JUMPDEST ISZERO PUSH2 0x3AE JUMPI PUSH1 0x40 MLOAD PUSH32 0x344FD58600000000000000000000000000000000000000000000000000000000 DUP2 MSTORE PUSH1 0x4 ADD PUSH1 0x40 MLOAD DUP1 SWAP2 SUB SWAP1 REVERT JUMPDEST DUP2 PUSH1 0x1 PUSH1 0x0 DUP6 PUSH20 0xFFFFFFFFFFFFFFFFFFFFFFFFFFFFFFFFFFFFFFFF AND PUSH20 0xFFFFFFFFFFFFFFFFFFFFFFFFFFFFFFFFFFFFFFFF AND DUP2 MSTORE PUSH1 0x20 ADD SWAP1 DUP2 MSTORE PUSH1 0x20 ADD PUSH1 0x0 KECCAK256 SLOAD LT ISZERO PUSH2 0x432 JUMPI DUP2 PUSH1 0x40 MLOAD PUSH32 0x4A05D2E300000000000000000000000000000000000000000000000000000000 DUP2 MSTORE PUSH1 0x4 ADD PUSH2 0x429 SWAP2 SWAP1 PUSH2 0x74A JUMP JUMPDEST PUSH1 0x40 MLOAD DUP1 SWAP2 SUB SWAP1 REVERT JUMPDEST DUP2 PUSH1 0x1 PUSH1 0x0 DUP6 PUSH20 0xFFFFFFFFFFFFFFFFFFFFFFFFFFFFFFFFFFFFFFFF AND PUSH20 0xFFFFFFFFFFFFFFFFFFFFFFFFFFFFFFFFFFFFFFFF AND DUP2 MSTORE PUSH1 0x20 ADD SWAP1 DUP2 MSTORE PUSH1 0x20 ADD PUSH1 0x0 KECCAK256 PUSH1 0x0 DUP3 DUP3 SLOAD PUSH2 0x481 SWAP2 SWAP1 PUSH2 0x81B JUMP JUMPDEST SWAP3 POP POP DUP2 SWAP1 SSTORE POP PUSH32 0x36A4BFD4CA5A21EA79B08D80A08AFD80BA0DF520D196964D7AB76E4515B97A87 DUP4 DUP4 PUSH1 0x40 MLOAD PUSH2 0x4B9 SWAP3 SWAP2 SWAP1 PUSH2 0x7F2 JUMP JUMPDEST PUSH1 0x40 MLOAD DUP1 SWAP2 SUB SWAP1 LOG1 POP POP POP JUMP JUMPDEST PUSH1 0x0 PUSH1 0x1 PUSH1 0x0 DUP4 PUSH20 0xFFFFFFFFFFFFFFFFFFFFFFFFFFFFFFFFFFFFFFFF AND PUSH20 0xFFFFFFFFFFFFFFFFFFFFFFFFFFFFFFFFFFFFFFFF AND DUP2 MSTORE PUSH1 0x20 ADD SWAP1 DUP2 MSTORE PUSH1 0x20 ADD PUSH1 0x0 KECCAK256 SLOAD SWAP1 POP SWAP2 SWAP1 POP JUMP JUMPDEST PUSH1 0x0 DUP1 SLOAD SWAP1 PUSH2 0x100 EXP SWAP1 DIV PUSH20 0xFFFFFFFFFFFFFFFFFFFFFFFFFFFFFFFFFFFFFFFF AND PUSH20 0xFFFFFFFFFFFFFFFFFFFFFFFFFFFFFFFFFFFFFFFF AND CALLER PUSH20 0xFFFFFFFFFFFFFFFFFFFFFFFFFFFFFFFFFFFFFFFF AND EQ PUSH2 0x594 JUMPI PUSH1 0x40 MLOAD PUSH32 0x344FD58600000000000000000000000000000000000000000000000000000000 DUP2 MSTORE PUSH1 0x4 ADD PUSH1 0x40 MLOAD DUP1 SWAP2 SUB SWAP1 REVERT JUMPDEST DUP1 PUSH1 0x2 PUSH1 0x0 PUSH2 0x100 EXP DUP2 SLOAD DUP2 PUSH20 0xFFFFFFFFFFFFFFFFFFFFFFFFFFFFFFFFFFFFFFFF MUL NOT AND SWAP1 DUP4 PUSH20 0xFFFFFFFFFFFFFFFFFFFFFFFFFFFFFFFFFFFFFFFF AND MUL OR SWAP1 SSTORE POP PUSH32 0x426671FF623FECBEA1FBB6C0522FA9B3775786E2873B2BC6400C5362FE92D78F DUP2 PUSH1 0x40 MLOAD PUSH2 0x604 SWAP2 SWAP1 PUSH2 0x774 JUMP JUMPDEST PUSH1 0x40 MLOAD DUP1 SWAP2 SUB SWAP1 LOG1 POP JUMP JUMPDEST PUSH1 0x2 PUSH1 0x0 SWAP1 SLOAD SWAP1 PUSH2 0x100 EXP SWAP1 DIV PUSH20 0xFFFFFFFFFFFFFFFFFFFFFFFFFFFFFFFFFFFFFFFF AND DUP2 JUMP JUMPDEST PUSH1 0x0 DUP1 REVERT JUMPDEST PUSH1 0x0 PUSH20 0xFFFFFFFFFFFFFFFFFFFFFFFFFFFFFFFFFFFFFFFF DUP3 AND SWAP1 POP SWAP2 SWAP1 POP JUMP JUMPDEST PUSH1 0x0 PUSH2 0x665 DUP3 PUSH2 0x63A JUMP JUMPDEST SWAP1 POP SWAP2 SWAP1 POP JUMP JUMPDEST PUSH2 0x675 DUP2 PUSH2 0x65A JUMP JUMPDEST DUP2 EQ PUSH2 0x680 JUMPI PUSH1 0x0 DUP1 REVERT JUMPDEST POP JUMP JUMPDEST PUSH1 0x0 DUP2 CALLDATALOAD SWAP1 POP PUSH2 0x692 DUP2 PUSH2 0x66C JUMP JUMPDEST SWAP3 SWAP2 POP POP JUMP JUMPDEST PUSH1 0x0 DUP2 SWAP1 POP SWAP2 SWAP1 POP JUMP JUMPDEST PUSH2 0x6AB DUP2 PUSH2 0x698 JUMP JUMPDEST DUP2 EQ PUSH2 0x6B6 JUMPI PUSH1 0x0 DUP1 REVERT JUMPDEST POP JUMP JUMPDEST PUSH1 0x0 DUP2 CALLDATALOAD SWAP1 POP PUSH2 0x6C8 DUP2 PUSH2 0x6A2 JUMP JUMPDEST SWAP3 SWAP2 POP POP JUMP JUMPDEST PUSH1 0x0 DUP1 PUSH1 0x40 DUP4 DUP6 SUB SLT ISZERO PUSH2 0x6E5 JUMPI PUSH2 0x6E4 PUSH2 0x635 JUMP JUMPDEST JUMPDEST PUSH1 0x0 PUSH2 0x6F3 DUP6 DUP3 DUP7 ADD PUSH2 0x683 JUMP JUMPDEST SWAP3 POP POP PUSH1 0x20 PUSH2 0x704 DUP6 DUP3 DUP7 ADD PUSH2 0x6B9 JUMP JUMPDEST SWAP2 POP POP SWAP3 POP SWAP3 SWAP1 POP JUMP JUMPDEST PUSH1 0x0 PUSH1 0x20 DUP3 DUP5 SUB SLT ISZERO PUSH2 0x724 JUMPI PUSH2 0x723 PUSH2 0x635 JUMP JUMPDEST JUMPDEST PUSH1 0x0 PUSH2 0x732 DUP5 DUP3 DUP6 ADD PUSH2 0x683 JUMP JUMPDEST SWAP2 POP POP SWAP3 SWAP2 POP POP JUMP JUMPDEST PUSH2 0x744 DUP2 PUSH2 0x698 JUMP JUMPDEST DUP3 MSTORE POP POP JUMP JUMPDEST PUSH1 0x0 PUSH1 0x20 DUP3 ADD SWAP1 POP PUSH2 0x75F PUSH1 0x0 DUP4 ADD DUP5 PUSH2 0x73B JUMP JUMPDEST SWAP3 SWAP2 POP POP JUMP JUMPDEST PUSH2 0x76E DUP2 PUSH2 0x65A JUMP JUMPDEST DUP3 MSTORE POP POP JUMP JUMPDEST PUSH1 0x0 PUSH1 0x20 DUP3 ADD SWAP1 POP PUSH2 0x789 PUSH1 0x0 DUP4 ADD DUP5 PUSH2 0x765 JUMP JUMPDEST SWAP3 SWAP2 POP POP JUMP JUMPDEST PUSH32 0x4E487B7100000000000000000000000000000000000000000000000000000000 PUSH1 0x0 MSTORE PUSH1 0x11 PUSH1 0x4 MSTORE PUSH1 0x24 PUSH1 0x0 REVERT JUMPDEST PUSH1 0x0 PUSH2 0x7C9 DUP3 PUSH2 0x698 JUMP JUMPDEST SWAP2 POP PUSH2 0x7D4 DUP4 PUSH2 0x698 JUMP JUMPDEST SWAP3 POP DUP3 DUP3 ADD SWAP1 POP DUP1 DUP3 GT ISZERO PUSH2 0x7EC JUMPI PUSH2 0x7EB PUSH2 0x78F JUMP JUMPDEST JUMPDEST SWAP3 SWAP2 POP POP JUMP JUMPDEST PUSH1 0x0 PUSH1 0x40 DUP3 ADD SWAP1 POP PUSH2 0x807 PUSH1 0x0 DUP4 ADD DUP6 PUSH2 0x765 JUMP JUMPDEST PUSH2 0x814 PUSH1 0x20 DUP4 ADD DUP5 PUSH2 0x73B JUMP JUMPDEST SWAP4 SWAP3 POP POP POP JUMP JUMPDEST PUSH1 0x0 PUSH2 0x826 DUP3 PUSH2 0x698 JUMP JUMPDEST SWAP2 POP PUSH2 0x831 DUP4 PUSH2 0x698 JUMP JUMPDEST SWAP3 POP DUP3 DUP3 SUB SWAP1 POP DUP2 DUP2 GT ISZERO PUSH2 0x849 JUMPI PUSH2 0x848 PUSH2 0x78F JUMP JUMPDEST JUMPDEST SWAP3 SWAP2 POP POP JUMP INVALID LOG2 PUSH5 0x6970667358 0x22 SLT KECCAK256 DUP13 ISZERO NUMBER 0x27 0xAB 0xC6 SWAP15 0xB2 LOG0 0xB3 0xCF 0xC2 PUSH30 0x8DF3F5AAE6839A7081F977BA245F02E7B1DA8464736F6C634300081C0033 "
        },
        "methodIdentifiers": {
          "addEnergy(address,uint256)": "275afa82",
          "energySupply(address)": "362701c0",
          "getEnergySupply(address)": "50064e47",
          "reduceEnergy(address,uint256)": "4437fb96",
          "setTradingContract(address)": "5be6f2c7",
          "tradingContract()": "9e4bd2e9"
        }
      }
    }
  }
}