{
  "_format": "hh-sol-artifact-1",
  "contractName": "EnergyStorage",
  "sourceName": "contracts/EnergyStorage.sol",
  "abi": [
    {
      "inputs": [],
      "stateMutability": "nonpayable",
      "type": "constructor"
    },
    {
      "inputs": [
        {
          "internalType": "uint256",
          "name": "kWh",
          "type": "uint256"
        }
      ],
      "name": "EnergySupplyToLow",
      "type": "error"
    },
    {
      "inputs": [
        {
          "internalType": "uint256",
          "name": "kWh",
          "type": "uint256"
        }
      ],
      "name": "ToLowkWh",
      "type": "error"
    },
    {
      "inputs": [],
      "name": "TradingContractNotSet",
      "type": "error"
    },
    {
      "inputs": [],
      "name": "UnauthorizedAccess",
      "type": "error"
    },
    {
      "anonymous": false,
      "inputs": [
        {
          "indexed": false,
          "internalType": "address",
          "name": "user",
          "type": "address"
        },
        {
          "indexed": false,
          "internalType": "uint256",
          "name": "kWh",
          "type": "uint256"
        }
      ],
      "name": "AddedEnergy",
      "type": "event"
    },
    {
      "anonymous": false,
      "inputs": [
        {
          "indexed": false,
          "internalType": "address",
          "name": "user",
          "type": "address"
        },
        {
          "indexed": false,
          "internalType": "uint256",
          "name": "kWh",
          "type": "uint256"
        }
      ],
      "name": "ReducedEnergy",
      "type": "event"
    },
    {
      "anonymous": false,
      "inputs": [
        {
          "indexed": false,
          "internalType": "address",
          "name": "tradingContractAddress",
          "type": "address"
        }
      ],
      "name": "TradingAddressAdded",
      "type": "event"
    },
    {
      "inputs": [
        {
          "internalType": "address",
          "name": "_user",
          "type": "address"
        },
        {
          "internalType": "uint256",
          "name": "_kWh",
          "type": "uint256"
        }
      ],
      "name": "addEnergy",
      "outputs": [],
      "stateMutability": "nonpayable",
      "type": "function"
    },
    {
      "inputs": [
        {
          "internalType": "address",
          "name": "",
          "type": "address"
        }
      ],
      "name": "energySupply",
      "outputs": [
        {
          "internalType": "uint256",
          "name": "",
          "type": "uint256"
        }
      ],
      "stateMutability": "view",
      "type": "function"
    },
    {
      "inputs": [
        {
          "internalType": "address",
          "name": "_user",
          "type": "address"
        }
      ],
      "name": "getEnergySupply",
      "outputs": [
        {
          "internalType": "uint256",
          "name": "",
          "type": "uint256"
        }
      ],
      "stateMutability": "view",
      "type": "function"
    },
    {
      "inputs": [
        {
          "internalType": "address",
          "name": "_user",
          "type": "address"
        },
        {
          "internalType": "uint256",
          "name": "_kWh",
          "type": "uint256"
        }
      ],
      "name": "reduceEnergy",
      "outputs": [],
      "stateMutability": "nonpayable",
      "type": "function"
    },
    {
      "inputs": [
        {
          "internalType": "address",
          "name": "_tradingContract",
          "type": "address"
        }
      ],
      "name": "setTradingContract",
      "outputs": [],
      "stateMutability": "nonpayable",
      "type": "function"
    },
    {
      "inputs": [],
      "name": "tradingContract",
      "outputs": [
        {
          "internalType": "address",
          "name": "",
          "type": "address"
        }
      ],
      "stateMutability": "view",
      "type": "function"
    }
  ],
  "bytecode": "0x6080604052348015600f57600080fd5b50336000806101000a81548173ffffffffffffffffffffffffffffffffffffffff021916908373ffffffffffffffffffffffffffffffffffffffff1602179055506108858061005f6000396000f3fe608060405234801561001057600080fd5b50600436106100625760003560e01c8063275afa8214610067578063362701c0146100835780634437fb96146100b357806350064e47146100cf5780635be6f2c7146100ff5780639e4bd2e91461011b575b600080fd5b610081600480360381019061007c91906106ce565b610139565b005b61009d6004803603810190610098919061070e565b6102d4565b6040516100aa919061074a565b60405180910390f35b6100cd60048036038101906100c891906106ce565b6102ec565b005b6100e960048036038101906100e4919061070e565b6104c6565b6040516100f6919061074a565b60405180910390f35b6101196004803603810190610114919061070e565b61050f565b005b61012361060f565b6040516101309190610774565b60405180910390f35b818073ffffffffffffffffffffffffffffffffffffffff163373ffffffffffffffffffffffffffffffffffffffff16141580156101c45750600260009054906101000a900473ffffffffffffffffffffffffffffffffffffffff1673ffffffffffffffffffffffffffffffffffffffff163373ffffffffffffffffffffffffffffffffffffffff1614155b156101fb576040517f344fd58600000000000000000000000000000000000000000000000000000000815260040160405180910390fd5b6000821161024057816040517fc50b10db000000000000000000000000000000000000000000000000000000008152600401610237919061074a565b60405180910390fd5b81600160008573ffffffffffffffffffffffffffffffffffffffff1673ffffffffffffffffffffffffffffffffffffffff168152602001908152602001600020600082825461028f91906107be565b925050819055507f84c3b0d23559a05b9bd3b5f86f2dcc61800a8747a261a6659bb490b976d6032283836040516102c79291906107f2565b60405180910390a1505050565b60016020528060005260406000206000915090505481565b818073ffffffffffffffffffffffffffffffffffffffff163373ffffffffffffffffffffffffffffffffffffffff16141580156103775750600260009054906101000a900473ffffffffffffffffffffffffffffffffffffffff1673ffffffffffffffffffffffffffffffffffffffff163373ffffffffffffffffffffffffffffffffffffffff1614155b156103ae576040517f344fd58600000000000000000000000000000000000000000000000000000000815260040160405180910390fd5b81600160008573ffffffffffffffffffffffffffffffffffffffff1673ffffffffffffffffffffffffffffffffffffffff16815260200190815260200160002054101561043257816040517f4a05d2e3000000000000000000000000000000000000000000000000000000008152600401610429919061074a565b60405180910390fd5b81600160008573ffffffffffffffffffffffffffffffffffffffff1673ffffffffffffffffffffffffffffffffffffffff1681526020019081526020016000206000828254610481919061081b565b925050819055507f36a4bfd4ca5a21ea79b08d80a08afd80ba0df520d196964d7ab76e4515b97a8783836040516104b99291906107f2565b60405180910390a1505050565b6000600160008373ffffffffffffffffffffffffffffffffffffffff1673ffffffffffffffffffffffffffffffffffffffff168152602001908152602001600020549050919050565b60008054906101000a900473ffffffffffffffffffffffffffffffffffffffff1673ffffffffffffffffffffffffffffffffffffffff163373ffffffffffffffffffffffffffffffffffffffff1614610594576040517f344fd58600000000000000000000000000000000000000000000000000000000815260040160405180910390fd5b80600260006101000a81548173ffffffffffffffffffffffffffffffffffffffff021916908373ffffffffffffffffffffffffffffffffffffffff1602179055507f426671ff623fecbea1fbb6c0522fa9b3775786e2873b2bc6400c5362fe92d78f816040516106049190610774565b60405180910390a150565b600260009054906101000a900473ffffffffffffffffffffffffffffffffffffffff1681565b600080fd5b600073ffffffffffffffffffffffffffffffffffffffff82169050919050565b60006106658261063a565b9050919050565b6106758161065a565b811461068057600080fd5b50565b6000813590506106928161066c565b92915050565b6000819050919050565b6106ab81610698565b81146106b657600080fd5b50565b6000813590506106c8816106a2565b92915050565b600080604083850312156106e5576106e4610635565b5b60006106f385828601610683565b9250506020610704858286016106b9565b9150509250929050565b60006020828403121561072457610723610635565b5b600061073284828501610683565b91505092915050565b61074481610698565b82525050565b600060208201905061075f600083018461073b565b92915050565b61076e8161065a565b82525050565b60006020820190506107896000830184610765565b92915050565b7f4e487b7100000000000000000000000000000000000000000000000000000000600052601160045260246000fd5b60006107c982610698565b91506107d483610698565b92508282019050808211156107ec576107eb61078f565b5b92915050565b60006040820190506108076000830185610765565b610814602083018461073b565b9392505050565b600061082682610698565b915061083183610698565b92508282039050818111156108495761084861078f565b5b9291505056fea26469706673582212208c154327abc69eb2a0b3cfc27d8df3f5aae6839a7081f977ba245f02e7b1da8464736f6c634300081c0033",
  "linkReferences": {},
  "deployedLinkReferences": {}
}