{
  "_format": "hh-sol-artifact-1",
  "contractName": "GridManager",
  "sourceName": "contracts/GridManager.sol",
  "abi": [
    {
      "inputs": [],
      "stateMutability": "nonpayable",
      "type": "constructor"
    },
    {
      "inputs": [
        {
          "internalType": "bytes32",
          "name": "gridId",
          "type": "bytes32"
        }
      ],
      "name": "DuplicateGridId",
      "type": "error"
    },
    {
      "inputs": [
        {
          "internalType": "address",
          "name": "sender",
          "type": "address"
        }
      ],
      "name": "InvalidCall",
      "type": "error"
    },
    {
      "inputs": [
        {
          "internalType": "bytes32",
          "name": "gridId",
          "type": "bytes32"
        }
      ],
      "name": "NoGridFound",
      "type": "error"
    },
    {
      "inputs": [
        {
          "internalType": "address",
          "name": "user",
          "type": "address"
        }
      ],
      "name": "NotAdmin",
      "type": "error"
    },
    {
      "inputs": [
        {
          "internalType": "address",
          "name": "device",
          "type": "address"
        }
      ],
      "name": "NotAuthorized",
      "type": "error"
    },
    {
      "inputs": [
        {
          "internalType": "bytes32",
          "name": "gridId",
          "type": "bytes32"
        },
        {
          "internalType": "address",
          "name": "user",
          "type": "address"
        }
      ],
      "name": "UserAlreadyInGrid",
      "type": "error"
    },
    {
      "anonymous": false,
      "inputs": [
        {
          "indexed": false,
          "internalType": "address",
          "name": "device",
          "type": "address"
        }
      ],
      "name": "AuthorizedNewDevice",
      "type": "event"
    },
    {
      "anonymous": false,
      "inputs": [
        {
          "indexed": false,
          "internalType": "bytes32",
          "name": "gridId",
          "type": "bytes32"
        },
        {
          "indexed": false,
          "internalType": "string",
          "name": "name",
          "type": "string"
        },
        {
          "indexed": false,
          "internalType": "string",
          "name": "countryCode",
          "type": "string"
        },
        {
          "indexed": false,
          "internalType": "string",
          "name": "countryName",
          "type": "string"
        }
      ],
      "name": "NewGridCreated",
      "type": "event"
    },
    {
      "anonymous": false,
      "inputs": [
        {
          "indexed": false,
          "internalType": "address",
          "name": "user",
          "type": "address"
        },
        {
          "indexed": false,
          "internalType": "bytes32",
          "name": "gridId",
          "type": "bytes32"
        }
      ],
      "name": "UserConnectedToGrid",
      "type": "event"
    },
    {
      "stateMutability": "nonpayable",
      "type": "fallback"
    },
    {
      "inputs": [
        {
          "internalType": "address",
          "name": "_device",
          "type": "address"
        }
      ],
      "name": "addAuthorizedDevice",
      "outputs": [],
      "stateMutability": "nonpayable",
      "type": "function"
    },
    {
      "inputs": [
        {
          "internalType": "bytes32",
          "name": "_gridId",
          "type": "bytes32"
        }
      ],
      "name": "addUserToGrid",
      "outputs": [],
      "stateMutability": "nonpayable",
      "type": "function"
    },
    {
      "inputs": [
        {
          "internalType": "address",
          "name": "",
          "type": "address"
        }
      ],
      "name": "authorizedGridStations",
      "outputs": [
        {
          "internalType": "bool",
          "name": "",
          "type": "bool"
        }
      ],
      "stateMutability": "view",
      "type": "function"
    },
    {
      "inputs": [
        {
          "internalType": "string",
          "name": "_name",
          "type": "string"
        },
        {
          "internalType": "string",
          "name": "_countryCode",
          "type": "string"
        },
        {
          "internalType": "string",
          "name": "_countryName",
          "type": "string"
        }
      ],
      "name": "createGrid",
      "outputs": [],
      "stateMutability": "nonpayable",
      "type": "function"
    },
    {
      "inputs": [
        {
          "internalType": "uint256",
          "name": "",
          "type": "uint256"
        }
      ],
      "name": "gridIds",
      "outputs": [
        {
          "internalType": "bytes32",
          "name": "",
          "type": "bytes32"
        }
      ],
      "stateMutability": "view",
      "type": "function"
    },
    {
      "inputs": [
        {
          "internalType": "bytes32",
          "name": "",
          "type": "bytes32"
        }
      ],
      "name": "grids",
      "outputs": [
        {
          "internalType": "bytes32",
          "name": "id",
          "type": "bytes32"
        },
        {
          "internalType": "string",
          "name": "name",
          "type": "string"
        },
        {
          "internalType": "string",
          "name": "countryCode",
          "type": "string"
        },
        {
          "internalType": "string",
          "name": "countryName",
          "type": "string"
        },
        {
          "internalType": "uint256",
          "name": "userCount",
          "type": "uint256"
        },
        {
          "internalType": "address",
          "name": "createdBy",
          "type": "address"
        },
        {
          "internalType": "bool",
          "name": "exists",
          "type": "bool"
        }
      ],
      "stateMutability": "view",
      "type": "function"
    },
    {
      "inputs": [],
      "name": "listGridIds",
      "outputs": [
        {
          "internalType": "bytes32[]",
          "name": "",
          "type": "bytes32[]"
        }
      ],
      "stateMutability": "view",
      "type": "function"
    },
    {
      "inputs": [],
      "name": "listGrids",
      "outputs": [
        {
          "components": [
            {
              "internalType": "bytes32",
              "name": "id",
              "type": "bytes32"
            },
            {
              "internalType": "string",
              "name": "name",
              "type": "string"
            },
            {
              "internalType": "string",
              "name": "countryCode",
              "type": "string"
            },
            {
              "internalType": "string",
              "name": "countryName",
              "type": "string"
            },
            {
              "internalType": "uint256",
              "name": "userCount",
              "type": "uint256"
            },
            {
              "internalType": "address",
              "name": "createdBy",
              "type": "address"
            },
            {
              "internalType": "bool",
              "name": "exists",
              "type": "bool"
            }
          ],
          "internalType": "struct GridManager.Grid[]",
          "name": "",
          "type": "tuple[]"
        }
      ],
      "stateMutability": "view",
      "type": "function"
    },
    {
      "inputs": [
        {
          "internalType": "address",
          "name": "",
          "type": "address"
        }
      ],
      "name": "userInGrid",
      "outputs": [
        {
          "internalType": "bytes32",
          "name": "",
          "type": "bytes32"
        }
      ],
      "stateMutability": "view",
      "type": "function"
    }
  ],
  "bytecode": "0x608060405234801561001057600080fd5b50336000806101000a81548173ffffffffffffffffffffffffffffffffffffffff021916908373ffffffffffffffffffffffffffffffffffffffff1602179055506100603361048560201b60201c565b6101106040518060400160405280600681526020017f477269642d3100000000000000000000000000000000000000000000000000008152506040518060400160405280600281526020017f53450000000000000000000000000000000000000000000000000000000000008152506040518060400160405280600681526020017f53776564656e00000000000000000000000000000000000000000000000000008152506105a760201b60201c565b6101c06040518060400160405280600681526020017f477269642d3100000000000000000000000000000000000000000000000000008152506040518060400160405280600281526020017f444b0000000000000000000000000000000000000000000000000000000000008152506040518060400160405280600781526020017f44656e6d61726b000000000000000000000000000000000000000000000000008152506105a760201b60201c565b6102706040518060400160405280600681526020017f477269642d3100000000000000000000000000000000000000000000000000008152506040518060400160405280600281526020017f4e4f0000000000000000000000000000000000000000000000000000000000008152506040518060400160405280600681526020017f4e6f7277617900000000000000000000000000000000000000000000000000008152506105a760201b60201c565b6103206040518060400160405280600681526020017f477269642d3100000000000000000000000000000000000000000000000000008152506040518060400160405280600281526020017f46490000000000000000000000000000000000000000000000000000000000008152506040518060400160405280600781526020017f46696e6c616e64000000000000000000000000000000000000000000000000008152506105a760201b60201c565b6103d06040518060400160405280600681526020017f477269642d3100000000000000000000000000000000000000000000000000008152506040518060400160405280600281526020017f47420000000000000000000000000000000000000000000000000000000000008152506040518060400160405280600e81526020017f556e69746564204b696e67646f6d0000000000000000000000000000000000008152506105a760201b60201c565b6104806040518060400160405280600681526020017f477269642d3100000000000000000000000000000000000000000000000000008152506040518060400160405280600281526020017f49540000000000000000000000000000000000000000000000000000000000008152506040518060400160405280600581526020017f4974616c790000000000000000000000000000000000000000000000000000008152506105a760201b60201c565b610d45565b60008054906101000a900473ffffffffffffffffffffffffffffffffffffffff1673ffffffffffffffffffffffffffffffffffffffff163373ffffffffffffffffffffffffffffffffffffffff161461051557336040517f17a8424200000000000000000000000000000000000000000000000000000000815260040161050c9190610895565b60405180910390fd5b6001600460008373ffffffffffffffffffffffffffffffffffffffff1673ffffffffffffffffffffffffffffffffffffffff16815260200190815260200160002060006101000a81548160ff0219169083151502179055507fd07e4ab131a5855bdbce0c0c08c830b5549b21a6645c7cb8df178bb72dd43d5b8160405161059c9190610895565b60405180910390a150565b600460003373ffffffffffffffffffffffffffffffffffffffff1673ffffffffffffffffffffffffffffffffffffffff16815260200190815260200160002060009054906101000a900460ff1661063557336040517f4a0bfec100000000000000000000000000000000000000000000000000000000815260040161062c9190610895565b60405180910390fd5b6000838360405160200161064a929190610921565b6040516020818303038152906040528051906020012090506002600082815260200190815260200160002060050160149054906101000a900460ff16156106c857806040517fe4d3a2a90000000000000000000000000000000000000000000000000000000081526004016106bf919061095e565b60405180910390fd5b6040518060e00160405280828152602001858152602001848152602001838152602001600081526020013373ffffffffffffffffffffffffffffffffffffffff16815260200160011515815250600260008381526020019081526020016000206000820151816000015560208201518160010190816107479190610bbe565b50604082015181600201908161075d9190610bbe565b5060608201518160030190816107739190610bbe565b506080820151816004015560a08201518160050160006101000a81548173ffffffffffffffffffffffffffffffffffffffff021916908373ffffffffffffffffffffffffffffffffffffffff16021790555060c08201518160050160146101000a81548160ff02191690831515021790555090505060018190806001815401808255809150506001900390600052602060002001600090919091909150557f66ef63687acd96f6b870c2f28bdb6ab47b2371eda79774beac774b61938d97c9818585856040516108469493929190610ceb565b60405180910390a150505050565b600073ffffffffffffffffffffffffffffffffffffffff82169050919050565b600061087f82610854565b9050919050565b61088f81610874565b82525050565b60006020820190506108aa6000830184610886565b92915050565b600081519050919050565b600081905092915050565b60005b838110156108e45780820151818401526020810190506108c9565b60008484015250505050565b60006108fb826108b0565b61090581856108bb565b93506109158185602086016108c6565b80840191505092915050565b600061092d82856108f0565b915061093982846108f0565b91508190509392505050565b6000819050919050565b61095881610945565b82525050565b6000602082019050610973600083018461094f565b92915050565b7f4e487b7100000000000000000000000000000000000000000000000000000000600052604160045260246000fd5b7f4e487b7100000000000000000000000000000000000000000000000000000000600052602260045260246000fd5b600060028204905060018216806109ef57607f821691505b602082108103610a0257610a016109a8565b5b50919050565b60008190508160005260206000209050919050565b60006020601f8301049050919050565b600082821b905092915050565b600060088302610a6a7fffffffffffffffffffffffffffffffffffffffffffffffffffffffffffffffff82610a2d565b610a748683610a2d565b95508019841693508086168417925050509392505050565b6000819050919050565b6000819050919050565b6000610abb610ab6610ab184610a8c565b610a96565b610a8c565b9050919050565b6000819050919050565b610ad583610aa0565b610ae9610ae182610ac2565b848454610a3a565b825550505050565b600090565b610afe610af1565b610b09818484610acc565b505050565b5b81811015610b2d57610b22600082610af6565b600181019050610b0f565b5050565b601f821115610b7257610b4381610a08565b610b4c84610a1d565b81016020851015610b5b578190505b610b6f610b6785610a1d565b830182610b0e565b50505b505050565b600082821c905092915050565b6000610b9560001984600802610b77565b1980831691505092915050565b6000610bae8383610b84565b9150826002028217905092915050565b610bc7826108b0565b67ffffffffffffffff811115610be057610bdf610979565b5b610bea82546109d7565b610bf5828285610b31565b600060209050601f831160018114610c285760008415610c16578287015190505b610c208582610ba2565b865550610c88565b601f198416610c3686610a08565b60005b82811015610c5e57848901518255600182019150602085019450602081019050610c39565b86831015610c7b5784890151610c77601f891682610b84565b8355505b6001600288020188555050505b505050505050565b600082825260208201905092915050565b6000601f19601f8301169050919050565b6000610cbd826108b0565b610cc78185610c90565b9350610cd78185602086016108c6565b610ce081610ca1565b840191505092915050565b6000608082019050610d00600083018761094f565b8181036020830152610d128186610cb2565b90508181036040830152610d268185610cb2565b90508181036060830152610d3a8184610cb2565b905095945050505050565b611a4580610d546000396000f3fe608060405234801561001057600080fd5b50600436106100975760003560e01c8063a88b82a511610066578063a88b82a514610189578063b3c739f8146101a5578063bbb13df1146101c1578063cbc6a21d146101df578063d0a9aa76146101fb57610098565b8063568d8c51146100d5578063683b27cf146101055780639cd2f8b414610135578063a6c47bea1461016b57610098565b5b336040517f71250a620000000000000000000000000000000000000000000000000000000081526004016100cc9190610ded565b60405180910390fd5b6100ef60048036038101906100ea9190610e48565b61022b565b6040516100fc9190610e90565b60405180910390f35b61011f600480360381019061011a9190610ee1565b61024b565b60405161012c9190610f27565b60405180910390f35b61014f600480360381019061014a9190610f6e565b61026f565b604051610162979695949392919061103a565b60405180910390f35b610173610476565b604051610180919061117c565b60405180910390f35b6101a3600480360381019061019e91906112d3565b6104ce565b005b6101bf60048036038101906101ba9190610e48565b61077b565b005b6101c961089d565b6040516101d6919061155d565b60405180910390f35b6101f960048036038101906101f49190610f6e565b610ba3565b005b61021560048036038101906102109190610e48565b610d3c565b6040516102229190610f27565b60405180910390f35b60046020528060005260406000206000915054906101000a900460ff1681565b6001818154811061025b57600080fd5b906000526020600020016000915090505481565b6002602052806000526040600020600091509050806000015490806001018054610298906115ae565b80601f01602080910402602001604051908101604052809291908181526020018280546102c4906115ae565b80156103115780601f106102e657610100808354040283529160200191610311565b820191906000526020600020905b8154815290600101906020018083116102f457829003601f168201915b505050505090806002018054610326906115ae565b80601f0160208091040260200160405190810160405280929190818152602001828054610352906115ae565b801561039f5780601f106103745761010080835404028352916020019161039f565b820191906000526020600020905b81548152906001019060200180831161038257829003601f168201915b5050505050908060030180546103b4906115ae565b80601f01602080910402602001604051908101604052809291908181526020018280546103e0906115ae565b801561042d5780601f106104025761010080835404028352916020019161042d565b820191906000526020600020905b81548152906001019060200180831161041057829003601f168201915b5050505050908060040154908060050160009054906101000a900473ffffffffffffffffffffffffffffffffffffffff16908060050160149054906101000a900460ff16905087565b606060018054806020026020016040519081016040528092919081815260200182805480156104c457602002820191906000526020600020905b8154815260200190600101908083116104b0575b5050505050905090565b600460003373ffffffffffffffffffffffffffffffffffffffff1673ffffffffffffffffffffffffffffffffffffffff16815260200190815260200160002060009054906101000a900460ff1661055c57336040517f4a0bfec10000000000000000000000000000000000000000000000000000000081526004016105539190610ded565b60405180910390fd5b6000838360405160200161057192919061161b565b6040516020818303038152906040528051906020012090506002600082815260200190815260200160002060050160149054906101000a900460ff16156105ef57806040517fe4d3a2a90000000000000000000000000000000000000000000000000000000081526004016105e69190610f27565b60405180910390fd5b6040518060e00160405280828152602001858152602001848152602001838152602001600081526020013373ffffffffffffffffffffffffffffffffffffffff168152602001600115158152506002600083815260200190815260200160002060008201518160000155602082015181600101908161066e91906117eb565b50604082015181600201908161068491906117eb565b50606082015181600301908161069a91906117eb565b506080820151816004015560a08201518160050160006101000a81548173ffffffffffffffffffffffffffffffffffffffff021916908373ffffffffffffffffffffffffffffffffffffffff16021790555060c08201518160050160146101000a81548160ff02191690831515021790555090505060018190806001815401808255809150506001900390600052602060002001600090919091909150557f66ef63687acd96f6b870c2f28bdb6ab47b2371eda79774beac774b61938d97c98185858560405161076d94939291906118bd565b60405180910390a150505050565b60008054906101000a900473ffffffffffffffffffffffffffffffffffffffff1673ffffffffffffffffffffffffffffffffffffffff163373ffffffffffffffffffffffffffffffffffffffff161461080b57336040517f17a842420000000000000000000000000000000000000000000000000000000081526004016108029190610ded565b60405180910390fd5b6001600460008373ffffffffffffffffffffffffffffffffffffffff1673ffffffffffffffffffffffffffffffffffffffff16815260200190815260200160002060006101000a81548160ff0219169083151502179055507fd07e4ab131a5855bdbce0c0c08c830b5549b21a6645c7cb8df178bb72dd43d5b816040516108929190610ded565b60405180910390a150565b6060600060018054905067ffffffffffffffff8111156108c0576108bf6111a8565b5b6040519080825280602002602001820160405280156108f957816020015b6108e6610d54565b8152602001906001900390816108de5790505b50905060005b600180549050811015610b9b5760006001828154811061092257610921611917565b5b9060005260206000200154905060006002600083815260200190815260200160002090506040518060e00160405280838152602001826001018054610966906115ae565b80601f0160208091040260200160405190810160405280929190818152602001828054610992906115ae565b80156109df5780601f106109b4576101008083540402835291602001916109df565b820191906000526020600020905b8154815290600101906020018083116109c257829003601f168201915b505050505081526020018260020180546109f8906115ae565b80601f0160208091040260200160405190810160405280929190818152602001828054610a24906115ae565b8015610a715780601f10610a4657610100808354040283529160200191610a71565b820191906000526020600020905b815481529060010190602001808311610a5457829003601f168201915b50505050508152602001826003018054610a8a906115ae565b80601f0160208091040260200160405190810160405280929190818152602001828054610ab6906115ae565b8015610b035780601f10610ad857610100808354040283529160200191610b03565b820191906000526020600020905b815481529060010190602001808311610ae657829003601f168201915b50505050508152602001826004015481526020018260050160009054906101000a900473ffffffffffffffffffffffffffffffffffffffff1673ffffffffffffffffffffffffffffffffffffffff1681526020018260050160149054906101000a900460ff161515815250848481518110610b8157610b80611917565b5b6020026020010181905250505080806001019150506108ff565b508091505090565b6002600082815260200190815260200160002060050160149054906101000a900460ff16610c0857806040517f63257bd5000000000000000000000000000000000000000000000000000000008152600401610bff9190610f27565b60405180910390fd5b6000801b600360003373ffffffffffffffffffffffffffffffffffffffff1673ffffffffffffffffffffffffffffffffffffffff1681526020019081526020016000205414610c905780336040517f84e0a5d5000000000000000000000000000000000000000000000000000000008152600401610c87929190611946565b60405180910390fd5b80600360003373ffffffffffffffffffffffffffffffffffffffff1673ffffffffffffffffffffffffffffffffffffffff16815260200190815260200160002081905550600260008281526020019081526020016000206004016000815480929190610cfb9061199e565b91905055507fdc68a876a3a553810c451953fa260367d5e973852e3a18c3e91d2615423409bf3382604051610d319291906119e6565b60405180910390a150565b60036020528060005260406000206000915090505481565b6040518060e001604052806000801916815260200160608152602001606081526020016060815260200160008152602001600073ffffffffffffffffffffffffffffffffffffffff1681526020016000151581525090565b600073ffffffffffffffffffffffffffffffffffffffff82169050919050565b6000610dd782610dac565b9050919050565b610de781610dcc565b82525050565b6000602082019050610e026000830184610dde565b92915050565b6000604051905090565b600080fd5b600080fd5b610e2581610dcc565b8114610e3057600080fd5b50565b600081359050610e4281610e1c565b92915050565b600060208284031215610e5e57610e5d610e12565b5b6000610e6c84828501610e33565b91505092915050565b60008115159050919050565b610e8a81610e75565b82525050565b6000602082019050610ea56000830184610e81565b92915050565b6000819050919050565b610ebe81610eab565b8114610ec957600080fd5b50565b600081359050610edb81610eb5565b92915050565b600060208284031215610ef757610ef6610e12565b5b6000610f0584828501610ecc565b91505092915050565b6000819050919050565b610f2181610f0e565b82525050565b6000602082019050610f3c6000830184610f18565b92915050565b610f4b81610f0e565b8114610f5657600080fd5b50565b600081359050610f6881610f42565b92915050565b600060208284031215610f8457610f83610e12565b5b6000610f9284828501610f59565b91505092915050565b600081519050919050565b600082825260208201905092915050565b60005b83811015610fd5578082015181840152602081019050610fba565b60008484015250505050565b6000601f19601f8301169050919050565b6000610ffd82610f9b565b6110078185610fa6565b9350611017818560208601610fb7565b61102081610fe1565b840191505092915050565b61103481610eab565b82525050565b600060e08201905061104f600083018a610f18565b81810360208301526110618189610ff2565b905081810360408301526110758188610ff2565b905081810360608301526110898187610ff2565b9050611098608083018661102b565b6110a560a0830185610dde565b6110b260c0830184610e81565b98975050505050505050565b600081519050919050565b600082825260208201905092915050565b6000819050602082019050919050565b6110f381610f0e565b82525050565b600061110583836110ea565b60208301905092915050565b6000602082019050919050565b6000611129826110be565b61113381856110c9565b935061113e836110da565b8060005b8381101561116f57815161115688826110f9565b975061116183611111565b925050600181019050611142565b5085935050505092915050565b60006020820190508181036000830152611196818461111e565b905092915050565b600080fd5b600080fd5b7f4e487b7100000000000000000000000000000000000000000000000000000000600052604160045260246000fd5b6111e082610fe1565b810181811067ffffffffffffffff821117156111ff576111fe6111a8565b5b80604052505050565b6000611212610e08565b905061121e82826111d7565b919050565b600067ffffffffffffffff82111561123e5761123d6111a8565b5b61124782610fe1565b9050602081019050919050565b82818337600083830152505050565b600061127661127184611223565b611208565b905082815260208101848484011115611292576112916111a3565b5b61129d848285611254565b509392505050565b600082601f8301126112ba576112b961119e565b5b81356112ca848260208601611263565b91505092915050565b6000806000606084860312156112ec576112eb610e12565b5b600084013567ffffffffffffffff81111561130a57611309610e17565b5b611316868287016112a5565b935050602084013567ffffffffffffffff81111561133757611336610e17565b5b611343868287016112a5565b925050604084013567ffffffffffffffff81111561136457611363610e17565b5b611370868287016112a5565b9150509250925092565b600081519050919050565b600082825260208201905092915050565b6000819050602082019050919050565b600082825260208201905092915050565b60006113c282610f9b565b6113cc81856113a6565b93506113dc818560208601610fb7565b6113e581610fe1565b840191505092915050565b6113f981610eab565b82525050565b61140881610dcc565b82525050565b61141781610e75565b82525050565b600060e08301600083015161143560008601826110ea565b506020830151848203602086015261144d82826113b7565b9150506040830151848203604086015261146782826113b7565b9150506060830151848203606086015261148182826113b7565b915050608083015161149660808601826113f0565b5060a08301516114a960a08601826113ff565b5060c08301516114bc60c086018261140e565b508091505092915050565b60006114d3838361141d565b905092915050565b6000602082019050919050565b60006114f38261137a565b6114fd8185611385565b93508360208202850161150f85611396565b8060005b8581101561154b578484038952815161152c85826114c7565b9450611537836114db565b925060208a01995050600181019050611513565b50829750879550505050505092915050565b6000602082019050818103600083015261157781846114e8565b905092915050565b7f4e487b7100000000000000000000000000000000000000000000000000000000600052602260045260246000fd5b600060028204905060018216806115c657607f821691505b6020821081036115d9576115d861157f565b5b50919050565b600081905092915050565b60006115f582610f9b565b6115ff81856115df565b935061160f818560208601610fb7565b80840191505092915050565b600061162782856115ea565b915061163382846115ea565b91508190509392505050565b60008190508160005260206000209050919050565b60006020601f8301049050919050565b600082821b905092915050565b6000600883026116a17fffffffffffffffffffffffffffffffffffffffffffffffffffffffffffffffff82611664565b6116ab8683611664565b95508019841693508086168417925050509392505050565b6000819050919050565b60006116e86116e36116de84610eab565b6116c3565b610eab565b9050919050565b6000819050919050565b611702836116cd565b61171661170e826116ef565b848454611671565b825550505050565b600090565b61172b61171e565b6117368184846116f9565b505050565b5b8181101561175a5761174f600082611723565b60018101905061173c565b5050565b601f82111561179f576117708161163f565b61177984611654565b81016020851015611788578190505b61179c61179485611654565b83018261173b565b50505b505050565b600082821c905092915050565b60006117c2600019846008026117a4565b1980831691505092915050565b60006117db83836117b1565b9150826002028217905092915050565b6117f482610f9b565b67ffffffffffffffff81111561180d5761180c6111a8565b5b61181782546115ae565b61182282828561175e565b600060209050601f8311600181146118555760008415611843578287015190505b61184d85826117cf565b8655506118b5565b601f1984166118638661163f565b60005b8281101561188b57848901518255600182019150602085019450602081019050611866565b868310156118a857848901516118a4601f8916826117b1565b8355505b6001600288020188555050505b505050505050565b60006080820190506118d26000830187610f18565b81810360208301526118e48186610ff2565b905081810360408301526118f88185610ff2565b9050818103606083015261190c8184610ff2565b905095945050505050565b7f4e487b7100000000000000000000000000000000000000000000000000000000600052603260045260246000fd5b600060408201905061195b6000830185610f18565b6119686020830184610dde565b9392505050565b7f4e487b7100000000000000000000000000000000000000000000000000000000600052601160045260246000fd5b60006119a982610eab565b91507fffffffffffffffffffffffffffffffffffffffffffffffffffffffffffffffff82036119db576119da61196f565b5b600182019050919050565b60006040820190506119fb6000830185610dde565b611a086020830184610f18565b939250505056fea26469706673582212205e382e93ba433d43a59eddb4721b3c7dcb7948a06f689272844b2479ca204a2c64736f6c634300081c0033",
  "linkReferences": {},
  "deployedLinkReferences": {}
}