{
  "_format": "hh-sol-artifact-1",
  "contractName": "Trading",
  "sourceName": "contracts/Trading.sol",
  "abi": [
    {
      "inputs": [],
      "stateMutability": "nonpayable",
      "type": "constructor"
    },
    {
      "inputs": [],
      "name": "DirectPaymentsNotAllowed",
      "type": "error"
    },
    {
      "inputs": [],
      "name": "FallbackNotSupported",
      "type": "error"
    },
    {
      "inputs": [
        {
          "internalType": "uint256",
          "name": "sent",
          "type": "uint256"
        },
        {
          "internalType": "uint256",
          "name": "required",
          "type": "uint256"
        }
      ],
      "name": "IncorrectPayment",
      "type": "error"
    },
    {
      "inputs": [
        {
          "internalType": "uint256",
          "name": "available",
          "type": "uint256"
        },
        {
          "internalType": "uint256",
          "name": "required",
          "type": "uint256"
        }
      ],
      "name": "InsufficientEnergy",
      "type": "error"
    },
    {
      "inputs": [],
      "name": "ReentrancyGuardReentrantCall",
      "type": "error"
    },
    {
      "inputs": [],
      "name": "SourceTypeAlreadyExists",
      "type": "error"
    },
    {
      "inputs": [
        {
          "internalType": "uint256",
          "name": "price",
          "type": "uint256"
        }
      ],
      "name": "ToLowPrice",
      "type": "error"
    },
    {
      "inputs": [
        {
          "internalType": "uint256",
          "name": "kWh",
          "type": "uint256"
        }
      ],
      "name": "ToLowkWh",
      "type": "error"
    },
    {
      "inputs": [],
      "name": "TradeIsInactive",
      "type": "error"
    },
    {
      "inputs": [],
      "name": "TradeNotFound",
      "type": "error"
    },
    {
      "inputs": [],
      "name": "TransferFailed",
      "type": "error"
    },
    {
      "inputs": [],
      "name": "UnauthorizedAccess",
      "type": "error"
    },
    {
      "anonymous": false,
      "inputs": [
        {
          "indexed": true,
          "internalType": "address",
          "name": "energyStorageAddress",
          "type": "address"
        }
      ],
      "name": "EnergyStorageContractSet",
      "type": "event"
    },
    {
      "anonymous": false,
      "inputs": [
        {
          "indexed": true,
          "internalType": "uint256",
          "name": "id",
          "type": "uint256"
        },
        {
          "indexed": false,
          "internalType": "string",
          "name": "name",
          "type": "string"
        },
        {
          "indexed": false,
          "internalType": "string",
          "name": "description",
          "type": "string"
        }
      ],
      "name": "SourceTypeAdded",
      "type": "event"
    },
    {
      "anonymous": false,
      "inputs": [
        {
          "indexed": false,
          "internalType": "bytes32",
          "name": "tradeId",
          "type": "bytes32"
        },
        {
          "indexed": false,
          "internalType": "bytes32",
          "name": "gridId",
          "type": "bytes32"
        },
        {
          "indexed": false,
          "internalType": "address",
          "name": "sender",
          "type": "address"
        },
        {
          "indexed": false,
          "internalType": "uint256",
          "name": "tradekWh",
          "type": "uint256"
        },
        {
          "indexed": false,
          "internalType": "uint256",
          "name": "totalPrice",
          "type": "uint256"
        }
      ],
      "name": "TradeBought",
      "type": "event"
    },
    {
      "anonymous": false,
      "inputs": [
        {
          "indexed": false,
          "internalType": "bytes32",
          "name": "tradeId",
          "type": "bytes32"
        },
        {
          "indexed": false,
          "internalType": "bytes32",
          "name": "gridId",
          "type": "bytes32"
        }
      ],
      "name": "TradeCancelled",
      "type": "event"
    },
    {
      "anonymous": false,
      "inputs": [
        {
          "indexed": true,
          "internalType": "bytes32",
          "name": "tradeId",
          "type": "bytes32"
        },
        {
          "indexed": true,
          "internalType": "address",
          "name": "seller",
          "type": "address"
        },
        {
          "indexed": false,
          "internalType": "bytes32",
          "name": "gridId",
          "type": "bytes32"
        },
        {
          "indexed": false,
          "internalType": "uint256",
          "name": "kWh",
          "type": "uint256"
        },
        {
          "indexed": false,
          "internalType": "uint256",
          "name": "pricePerkWh",
          "type": "uint256"
        },
        {
          "indexed": false,
          "internalType": "uint256[]",
          "name": "sourceTypeIds",
          "type": "uint256[]"
        }
      ],
      "name": "TradeCreated",
      "type": "event"
    },
    {
      "stateMutability": "nonpayable",
      "type": "fallback"
    },
    {
      "inputs": [
        {
          "internalType": "uint256",
          "name": "_id",
          "type": "uint256"
        },
        {
          "internalType": "string",
          "name": "_name",
          "type": "string"
        },
        {
          "internalType": "string",
          "name": "_description",
          "type": "string"
        }
      ],
      "name": "addSourceType",
      "outputs": [],
      "stateMutability": "nonpayable",
      "type": "function"
    },
    {
      "inputs": [
        {
          "internalType": "bytes32",
          "name": "_gridId",
          "type": "bytes32"
        },
        {
          "internalType": "bytes32",
          "name": "_tradeId",
          "type": "bytes32"
        }
      ],
      "name": "buyTrade",
      "outputs": [],
      "stateMutability": "payable",
      "type": "function"
    },
    {
      "inputs": [
        {
          "internalType": "bytes32",
          "name": "_gridId",
          "type": "bytes32"
        },
        {
          "internalType": "bytes32",
          "name": "_tradeId",
          "type": "bytes32"
        }
      ],
      "name": "cancelTrade",
      "outputs": [],
      "stateMutability": "nonpayable",
      "type": "function"
    },
    {
      "inputs": [
        {
          "internalType": "bytes32",
          "name": "_gridId",
          "type": "bytes32"
        },
        {
          "internalType": "uint256",
          "name": "_kWh",
          "type": "uint256"
        },
        {
          "internalType": "uint256",
          "name": "_pricePerkWh",
          "type": "uint256"
        },
        {
          "internalType": "uint256[]",
          "name": "_sourceTypeIds",
          "type": "uint256[]"
        }
      ],
      "name": "createTrade",
      "outputs": [],
      "stateMutability": "nonpayable",
      "type": "function"
    },
    {
      "inputs": [],
      "name": "energyStorage",
      "outputs": [
        {
          "internalType": "contract EnergyStorage",
          "name": "",
          "type": "address"
        }
      ],
      "stateMutability": "view",
      "type": "function"
    },
    {
      "inputs": [
        {
          "internalType": "bytes32",
          "name": "_gridId",
          "type": "bytes32"
        }
      ],
      "name": "getActiveTrades",
      "outputs": [
        {
          "components": [
            {
              "internalType": "bytes32",
              "name": "gridId",
              "type": "bytes32"
            },
            {
              "internalType": "uint256",
              "name": "kWh",
              "type": "uint256"
            },
            {
              "internalType": "uint256",
              "name": "pricePerkWh",
              "type": "uint256"
            },
            {
              "internalType": "bytes32",
              "name": "tradeId",
              "type": "bytes32"
            },
            {
              "internalType": "address",
              "name": "seller",
              "type": "address"
            },
            {
              "internalType": "bool",
              "name": "isActive",
              "type": "bool"
            },
            {
              "internalType": "uint256[]",
              "name": "sourceTypeIds",
              "type": "uint256[]"
            }
          ],
          "internalType": "struct Trading.Trade[]",
          "name": "",
          "type": "tuple[]"
        }
      ],
      "stateMutability": "view",
      "type": "function"
    },
    {
      "inputs": [
        {
          "internalType": "uint256",
          "name": "_sourceTypeId",
          "type": "uint256"
        }
      ],
      "name": "getSourceType",
      "outputs": [
        {
          "components": [
            {
              "internalType": "string",
              "name": "name",
              "type": "string"
            },
            {
              "internalType": "string",
              "name": "description",
              "type": "string"
            }
          ],
          "internalType": "struct Trading.SourceType",
          "name": "",
          "type": "tuple"
        }
      ],
      "stateMutability": "view",
      "type": "function"
    },
    {
      "inputs": [
        {
          "internalType": "address",
          "name": "_energyStorageContract",
          "type": "address"
        }
      ],
      "name": "setEnergyStorageContract",
      "outputs": [],
      "stateMutability": "nonpayable",
      "type": "function"
    },
    {
      "inputs": [
        {
          "internalType": "uint256",
          "name": "",
          "type": "uint256"
        }
      ],
      "name": "sourceTypes",
      "outputs": [
        {
          "internalType": "string",
          "name": "name",
          "type": "string"
        },
        {
          "internalType": "string",
          "name": "description",
          "type": "string"
        }
      ],
      "stateMutability": "view",
      "type": "function"
    },
    {
      "inputs": [
        {
          "internalType": "bytes32",
          "name": "",
          "type": "bytes32"
        },
        {
          "internalType": "bytes32",
          "name": "",
          "type": "bytes32"
        }
      ],
      "name": "tradeIndices",
      "outputs": [
        {
          "internalType": "uint256",
          "name": "",
          "type": "uint256"
        }
      ],
      "stateMutability": "view",
      "type": "function"
    },
    {
      "stateMutability": "payable",
      "type": "receive"
    }
  ],
  "bytecode": "0x608060405234801561001057600080fd5b50600160008190555033600160006101000a81548173ffffffffffffffffffffffffffffffffffffffff021916908373ffffffffffffffffffffffffffffffffffffffff1602179055506100d660016040518060400160405280600581526020017f536f6c61720000000000000000000000000000000000000000000000000000008152506040518060400160405280601e81526020017f456e65726779206861727665737465642066726f6d2073756e6c6967687400008152506101b660201b60201c565b61015260026040518060400160405280600481526020017f57696e64000000000000000000000000000000000000000000000000000000008152506040518060400160405280602081526020017f456e657267792067656e6572617465642066726f6d2077696e6420706f7765728152506101b660201b60201c565b6101b160036040518060400160405280600581526020017f57617465720000000000000000000000000000000000000000000000000000008152506040518060600160405280602a8152602001612d6a602a91396101b660201b60201c565b61070d565b600160009054906101000a900473ffffffffffffffffffffffffffffffffffffffff1673ffffffffffffffffffffffffffffffffffffffff163373ffffffffffffffffffffffffffffffffffffffff161461023d576040517f344fd58600000000000000000000000000000000000000000000000000000000815260040160405180910390fd5b60006004600085815260200190815260200160002060000180546102609061035e565b905014610299576040517f5ec858b100000000000000000000000000000000000000000000000000000000815260040160405180910390fd5b6040518060400160405280838152602001828152506004600085815260200190815260200160002060008201518160000190816102d6919061057f565b5060208201518160010190816102ec919061057f565b50905050827f72e45489867e9b3ba96a6646a3abff3f3849ba0a1d01e0b481e240c7be89685183836040516103229291906106d6565b60405180910390a2505050565b7f4e487b7100000000000000000000000000000000000000000000000000000000600052602260045260246000fd5b6000600282049050600182168061037657607f821691505b6020821081036103895761038861032f565b5b50919050565b600081519050919050565b7f4e487b7100000000000000000000000000000000000000000000000000000000600052604160045260246000fd5b60008190508160005260206000209050919050565b60006020601f8301049050919050565b600082821b905092915050565b60006008830261042b7fffffffffffffffffffffffffffffffffffffffffffffffffffffffffffffffff826103ee565b61043586836103ee565b95508019841693508086168417925050509392505050565b6000819050919050565b6000819050919050565b600061047c6104776104728461044d565b610457565b61044d565b9050919050565b6000819050919050565b61049683610461565b6104aa6104a282610483565b8484546103fb565b825550505050565b600090565b6104bf6104b2565b6104ca81848461048d565b505050565b5b818110156104ee576104e36000826104b7565b6001810190506104d0565b5050565b601f82111561053357610504816103c9565b61050d846103de565b8101602085101561051c578190505b610530610528856103de565b8301826104cf565b50505b505050565b600082821c905092915050565b600061055660001984600802610538565b1980831691505092915050565b600061056f8383610545565b9150826002028217905092915050565b6105888261038f565b67ffffffffffffffff8111156105a1576105a061039a565b5b6105ab825461035e565b6105b68282856104f2565b600060209050601f8311600181146105e957600084156105d7578287015190505b6105e18582610563565b865550610649565b601f1984166105f7866103c9565b60005b8281101561061f578489015182556001820191506020850194506020810190506105fa565b8683101561063c5784890151610638601f891682610545565b8355505b6001600288020188555050505b505050505050565b600082825260208201905092915050565b60005b83811015610680578082015181840152602081019050610665565b60008484015250505050565b6000601f19601f8301169050919050565b60006106a88261038f565b6106b28185610651565b93506106c2818560208601610662565b6106cb8161068c565b840191505092915050565b600060408201905081810360008301526106f0818561069d565b90508181036020830152610704818461069d565b90509392505050565b61264e8061071c6000396000f3fe6080604052600436106100955760003560e01c8063cd6fbe5d11610059578063cd6fbe5d146101f6578063db15782d14610233578063dc5ef3a51461025c578063e76236fe14610285578063eeaa8057146102ae576100cc565b806308efc56d1461010b5780630dd9b70d146101485780636dfae8b71461017357806375c765a11461019c5780638109cb1e146101b8576100cc565b366100cc576040517f02a2c31c00000000000000000000000000000000000000000000000000000000815260040160405180910390fd5b3480156100d857600080fd5b506040517f97e8123700000000000000000000000000000000000000000000000000000000815260040160405180910390fd5b34801561011757600080fd5b50610132600480360381019061012d9190611652565b6102eb565b60405161013f9190611910565b60405180910390f35b34801561015457600080fd5b5061015d610539565b60405161016a9190611991565b60405180910390f35b34801561017f57600080fd5b5061019a60048036038101906101959190611a3d565b61055f565b005b6101b660048036038101906101b19190611ac5565b6109c2565b005b3480156101c457600080fd5b506101df60048036038101906101da9190611b05565b610c7f565b6040516101ed929190611bc2565b60405180910390f35b34801561020257600080fd5b5061021d60048036038101906102189190611ac5565b610db3565b60405161022a9190611c08565b60405180910390f35b34801561023f57600080fd5b5061025a60048036038101906102559190611ac5565b610dd8565b005b34801561026857600080fd5b50610283600480360381019061027e9190611c4f565b610fdd565b005b34801561029157600080fd5b506102ac60048036038101906102a79190611dac565b6110eb565b005b3480156102ba57600080fd5b506102d560048036038101906102d09190611b05565b611264565b6040516102e29190611ec5565b60405180910390f35b6060600060026000848152602001908152602001600020805480602002602001604051908101604052809291908181526020016000905b8282101561044557838290600052602060002090600602016040518060e0016040529081600082015481526020016001820154815260200160028201548152602001600382015481526020016004820160009054906101000a900473ffffffffffffffffffffffffffffffffffffffff1673ffffffffffffffffffffffffffffffffffffffff1673ffffffffffffffffffffffffffffffffffffffff1681526020016004820160149054906101000a900460ff161515151581526020016005820180548060200260200160405190810160405280929190818152602001828054801561042d57602002820191906000526020600020905b815481526020019060010190808311610419575b50505050508152505081526020019060010190610322565b5050505090506000815167ffffffffffffffff81111561046857610467611c81565b5b6040519080825280602002602001820160405280156104a157816020015b61048e611529565b8152602001906001900390816104865790505b5090506000805b835181101561052a578381815181106104c4576104c3611ee7565b5b602002602001015160a001511561051d578381815181106104e8576104e7611ee7565b5b602002602001015183838151811061050357610502611ee7565b5b6020026020010181905250818061051990611f45565b9250505b80806001019150506104a8565b50808252819350505050919050565b600560009054906101000a900473ffffffffffffffffffffffffffffffffffffffff1681565b66038d7ea4c680008310156105ab57826040517f40fe0ecd0000000000000000000000000000000000000000000000000000000081526004016105a29190611c08565b60405180910390fd5b60038410156105f157836040517fc50b10db0000000000000000000000000000000000000000000000000000000081526004016105e89190611c08565b60405180910390fd5b6000600560009054906101000a900473ffffffffffffffffffffffffffffffffffffffff1673ffffffffffffffffffffffffffffffffffffffff166350064e47336040518263ffffffff1660e01b815260040161064e9190611f9c565b602060405180830381865afa15801561066b573d6000803e3d6000fd5b505050506040513d601f19601f8201168201806040525081019061068f9190611fcc565b9050848110156106d85780856040517f119d72970000000000000000000000000000000000000000000000000000000081526004016106cf929190611ff9565b60405180910390fd5b600560009054906101000a900473ffffffffffffffffffffffffffffffffffffffff1673ffffffffffffffffffffffffffffffffffffffff16634437fb9633876040518363ffffffff1660e01b8152600401610735929190612022565b600060405180830381600087803b15801561074f57600080fd5b505af1158015610763573d6000803e3d6000fd5b50505050600033428888886040516020016107829594939291906120d5565b60405160208183030381529060405280519060200120905060006040518060e001604052808981526020018881526020018781526020018381526020013373ffffffffffffffffffffffffffffffffffffffff168152602001600115158152602001868680806020026020016040519081016040528093929190818152602001838360200280828437600081840152601f19601f820116905080830192505050505050508152509050600260008981526020019081526020016000208190806001815401808255809150506001900390600052602060002090600602016000909190919091506000820151816000015560208201518160010155604082015181600201556060820151816003015560808201518160040160006101000a81548173ffffffffffffffffffffffffffffffffffffffff021916908373ffffffffffffffffffffffffffffffffffffffff16021790555060a08201518160040160146101000a81548160ff02191690831515021790555060c0820151816005019080519060200190610913929190611584565b5050506001600260008a8152602001908152602001600020805490506109399190612134565b600360008a81526020019081526020016000206000848152602001908152602001600020819055503373ffffffffffffffffffffffffffffffffffffffff16827f7505d0db361fc34c2d16d90fe71371167be3ca4ffb074d8049c06009bb2aae798a8a8a8a8a6040516109b09594939291906121f2565b60405180910390a35050505050505050565b6109ca6113b5565b60006109d683836113fb565b905060006002600085815260200190815260200160002082815481106109ff576109fe611ee7565b5b906000526020600020906006020190508060040160149054906101000a900460ff16610a57576040517f4f04792200000000000000000000000000000000000000000000000000000000815260040160405180910390fd5b600081600201548260010154610a6d9190612240565b9050803414610ab55734816040517f0d35e921000000000000000000000000000000000000000000000000000000008152600401610aac929190611ff9565b60405180910390fd5b60008260040160009054906101000a900473ffffffffffffffffffffffffffffffffffffffff1673ffffffffffffffffffffffffffffffffffffffff1682604051610aff906122b3565b60006040518083038185875af1925050503d8060008114610b3c576040519150601f19603f3d011682016040523d82523d6000602084013e610b41565b606091505b5050905080610b7c576040517f90b8ec1800000000000000000000000000000000000000000000000000000000815260040160405180910390fd5b600560009054906101000a900473ffffffffffffffffffffffffffffffffffffffff1673ffffffffffffffffffffffffffffffffffffffff1663275afa823385600101546040518363ffffffff1660e01b8152600401610bdd929190612022565b600060405180830381600087803b158015610bf757600080fd5b505af1158015610c0b573d6000803e3d6000fd5b5050505060008360040160146101000a81548160ff0219169083151502179055507f8efd937d3dd1ce5c8518498cdca191ca57f929374e379d98ea4374f522d400df858733866001015486604051610c679594939291906122c8565b60405180910390a150505050610c7b61151f565b5050565b6004602052806000526040600020600091509050806000018054610ca29061234a565b80601f0160208091040260200160405190810160405280929190818152602001828054610cce9061234a565b8015610d1b5780601f10610cf057610100808354040283529160200191610d1b565b820191906000526020600020905b815481529060010190602001808311610cfe57829003601f168201915b505050505090806001018054610d309061234a565b80601f0160208091040260200160405190810160405280929190818152602001828054610d5c9061234a565b8015610da95780601f10610d7e57610100808354040283529160200191610da9565b820191906000526020600020905b815481529060010190602001808311610d8c57829003601f168201915b5050505050905082565b6003602052816000526040600020602052806000526040600020600091509150505481565b6000610de483836113fb565b90506000600260008581526020019081526020016000208281548110610e0d57610e0c611ee7565b5b906000526020600020906006020190503373ffffffffffffffffffffffffffffffffffffffff168160040160009054906101000a900473ffffffffffffffffffffffffffffffffffffffff1673ffffffffffffffffffffffffffffffffffffffff1614610ea6576040517f344fd58600000000000000000000000000000000000000000000000000000000815260040160405180910390fd5b8060040160149054906101000a900460ff16610eee576040517f4f04792200000000000000000000000000000000000000000000000000000000815260040160405180910390fd5b600560009054906101000a900473ffffffffffffffffffffffffffffffffffffffff1673ffffffffffffffffffffffffffffffffffffffff1663275afa823383600101546040518363ffffffff1660e01b8152600401610f4f929190612022565b600060405180830381600087803b158015610f6957600080fd5b505af1158015610f7d573d6000803e3d6000fd5b5050505060008160040160146101000a81548160ff0219169083151502179055507f7b7f6604f6316644a2b39432e5cede833eacea0808ce8ecf68fa64a79f9a0b078385604051610fcf92919061237b565b60405180910390a150505050565b600160009054906101000a900473ffffffffffffffffffffffffffffffffffffffff1673ffffffffffffffffffffffffffffffffffffffff163373ffffffffffffffffffffffffffffffffffffffff1614611064576040517f344fd58600000000000000000000000000000000000000000000000000000000815260040160405180910390fd5b80600560006101000a81548173ffffffffffffffffffffffffffffffffffffffff021916908373ffffffffffffffffffffffffffffffffffffffff1602179055508073ffffffffffffffffffffffffffffffffffffffff167f8ef32b7dde06b27fc4073c865661a0df7699f11e3c0c9680d4d1ad3f5ec9d4e860405160405180910390a250565b600160009054906101000a900473ffffffffffffffffffffffffffffffffffffffff1673ffffffffffffffffffffffffffffffffffffffff163373ffffffffffffffffffffffffffffffffffffffff1614611172576040517f344fd58600000000000000000000000000000000000000000000000000000000815260040160405180910390fd5b60006004600085815260200190815260200160002060000180546111959061234a565b9050146111ce576040517f5ec858b100000000000000000000000000000000000000000000000000000000815260040160405180910390fd5b60405180604001604052808381526020018281525060046000858152602001908152602001600020600082015181600001908161120b9190612546565b5060208201518160010190816112219190612546565b50905050827f72e45489867e9b3ba96a6646a3abff3f3849ba0a1d01e0b481e240c7be8968518383604051611257929190611bc2565b60405180910390a2505050565b61126c6115d1565b6004600083815260200190815260200160002060405180604001604052908160008201805461129a9061234a565b80601f01602080910402602001604051908101604052809291908181526020018280546112c69061234a565b80156113135780601f106112e857610100808354040283529160200191611313565b820191906000526020600020905b8154815290600101906020018083116112f657829003601f168201915b5050505050815260200160018201805461132c9061234a565b80601f01602080910402602001604051908101604052809291908181526020018280546113589061234a565b80156113a55780601f1061137a576101008083540402835291602001916113a5565b820191906000526020600020905b81548152906001019060200180831161138857829003601f168201915b5050505050815250509050919050565b6002600054036113f1576040517f3ee5aeb500000000000000000000000000000000000000000000000000000000815260040160405180910390fd5b6002600081905550565b60008060036000858152602001908152602001600020600084815260200190815260200160002054148015611446575060006002600085815260200190815260200160002080549050145b1561147d576040517f630bae0400000000000000000000000000000000000000000000000000000000815260040160405180910390fd5b6000600360008581526020019081526020016000206000848152602001908152602001600020549050826002600086815260200190815260200160002082815481106114cc576114cb611ee7565b5b90600052602060002090600602016003015414611515576040517f630bae0400000000000000000000000000000000000000000000000000000000815260040160405180910390fd5b8091505092915050565b6001600081905550565b6040518060e0016040528060008019168152602001600081526020016000815260200160008019168152602001600073ffffffffffffffffffffffffffffffffffffffff168152602001600015158152602001606081525090565b8280548282559060005260206000209081019282156115c0579160200282015b828111156115bf5782518255916020019190600101906115a4565b5b5090506115cd91906115eb565b5090565b604051806040016040528060608152602001606081525090565b5b808211156116045760008160009055506001016115ec565b5090565b6000604051905090565b600080fd5b600080fd5b6000819050919050565b61162f8161161c565b811461163a57600080fd5b50565b60008135905061164c81611626565b92915050565b60006020828403121561166857611667611612565b5b60006116768482850161163d565b91505092915050565b600081519050919050565b600082825260208201905092915050565b6000819050602082019050919050565b6116b48161161c565b82525050565b6000819050919050565b6116cd816116ba565b82525050565b600073ffffffffffffffffffffffffffffffffffffffff82169050919050565b60006116fe826116d3565b9050919050565b61170e816116f3565b82525050565b60008115159050919050565b61172981611714565b82525050565b600081519050919050565b600082825260208201905092915050565b6000819050602082019050919050565b600061176783836116c4565b60208301905092915050565b6000602082019050919050565b600061178b8261172f565b611795818561173a565b93506117a08361174b565b8060005b838110156117d15781516117b8888261175b565b97506117c383611773565b9250506001810190506117a4565b5085935050505092915050565b600060e0830160008301516117f660008601826116ab565b50602083015161180960208601826116c4565b50604083015161181c60408601826116c4565b50606083015161182f60608601826116ab565b5060808301516118426080860182611705565b5060a083015161185560a0860182611720565b5060c083015184820360c086015261186d8282611780565b9150508091505092915050565b600061188683836117de565b905092915050565b6000602082019050919050565b60006118a68261167f565b6118b0818561168a565b9350836020820285016118c28561169b565b8060005b858110156118fe57848403895281516118df858261187a565b94506118ea8361188e565b925060208a019950506001810190506118c6565b50829750879550505050505092915050565b6000602082019050818103600083015261192a818461189b565b905092915050565b6000819050919050565b600061195761195261194d846116d3565b611932565b6116d3565b9050919050565b60006119698261193c565b9050919050565b600061197b8261195e565b9050919050565b61198b81611970565b82525050565b60006020820190506119a66000830184611982565b92915050565b6119b5816116ba565b81146119c057600080fd5b50565b6000813590506119d2816119ac565b92915050565b600080fd5b600080fd5b600080fd5b60008083601f8401126119fd576119fc6119d8565b5b8235905067ffffffffffffffff811115611a1a57611a196119dd565b5b602083019150836020820283011115611a3657611a356119e2565b5b9250929050565b600080600080600060808688031215611a5957611a58611612565b5b6000611a678882890161163d565b9550506020611a78888289016119c3565b9450506040611a89888289016119c3565b935050606086013567ffffffffffffffff811115611aaa57611aa9611617565b5b611ab6888289016119e7565b92509250509295509295909350565b60008060408385031215611adc57611adb611612565b5b6000611aea8582860161163d565b9250506020611afb8582860161163d565b9150509250929050565b600060208284031215611b1b57611b1a611612565b5b6000611b29848285016119c3565b91505092915050565b600081519050919050565b600082825260208201905092915050565b60005b83811015611b6c578082015181840152602081019050611b51565b60008484015250505050565b6000601f19601f8301169050919050565b6000611b9482611b32565b611b9e8185611b3d565b9350611bae818560208601611b4e565b611bb781611b78565b840191505092915050565b60006040820190508181036000830152611bdc8185611b89565b90508181036020830152611bf08184611b89565b90509392505050565b611c02816116ba565b82525050565b6000602082019050611c1d6000830184611bf9565b92915050565b611c2c816116f3565b8114611c3757600080fd5b50565b600081359050611c4981611c23565b92915050565b600060208284031215611c6557611c64611612565b5b6000611c7384828501611c3a565b91505092915050565b600080fd5b7f4e487b7100000000000000000000000000000000000000000000000000000000600052604160045260246000fd5b611cb982611b78565b810181811067ffffffffffffffff82111715611cd857611cd7611c81565b5b80604052505050565b6000611ceb611608565b9050611cf78282611cb0565b919050565b600067ffffffffffffffff821115611d1757611d16611c81565b5b611d2082611b78565b9050602081019050919050565b82818337600083830152505050565b6000611d4f611d4a84611cfc565b611ce1565b905082815260208101848484011115611d6b57611d6a611c7c565b5b611d76848285611d2d565b509392505050565b600082601f830112611d9357611d926119d8565b5b8135611da3848260208601611d3c565b91505092915050565b600080600060608486031215611dc557611dc4611612565b5b6000611dd3868287016119c3565b935050602084013567ffffffffffffffff811115611df457611df3611617565b5b611e0086828701611d7e565b925050604084013567ffffffffffffffff811115611e2157611e20611617565b5b611e2d86828701611d7e565b9150509250925092565b600082825260208201905092915050565b6000611e5382611b32565b611e5d8185611e37565b9350611e6d818560208601611b4e565b611e7681611b78565b840191505092915050565b60006040830160008301518482036000860152611e9e8282611e48565b91505060208301518482036020860152611eb88282611e48565b9150508091505092915050565b60006020820190508181036000830152611edf8184611e81565b905092915050565b7f4e487b7100000000000000000000000000000000000000000000000000000000600052603260045260246000fd5b7f4e487b7100000000000000000000000000000000000000000000000000000000600052601160045260246000fd5b6000611f50826116ba565b91507fffffffffffffffffffffffffffffffffffffffffffffffffffffffffffffffff8203611f8257611f81611f16565b5b600182019050919050565b611f96816116f3565b82525050565b6000602082019050611fb16000830184611f8d565b92915050565b600081519050611fc6816119ac565b92915050565b600060208284031215611fe257611fe1611612565b5b6000611ff084828501611fb7565b91505092915050565b600060408201905061200e6000830185611bf9565b61201b6020830184611bf9565b9392505050565b60006040820190506120376000830185611f8d565b6120446020830184611bf9565b9392505050565b60008160601b9050919050565b60006120638261204b565b9050919050565b600061207582612058565b9050919050565b61208d612088826116f3565b61206a565b82525050565b6000819050919050565b6120ae6120a9826116ba565b612093565b82525050565b6000819050919050565b6120cf6120ca8261161c565b6120b4565b82525050565b60006120e1828861207c565b6014820191506120f1828761209d565b60208201915061210182866120be565b602082019150612111828561209d565b602082019150612121828461209d565b6020820191508190509695505050505050565b600061213f826116ba565b915061214a836116ba565b925082820390508181111561216257612161611f16565b5b92915050565b6121718161161c565b82525050565b600082825260208201905092915050565b600080fd5b82818337505050565b60006121a28385612177565b93507f07ffffffffffffffffffffffffffffffffffffffffffffffffffffffffffffff8311156121d5576121d4612188565b5b6020830292506121e683858461218d565b82840190509392505050565b60006080820190506122076000830188612168565b6122146020830187611bf9565b6122216040830186611bf9565b8181036060830152612234818486612196565b90509695505050505050565b600061224b826116ba565b9150612256836116ba565b9250828202612264816116ba565b9150828204841483151761227b5761227a611f16565b5b5092915050565b600081905092915050565b50565b600061229d600083612282565b91506122a88261228d565b600082019050919050565b60006122be82612290565b9150819050919050565b600060a0820190506122dd6000830188612168565b6122ea6020830187612168565b6122f76040830186611f8d565b6123046060830185611bf9565b6123116080830184611bf9565b9695505050505050565b7f4e487b7100000000000000000000000000000000000000000000000000000000600052602260045260246000fd5b6000600282049050600182168061236257607f821691505b6020821081036123755761237461231b565b5b50919050565b60006040820190506123906000830185612168565b61239d6020830184612168565b9392505050565b60008190508160005260206000209050919050565b60006020601f8301049050919050565b600082821b905092915050565b6000600883026124067fffffffffffffffffffffffffffffffffffffffffffffffffffffffffffffffff826123c9565b61241086836123c9565b95508019841693508086168417925050509392505050565b600061244361243e612439846116ba565b611932565b6116ba565b9050919050565b6000819050919050565b61245d83612428565b6124716124698261244a565b8484546123d6565b825550505050565b600090565b612486612479565b612491818484612454565b505050565b5b818110156124b5576124aa60008261247e565b600181019050612497565b5050565b601f8211156124fa576124cb816123a4565b6124d4846123b9565b810160208510156124e3578190505b6124f76124ef856123b9565b830182612496565b50505b505050565b600082821c905092915050565b600061251d600019846008026124ff565b1980831691505092915050565b6000612536838361250c565b9150826002028217905092915050565b61254f82611b32565b67ffffffffffffffff81111561256857612567611c81565b5b612572825461234a565b61257d8282856124b9565b600060209050601f8311600181146125b0576000841561259e578287015190505b6125a8858261252a565b865550612610565b601f1984166125be866123a4565b60005b828110156125e6578489015182556001820191506020850194506020810190506125c1565b8683101561260357848901516125ff601f89168261250c565b8355505b6001600288020188555050505b50505050505056fea2646970667358221220f996fa2d94dfbea4347611e7b2793869989289bf4a93157b8284a2608312f67264736f6c634300081c0033456e657267792070726f64756365642066726f6d20687964726f656c65637472696320736f7572636573",
  "linkReferences": {},
  "deployedLinkReferences": {}
}