{
  "_format": "hh-sol-artifact-1",
  "contractName": "Trading",
  "sourceName": "contracts/Trading.sol",
  "abi": [
    {
      "inputs": [],
      "stateMutability": "nonpayable",
      "type": "constructor"
    },
    {
      "inputs": [],
      "name": "DirectPaymentsNotAllowed",
      "type": "error"
    },
    {
      "inputs": [],
      "name": "FallbackNotSupported",
      "type": "error"
    },
    {
      "inputs": [
        {
          "internalType": "uint256",
          "name": "sent",
          "type": "uint256"
        },
        {
          "internalType": "uint256",
          "name": "required",
          "type": "uint256"
        }
      ],
      "name": "IncorrectPayment",
      "type": "error"
    },
    {
      "inputs": [
        {
          "internalType": "uint256",
          "name": "available",
          "type": "uint256"
        },
        {
          "internalType": "uint256",
          "name": "required",
          "type": "uint256"
        }
      ],
      "name": "InsufficientEnergy",
      "type": "error"
    },
    {
      "inputs": [],
      "name": "ReentrancyGuardReentrantCall",
      "type": "error"
    },
    {
      "inputs": [],
      "name": "SourceTypeAlreadyExists",
      "type": "error"
    },
    {
      "inputs": [
        {
          "internalType": "uint256",
          "name": "price",
          "type": "uint256"
        }
      ],
      "name": "ToLowPrice",
      "type": "error"
    },
    {
      "inputs": [
        {
          "internalType": "uint256",
          "name": "kWh",
          "type": "uint256"
        }
      ],
      "name": "ToLowkWh",
      "type": "error"
    },
    {
      "inputs": [],
      "name": "TradeIsInactive",
      "type": "error"
    },
    {
      "inputs": [],
      "name": "TradeNotFound",
      "type": "error"
    },
    {
      "inputs": [],
      "name": "TransferFailed",
      "type": "error"
    },
    {
      "inputs": [],
      "name": "UnauthorizedAccess",
      "type": "error"
    },
    {
      "anonymous": false,
      "inputs": [
        {
          "indexed": true,
          "internalType": "address",
          "name": "energyStorageAddress",
          "type": "address"
        }
      ],
      "name": "EnergyStorageContractSet",
      "type": "event"
    },
    {
      "anonymous": false,
      "inputs": [
        {
          "indexed": true,
          "internalType": "uint256",
          "name": "id",
          "type": "uint256"
        },
        {
          "indexed": false,
          "internalType": "string",
          "name": "name",
          "type": "string"
        },
        {
          "indexed": false,
          "internalType": "string",
          "name": "description",
          "type": "string"
        }
      ],
      "name": "SourceTypeAdded",
      "type": "event"
    },
    {
      "anonymous": false,
      "inputs": [
        {
          "indexed": false,
          "internalType": "bytes32",
          "name": "tradeId",
          "type": "bytes32"
        },
        {
          "indexed": false,
          "internalType": "bytes32",
          "name": "gridId",
          "type": "bytes32"
        },
        {
          "indexed": false,
          "internalType": "address",
          "name": "sender",
          "type": "address"
        },
        {
          "indexed": false,
          "internalType": "uint256",
          "name": "tradekWh",
          "type": "uint256"
        },
        {
          "indexed": false,
          "internalType": "uint256",
          "name": "totalPrice",
          "type": "uint256"
        }
      ],
      "name": "TradeBought",
      "type": "event"
    },
    {
      "anonymous": false,
      "inputs": [
        {
          "indexed": false,
          "internalType": "bytes32",
          "name": "tradeId",
          "type": "bytes32"
        },
        {
          "indexed": false,
          "internalType": "bytes32",
          "name": "gridId",
          "type": "bytes32"
        }
      ],
      "name": "TradeCancelled",
      "type": "event"
    },
    {
      "anonymous": false,
      "inputs": [
        {
          "indexed": true,
          "internalType": "bytes32",
          "name": "tradeId",
          "type": "bytes32"
        },
        {
          "indexed": true,
          "internalType": "address",
          "name": "seller",
          "type": "address"
        },
        {
          "indexed": false,
          "internalType": "bytes32",
          "name": "gridId",
          "type": "bytes32"
        },
        {
          "indexed": false,
          "internalType": "uint256",
          "name": "kWh",
          "type": "uint256"
        },
        {
          "indexed": false,
          "internalType": "uint256",
          "name": "pricePerkWh",
          "type": "uint256"
        },
        {
          "indexed": false,
          "internalType": "uint256[]",
          "name": "sourceTypeIds",
          "type": "uint256[]"
        }
      ],
      "name": "TradeCreated",
      "type": "event"
    },
    {
      "stateMutability": "nonpayable",
      "type": "fallback"
    },
    {
      "inputs": [
        {
          "internalType": "uint256",
          "name": "_id",
          "type": "uint256"
        },
        {
          "internalType": "string",
          "name": "_name",
          "type": "string"
        },
        {
          "internalType": "string",
          "name": "_description",
          "type": "string"
        }
      ],
      "name": "addSourceType",
      "outputs": [],
      "stateMutability": "nonpayable",
      "type": "function"
    },
    {
      "inputs": [
        {
          "internalType": "bytes32",
          "name": "_gridId",
          "type": "bytes32"
        },
        {
          "internalType": "bytes32",
          "name": "_tradeId",
          "type": "bytes32"
        }
      ],
      "name": "buyTrade",
      "outputs": [],
      "stateMutability": "payable",
      "type": "function"
    },
    {
      "inputs": [
        {
          "internalType": "bytes32",
          "name": "_gridId",
          "type": "bytes32"
        },
        {
          "internalType": "bytes32",
          "name": "_tradeId",
          "type": "bytes32"
        }
      ],
      "name": "cancelTrade",
      "outputs": [],
      "stateMutability": "nonpayable",
      "type": "function"
    },
    {
      "inputs": [
        {
          "internalType": "bytes32",
          "name": "_gridId",
          "type": "bytes32"
        },
        {
          "internalType": "uint256",
          "name": "_kWh",
          "type": "uint256"
        },
        {
          "internalType": "uint256",
          "name": "_pricePerkWh",
          "type": "uint256"
        },
        {
          "internalType": "uint256[]",
          "name": "_sourceTypeIds",
          "type": "uint256[]"
        }
      ],
      "name": "createTrade",
      "outputs": [],
      "stateMutability": "nonpayable",
      "type": "function"
    },
    {
      "inputs": [],
      "name": "energyStorage",
      "outputs": [
        {
          "internalType": "contract EnergyStorage",
          "name": "",
          "type": "address"
        }
      ],
      "stateMutability": "view",
      "type": "function"
    },
    {
      "inputs": [
        {
          "internalType": "bytes32",
          "name": "_gridId",
          "type": "bytes32"
        }
      ],
      "name": "getActiveTrades",
      "outputs": [
        {
          "components": [
            {
              "internalType": "bytes32",
              "name": "gridId",
              "type": "bytes32"
            },
            {
              "internalType": "uint256",
              "name": "kWh",
              "type": "uint256"
            },
            {
              "internalType": "uint256",
              "name": "pricePerkWh",
              "type": "uint256"
            },
            {
              "internalType": "bytes32",
              "name": "tradeId",
              "type": "bytes32"
            },
            {
              "internalType": "address",
              "name": "seller",
              "type": "address"
            },
            {
              "internalType": "bool",
              "name": "isActive",
              "type": "bool"
            },
            {
              "internalType": "uint256[]",
              "name": "sourceTypeIds",
              "type": "uint256[]"
            }
          ],
          "internalType": "struct Trading.Trade[]",
          "name": "",
          "type": "tuple[]"
        }
      ],
      "stateMutability": "view",
      "type": "function"
    },
    {
      "inputs": [
        {
          "internalType": "uint256",
          "name": "_sourceTypeId",
          "type": "uint256"
        }
      ],
      "name": "getSourceType",
      "outputs": [
        {
          "components": [
            {
              "internalType": "string",
              "name": "name",
              "type": "string"
            },
            {
              "internalType": "string",
              "name": "description",
              "type": "string"
            }
          ],
          "internalType": "struct Trading.SourceType",
          "name": "",
          "type": "tuple"
        }
      ],
      "stateMutability": "view",
      "type": "function"
    },
    {
      "inputs": [
        {
          "internalType": "address",
          "name": "_energyStorageContract",
          "type": "address"
        }
      ],
      "name": "setEnergyStorageContract",
      "outputs": [],
      "stateMutability": "nonpayable",
      "type": "function"
    },
    {
      "inputs": [
        {
          "internalType": "uint256",
          "name": "",
          "type": "uint256"
        }
      ],
      "name": "sourceTypes",
      "outputs": [
        {
          "internalType": "string",
          "name": "name",
          "type": "string"
        },
        {
          "internalType": "string",
          "name": "description",
          "type": "string"
        }
      ],
      "stateMutability": "view",
      "type": "function"
    },
    {
      "inputs": [
        {
          "internalType": "bytes32",
          "name": "",
          "type": "bytes32"
        },
        {
          "internalType": "bytes32",
          "name": "",
          "type": "bytes32"
        }
      ],
      "name": "tradeIndices",
      "outputs": [
        {
          "internalType": "uint256",
          "name": "",
          "type": "uint256"
        }
      ],
      "stateMutability": "view",
      "type": "function"
    },
    {
      "stateMutability": "payable",
      "type": "receive"
    }
  ],
  "bytecode": "0x608060405234801561001057600080fd5b50600160008190555033600160006101000a81548173ffffffffffffffffffffffffffffffffffffffff021916908373ffffffffffffffffffffffffffffffffffffffff1602179055506100d660016040518060400160405280600581526020017f536f6c61720000000000000000000000000000000000000000000000000000008152506040518060400160405280601e81526020017f456e65726779206861727665737465642066726f6d2073756e6c6967687400008152506101b660201b60201c565b61015260026040518060400160405280600481526020017f57696e64000000000000000000000000000000000000000000000000000000008152506040518060400160405280602081526020017f456e657267792067656e6572617465642066726f6d2077696e6420706f7765728152506101b660201b60201c565b6101b160036040518060400160405280600581526020017f57617465720000000000000000000000000000000000000000000000000000008152506040518060600160405280602a8152602001612d64602a91396101b660201b60201c565b61070d565b600160009054906101000a900473ffffffffffffffffffffffffffffffffffffffff1673ffffffffffffffffffffffffffffffffffffffff163373ffffffffffffffffffffffffffffffffffffffff161461023d576040517f344fd58600000000000000000000000000000000000000000000000000000000815260040160405180910390fd5b60006004600085815260200190815260200160002060000180546102609061035e565b905014610299576040517f5ec858b100000000000000000000000000000000000000000000000000000000815260040160405180910390fd5b6040518060400160405280838152602001828152506004600085815260200190815260200160002060008201518160000190816102d6919061057f565b5060208201518160010190816102ec919061057f565b50905050827f72e45489867e9b3ba96a6646a3abff3f3849ba0a1d01e0b481e240c7be89685183836040516103229291906106d6565b60405180910390a2505050565b7f4e487b7100000000000000000000000000000000000000000000000000000000600052602260045260246000fd5b6000600282049050600182168061037657607f821691505b6020821081036103895761038861032f565b5b50919050565b600081519050919050565b7f4e487b7100000000000000000000000000000000000000000000000000000000600052604160045260246000fd5b60008190508160005260206000209050919050565b60006020601f8301049050919050565b600082821b905092915050565b60006008830261042b7fffffffffffffffffffffffffffffffffffffffffffffffffffffffffffffffff826103ee565b61043586836103ee565b95508019841693508086168417925050509392505050565b6000819050919050565b6000819050919050565b600061047c6104776104728461044d565b610457565b61044d565b9050919050565b6000819050919050565b61049683610461565b6104aa6104a282610483565b8484546103fb565b825550505050565b600090565b6104bf6104b2565b6104ca81848461048d565b505050565b5b818110156104ee576104e36000826104b7565b6001810190506104d0565b5050565b601f82111561053357610504816103c9565b61050d846103de565b8101602085101561051c578190505b610530610528856103de565b8301826104cf565b50505b505050565b600082821c905092915050565b600061055660001984600802610538565b1980831691505092915050565b600061056f8383610545565b9150826002028217905092915050565b6105888261038f565b67ffffffffffffffff8111156105a1576105a061039a565b5b6105ab825461035e565b6105b68282856104f2565b600060209050601f8311600181146105e957600084156105d7578287015190505b6105e18582610563565b865550610649565b601f1984166105f7866103c9565b60005b8281101561061f578489015182556001820191506020850194506020810190506105fa565b8683101561063c5784890151610638601f891682610545565b8355505b6001600288020188555050505b505050505050565b600082825260208201905092915050565b60005b83811015610680578082015181840152602081019050610665565b60008484015250505050565b6000601f19601f8301169050919050565b60006106a88261038f565b6106b28185610651565b93506106c2818560208601610662565b6106cb8161068c565b840191505092915050565b600060408201905081810360008301526106f0818561069d565b90508181036020830152610704818461069d565b90509392505050565b6126488061071c6000396000f3fe6080604052600436106100955760003560e01c8063cd6fbe5d11610059578063cd6fbe5d146101f6578063db15782d14610233578063dc5ef3a51461025c578063e76236fe14610285578063eeaa8057146102ae576100cc565b806308efc56d1461010b5780630dd9b70d146101485780636dfae8b71461017357806375c765a11461019c5780638109cb1e146101b8576100cc565b366100cc576040517f02a2c31c00000000000000000000000000000000000000000000000000000000815260040160405180910390fd5b3480156100d857600080fd5b506040517f97e8123700000000000000000000000000000000000000000000000000000000815260040160405180910390fd5b34801561011757600080fd5b50610132600480360381019061012d919061164c565b6102eb565b60405161013f919061190a565b60405180910390f35b34801561015457600080fd5b5061015d610539565b60405161016a919061198b565b60405180910390f35b34801561017f57600080fd5b5061019a60048036038101906101959190611a37565b61055f565b005b6101b660048036038101906101b19190611abf565b6109bc565b005b3480156101c457600080fd5b506101df60048036038101906101da9190611aff565b610c79565b6040516101ed929190611bbc565b60405180910390f35b34801561020257600080fd5b5061021d60048036038101906102189190611abf565b610dad565b60405161022a9190611c02565b60405180910390f35b34801561023f57600080fd5b5061025a60048036038101906102559190611abf565b610dd2565b005b34801561026857600080fd5b50610283600480360381019061027e9190611c49565b610fd7565b005b34801561029157600080fd5b506102ac60048036038101906102a79190611da6565b6110e5565b005b3480156102ba57600080fd5b506102d560048036038101906102d09190611aff565b61125e565b6040516102e29190611ebf565b60405180910390f35b6060600060026000848152602001908152602001600020805480602002602001604051908101604052809291908181526020016000905b8282101561044557838290600052602060002090600602016040518060e0016040529081600082015481526020016001820154815260200160028201548152602001600382015481526020016004820160009054906101000a900473ffffffffffffffffffffffffffffffffffffffff1673ffffffffffffffffffffffffffffffffffffffff1673ffffffffffffffffffffffffffffffffffffffff1681526020016004820160149054906101000a900460ff161515151581526020016005820180548060200260200160405190810160405280929190818152602001828054801561042d57602002820191906000526020600020905b815481526020019060010190808311610419575b50505050508152505081526020019060010190610322565b5050505090506000815167ffffffffffffffff81111561046857610467611c7b565b5b6040519080825280602002602001820160405280156104a157816020015b61048e611523565b8152602001906001900390816104865790505b5090506000805b835181101561052a578381815181106104c4576104c3611ee1565b5b602002602001015160a001511561051d578381815181106104e8576104e7611ee1565b5b602002602001015183838151811061050357610502611ee1565b5b6020026020010181905250818061051990611f3f565b9250505b80806001019150506104a8565b50808252819350505050919050565b600560009054906101000a900473ffffffffffffffffffffffffffffffffffffffff1681565b60018310156105a557826040517f40fe0ecd00000000000000000000000000000000000000000000000000000000815260040161059c9190611c02565b60405180910390fd5b60038410156105eb57836040517fc50b10db0000000000000000000000000000000000000000000000000000000081526004016105e29190611c02565b60405180910390fd5b6000600560009054906101000a900473ffffffffffffffffffffffffffffffffffffffff1673ffffffffffffffffffffffffffffffffffffffff166350064e47336040518263ffffffff1660e01b81526004016106489190611f96565b602060405180830381865afa158015610665573d6000803e3d6000fd5b505050506040513d601f19601f820116820180604052508101906106899190611fc6565b9050848110156106d25780856040517f119d72970000000000000000000000000000000000000000000000000000000081526004016106c9929190611ff3565b60405180910390fd5b600560009054906101000a900473ffffffffffffffffffffffffffffffffffffffff1673ffffffffffffffffffffffffffffffffffffffff16634437fb9633876040518363ffffffff1660e01b815260040161072f92919061201c565b600060405180830381600087803b15801561074957600080fd5b505af115801561075d573d6000803e3d6000fd5b505050506000334288888860405160200161077c9594939291906120cf565b60405160208183030381529060405280519060200120905060006040518060e001604052808981526020018881526020018781526020018381526020013373ffffffffffffffffffffffffffffffffffffffff168152602001600115158152602001868680806020026020016040519081016040528093929190818152602001838360200280828437600081840152601f19601f820116905080830192505050505050508152509050600260008981526020019081526020016000208190806001815401808255809150506001900390600052602060002090600602016000909190919091506000820151816000015560208201518160010155604082015181600201556060820151816003015560808201518160040160006101000a81548173ffffffffffffffffffffffffffffffffffffffff021916908373ffffffffffffffffffffffffffffffffffffffff16021790555060a08201518160040160146101000a81548160ff02191690831515021790555060c082015181600501908051906020019061090d92919061157e565b5050506001600260008a815260200190815260200160002080549050610933919061212e565b600360008a81526020019081526020016000206000848152602001908152602001600020819055503373ffffffffffffffffffffffffffffffffffffffff16827f7505d0db361fc34c2d16d90fe71371167be3ca4ffb074d8049c06009bb2aae798a8a8a8a8a6040516109aa9594939291906121ec565b60405180910390a35050505050505050565b6109c46113af565b60006109d083836113f5565b905060006002600085815260200190815260200160002082815481106109f9576109f8611ee1565b5b906000526020600020906006020190508060040160149054906101000a900460ff16610a51576040517f4f04792200000000000000000000000000000000000000000000000000000000815260040160405180910390fd5b600081600201548260010154610a67919061223a565b9050803414610aaf5734816040517f0d35e921000000000000000000000000000000000000000000000000000000008152600401610aa6929190611ff3565b60405180910390fd5b60008260040160009054906101000a900473ffffffffffffffffffffffffffffffffffffffff1673ffffffffffffffffffffffffffffffffffffffff1682604051610af9906122ad565b60006040518083038185875af1925050503d8060008114610b36576040519150601f19603f3d011682016040523d82523d6000602084013e610b3b565b606091505b5050905080610b76576040517f90b8ec1800000000000000000000000000000000000000000000000000000000815260040160405180910390fd5b600560009054906101000a900473ffffffffffffffffffffffffffffffffffffffff1673ffffffffffffffffffffffffffffffffffffffff1663275afa823385600101546040518363ffffffff1660e01b8152600401610bd792919061201c565b600060405180830381600087803b158015610bf157600080fd5b505af1158015610c05573d6000803e3d6000fd5b5050505060008360040160146101000a81548160ff0219169083151502179055507f8efd937d3dd1ce5c8518498cdca191ca57f929374e379d98ea4374f522d400df858733866001015486604051610c619594939291906122c2565b60405180910390a150505050610c75611519565b5050565b6004602052806000526040600020600091509050806000018054610c9c90612344565b80601f0160208091040260200160405190810160405280929190818152602001828054610cc890612344565b8015610d155780601f10610cea57610100808354040283529160200191610d15565b820191906000526020600020905b815481529060010190602001808311610cf857829003601f168201915b505050505090806001018054610d2a90612344565b80601f0160208091040260200160405190810160405280929190818152602001828054610d5690612344565b8015610da35780601f10610d7857610100808354040283529160200191610da3565b820191906000526020600020905b815481529060010190602001808311610d8657829003601f168201915b5050505050905082565b6003602052816000526040600020602052806000526040600020600091509150505481565b6000610dde83836113f5565b90506000600260008581526020019081526020016000208281548110610e0757610e06611ee1565b5b906000526020600020906006020190503373ffffffffffffffffffffffffffffffffffffffff168160040160009054906101000a900473ffffffffffffffffffffffffffffffffffffffff1673ffffffffffffffffffffffffffffffffffffffff1614610ea0576040517f344fd58600000000000000000000000000000000000000000000000000000000815260040160405180910390fd5b8060040160149054906101000a900460ff16610ee8576040517f4f04792200000000000000000000000000000000000000000000000000000000815260040160405180910390fd5b600560009054906101000a900473ffffffffffffffffffffffffffffffffffffffff1673ffffffffffffffffffffffffffffffffffffffff1663275afa823383600101546040518363ffffffff1660e01b8152600401610f4992919061201c565b600060405180830381600087803b158015610f6357600080fd5b505af1158015610f77573d6000803e3d6000fd5b5050505060008160040160146101000a81548160ff0219169083151502179055507f7b7f6604f6316644a2b39432e5cede833eacea0808ce8ecf68fa64a79f9a0b078385604051610fc9929190612375565b60405180910390a150505050565b600160009054906101000a900473ffffffffffffffffffffffffffffffffffffffff1673ffffffffffffffffffffffffffffffffffffffff163373ffffffffffffffffffffffffffffffffffffffff161461105e576040517f344fd58600000000000000000000000000000000000000000000000000000000815260040160405180910390fd5b80600560006101000a81548173ffffffffffffffffffffffffffffffffffffffff021916908373ffffffffffffffffffffffffffffffffffffffff1602179055508073ffffffffffffffffffffffffffffffffffffffff167f8ef32b7dde06b27fc4073c865661a0df7699f11e3c0c9680d4d1ad3f5ec9d4e860405160405180910390a250565b600160009054906101000a900473ffffffffffffffffffffffffffffffffffffffff1673ffffffffffffffffffffffffffffffffffffffff163373ffffffffffffffffffffffffffffffffffffffff161461116c576040517f344fd58600000000000000000000000000000000000000000000000000000000815260040160405180910390fd5b600060046000858152602001908152602001600020600001805461118f90612344565b9050146111c8576040517f5ec858b100000000000000000000000000000000000000000000000000000000815260040160405180910390fd5b6040518060400160405280838152602001828152506004600085815260200190815260200160002060008201518160000190816112059190612540565b50602082015181600101908161121b9190612540565b50905050827f72e45489867e9b3ba96a6646a3abff3f3849ba0a1d01e0b481e240c7be8968518383604051611251929190611bbc565b60405180910390a2505050565b6112666115cb565b6004600083815260200190815260200160002060405180604001604052908160008201805461129490612344565b80601f01602080910402602001604051908101604052809291908181526020018280546112c090612344565b801561130d5780601f106112e25761010080835404028352916020019161130d565b820191906000526020600020905b8154815290600101906020018083116112f057829003601f168201915b5050505050815260200160018201805461132690612344565b80601f016020809104026020016040519081016040528092919081815260200182805461135290612344565b801561139f5780601f106113745761010080835404028352916020019161139f565b820191906000526020600020905b81548152906001019060200180831161138257829003601f168201915b5050505050815250509050919050565b6002600054036113eb576040517f3ee5aeb500000000000000000000000000000000000000000000000000000000815260040160405180910390fd5b6002600081905550565b60008060036000858152602001908152602001600020600084815260200190815260200160002054148015611440575060006002600085815260200190815260200160002080549050145b15611477576040517f630bae0400000000000000000000000000000000000000000000000000000000815260040160405180910390fd5b6000600360008581526020019081526020016000206000848152602001908152602001600020549050826002600086815260200190815260200160002082815481106114c6576114c5611ee1565b5b9060005260206000209060060201600301541461150f576040517f630bae0400000000000000000000000000000000000000000000000000000000815260040160405180910390fd5b8091505092915050565b6001600081905550565b6040518060e0016040528060008019168152602001600081526020016000815260200160008019168152602001600073ffffffffffffffffffffffffffffffffffffffff168152602001600015158152602001606081525090565b8280548282559060005260206000209081019282156115ba579160200282015b828111156115b957825182559160200191906001019061159e565b5b5090506115c791906115e5565b5090565b604051806040016040528060608152602001606081525090565b5b808211156115fe5760008160009055506001016115e6565b5090565b6000604051905090565b600080fd5b600080fd5b6000819050919050565b61162981611616565b811461163457600080fd5b50565b60008135905061164681611620565b92915050565b6000602082840312156116625761166161160c565b5b600061167084828501611637565b91505092915050565b600081519050919050565b600082825260208201905092915050565b6000819050602082019050919050565b6116ae81611616565b82525050565b6000819050919050565b6116c7816116b4565b82525050565b600073ffffffffffffffffffffffffffffffffffffffff82169050919050565b60006116f8826116cd565b9050919050565b611708816116ed565b82525050565b60008115159050919050565b6117238161170e565b82525050565b600081519050919050565b600082825260208201905092915050565b6000819050602082019050919050565b600061176183836116be565b60208301905092915050565b6000602082019050919050565b600061178582611729565b61178f8185611734565b935061179a83611745565b8060005b838110156117cb5781516117b28882611755565b97506117bd8361176d565b92505060018101905061179e565b5085935050505092915050565b600060e0830160008301516117f060008601826116a5565b50602083015161180360208601826116be565b50604083015161181660408601826116be565b50606083015161182960608601826116a5565b50608083015161183c60808601826116ff565b5060a083015161184f60a086018261171a565b5060c083015184820360c0860152611867828261177a565b9150508091505092915050565b600061188083836117d8565b905092915050565b6000602082019050919050565b60006118a082611679565b6118aa8185611684565b9350836020820285016118bc85611695565b8060005b858110156118f857848403895281516118d98582611874565b94506118e483611888565b925060208a019950506001810190506118c0565b50829750879550505050505092915050565b600060208201905081810360008301526119248184611895565b905092915050565b6000819050919050565b600061195161194c611947846116cd565b61192c565b6116cd565b9050919050565b600061196382611936565b9050919050565b600061197582611958565b9050919050565b6119858161196a565b82525050565b60006020820190506119a0600083018461197c565b92915050565b6119af816116b4565b81146119ba57600080fd5b50565b6000813590506119cc816119a6565b92915050565b600080fd5b600080fd5b600080fd5b60008083601f8401126119f7576119f66119d2565b5b8235905067ffffffffffffffff811115611a1457611a136119d7565b5b602083019150836020820283011115611a3057611a2f6119dc565b5b9250929050565b600080600080600060808688031215611a5357611a5261160c565b5b6000611a6188828901611637565b9550506020611a72888289016119bd565b9450506040611a83888289016119bd565b935050606086013567ffffffffffffffff811115611aa457611aa3611611565b5b611ab0888289016119e1565b92509250509295509295909350565b60008060408385031215611ad657611ad561160c565b5b6000611ae485828601611637565b9250506020611af585828601611637565b9150509250929050565b600060208284031215611b1557611b1461160c565b5b6000611b23848285016119bd565b91505092915050565b600081519050919050565b600082825260208201905092915050565b60005b83811015611b66578082015181840152602081019050611b4b565b60008484015250505050565b6000601f19601f8301169050919050565b6000611b8e82611b2c565b611b988185611b37565b9350611ba8818560208601611b48565b611bb181611b72565b840191505092915050565b60006040820190508181036000830152611bd68185611b83565b90508181036020830152611bea8184611b83565b90509392505050565b611bfc816116b4565b82525050565b6000602082019050611c176000830184611bf3565b92915050565b611c26816116ed565b8114611c3157600080fd5b50565b600081359050611c4381611c1d565b92915050565b600060208284031215611c5f57611c5e61160c565b5b6000611c6d84828501611c34565b91505092915050565b600080fd5b7f4e487b7100000000000000000000000000000000000000000000000000000000600052604160045260246000fd5b611cb382611b72565b810181811067ffffffffffffffff82111715611cd257611cd1611c7b565b5b80604052505050565b6000611ce5611602565b9050611cf18282611caa565b919050565b600067ffffffffffffffff821115611d1157611d10611c7b565b5b611d1a82611b72565b9050602081019050919050565b82818337600083830152505050565b6000611d49611d4484611cf6565b611cdb565b905082815260208101848484011115611d6557611d64611c76565b5b611d70848285611d27565b509392505050565b600082601f830112611d8d57611d8c6119d2565b5b8135611d9d848260208601611d36565b91505092915050565b600080600060608486031215611dbf57611dbe61160c565b5b6000611dcd868287016119bd565b935050602084013567ffffffffffffffff811115611dee57611ded611611565b5b611dfa86828701611d78565b925050604084013567ffffffffffffffff811115611e1b57611e1a611611565b5b611e2786828701611d78565b9150509250925092565b600082825260208201905092915050565b6000611e4d82611b2c565b611e578185611e31565b9350611e67818560208601611b48565b611e7081611b72565b840191505092915050565b60006040830160008301518482036000860152611e988282611e42565b91505060208301518482036020860152611eb28282611e42565b9150508091505092915050565b60006020820190508181036000830152611ed98184611e7b565b905092915050565b7f4e487b7100000000000000000000000000000000000000000000000000000000600052603260045260246000fd5b7f4e487b7100000000000000000000000000000000000000000000000000000000600052601160045260246000fd5b6000611f4a826116b4565b91507fffffffffffffffffffffffffffffffffffffffffffffffffffffffffffffffff8203611f7c57611f7b611f10565b5b600182019050919050565b611f90816116ed565b82525050565b6000602082019050611fab6000830184611f87565b92915050565b600081519050611fc0816119a6565b92915050565b600060208284031215611fdc57611fdb61160c565b5b6000611fea84828501611fb1565b91505092915050565b60006040820190506120086000830185611bf3565b6120156020830184611bf3565b9392505050565b60006040820190506120316000830185611f87565b61203e6020830184611bf3565b9392505050565b60008160601b9050919050565b600061205d82612045565b9050919050565b600061206f82612052565b9050919050565b612087612082826116ed565b612064565b82525050565b6000819050919050565b6120a86120a3826116b4565b61208d565b82525050565b6000819050919050565b6120c96120c482611616565b6120ae565b82525050565b60006120db8288612076565b6014820191506120eb8287612097565b6020820191506120fb82866120b8565b60208201915061210b8285612097565b60208201915061211b8284612097565b6020820191508190509695505050505050565b6000612139826116b4565b9150612144836116b4565b925082820390508181111561215c5761215b611f10565b5b92915050565b61216b81611616565b82525050565b600082825260208201905092915050565b600080fd5b82818337505050565b600061219c8385612171565b93507f07ffffffffffffffffffffffffffffffffffffffffffffffffffffffffffffff8311156121cf576121ce612182565b5b6020830292506121e0838584612187565b82840190509392505050565b60006080820190506122016000830188612162565b61220e6020830187611bf3565b61221b6040830186611bf3565b818103606083015261222e818486612190565b90509695505050505050565b6000612245826116b4565b9150612250836116b4565b925082820261225e816116b4565b9150828204841483151761227557612274611f10565b5b5092915050565b600081905092915050565b50565b600061229760008361227c565b91506122a282612287565b600082019050919050565b60006122b88261228a565b9150819050919050565b600060a0820190506122d76000830188612162565b6122e46020830187612162565b6122f16040830186611f87565b6122fe6060830185611bf3565b61230b6080830184611bf3565b9695505050505050565b7f4e487b7100000000000000000000000000000000000000000000000000000000600052602260045260246000fd5b6000600282049050600182168061235c57607f821691505b60208210810361236f5761236e612315565b5b50919050565b600060408201905061238a6000830185612162565b6123976020830184612162565b9392505050565b60008190508160005260206000209050919050565b60006020601f8301049050919050565b600082821b905092915050565b6000600883026124007fffffffffffffffffffffffffffffffffffffffffffffffffffffffffffffffff826123c3565b61240a86836123c3565b95508019841693508086168417925050509392505050565b600061243d612438612433846116b4565b61192c565b6116b4565b9050919050565b6000819050919050565b61245783612422565b61246b61246382612444565b8484546123d0565b825550505050565b600090565b612480612473565b61248b81848461244e565b505050565b5b818110156124af576124a4600082612478565b600181019050612491565b5050565b601f8211156124f4576124c58161239e565b6124ce846123b3565b810160208510156124dd578190505b6124f16124e9856123b3565b830182612490565b50505b505050565b600082821c905092915050565b6000612517600019846008026124f9565b1980831691505092915050565b60006125308383612506565b9150826002028217905092915050565b61254982611b2c565b67ffffffffffffffff81111561256257612561611c7b565b5b61256c8254612344565b6125778282856124b3565b600060209050601f8311600181146125aa5760008415612598578287015190505b6125a28582612524565b86555061260a565b601f1984166125b88661239e565b60005b828110156125e0578489015182556001820191506020850194506020810190506125bb565b868310156125fd57848901516125f9601f891682612506565b8355505b6001600288020188555050505b50505050505056fea2646970667358221220ee515b521002b9babc4ddedbacfcaff5a481caab03ec0ba32135d7595ed7742564736f6c634300081c0033456e657267792070726f64756365642066726f6d20687964726f656c65637472696320736f7572636573",
  "linkReferences": {},
  "deployedLinkReferences": {}
}